:100000000C947A000C94A2000C94A2000C94C104ED
:100010000C94A2000C94A0030C94A2000C94FF0278
:100020000C94A2000C94A2000C94A2000C94A200C8
:100030000C94A2000C94A2000C94A2000C94A200B8
:100040000C94C3210C94A2000C9460240C94AE2454
:100050000C94A2000C94A2000C94A2000C94A20098
:100060000C9414200C94A200CA1063136B13751324
:1000700037147714DE15F6152816C916E016F7168C
:100080002017DB1C4C17D7182A19101B4E1BC91B35
:100090000C1C991CD61C00000000240027002A001C
:1000A00000000000250028002B00000000002300B5
:1000B00026002900040404040404040402020202C9
:1000C000020203030303030301020408102040801B
:1000D000010204081020010204081020000000079B
:1000E0000002010000030406000000000000000000
:1000F000B01E1A2611241FBECFEFD8E0DEBFCDBF41
:1001000011E0A0E0B1E0ECE6F1E502C005900D924F
:10011000A23DB107D9F718E0A2EDB1E001C01D92F0
:10012000A535B107E1F710E0C4EFD0E004C0229795
:10013000FE010E94B028C03FD107C9F70E94702677
:100140000C94B4280C9400008091B706482F50E01E
:10015000E0ECF6E020E030E061E0CA01022E02C0EF
:10016000959587950A94E2F780FD02C0108201C040
:1001700060832F5F3F4F31972830310571F78091B1
:10018000B806482F50E0E8ECF6E020E030E061E00F
:10019000CA01022E02C0959587950A94E2F780FD68
:1001A00002C0108201C060832F5F3F4F319728301B
:1001B000310571F7089582E080933D0280933E02FD
:1001C000109240061092D20188E893E19093D401F6
:1001D0008093D3011092D5011092D6011092D701CD
:1001E0001092D801E9EDF1E010821182329632E0EE
:1001F000ED33F307C9F788EE93E090933F068093C1
:100200003E0686E290E09093400280933F028FEF9B
:100210008093410210924302109242021092AC036A
:1002200081E08093AD03E4E4F2E011821082138256
:100230001282349683E0EC3AF807B9F7EEEAF3E07D
:1002400021E082E390E010822183938382833496BD
:1002500033E0EE3CF307B9F7EEE1F4E010821282EE
:1002600011821482138216821582108617821286DA
:1002700011861386709686E0EE33F80779F7EEEC78
:10028000F3E0108212821182138214821682158288
:100290001782108611863A9634E0EE31F30789F71B
:1002A00008958AE061E00E94DD22089584E062E022
:1002B0000E94DD2285E062E00E94DD2282E062E0B1
:1002C0000E94DD2283E062E00E94DD221092CA06D5
:1002D0001092C9061092CC061092CB061092CE0650
:1002E0001092CD061092D0061092CF06E8E6F0E00C
:1002F000808184608083EDE6F0E08081846080838B
:100300008081886080838081806180838081806239
:100310008083089589E060E00E94DD2285E080937B
:10032000AB060895CF92DF92EF92FF921F93182FA2
:100330006A017B018AE061E00E941C23812F8150C9
:10034000833008F040C0143099F1153038F4123081
:10035000A9F01330E0F41130B1F507C0163061F1A7
:10036000163040F1173079F52AC08EE061E00E9426
:100370001C23C701B6010E943F221AC08FE061E032
:100380000E941C23C701B6010E943F2215C08EE0C7
:1003900061E00E941C238FE061E00E941C23C701E2
:1003A000B6010E943F228EE060E00E941C2304C040
:1003B0008EE003C08EE004C08FE060E002C08FE0FA
:1003C00061E00E941C238AE060E00E941C231F91D0
:1003D000FF90EF90DF90CF9008958EE061E00E9453
:1003E000DD228FE061E00E94DD228EE060E00E946D
:1003F0001C238FE060E00E941C23089587E062E0E8
:100400000E94DD2288E061E00E94DD2288E060E059
:100410000E941C2368E873E180E090E00E943F2284
:100420008091B0019091B10108979093B1018093B0
:10043000B0010895CF92DF92EF92FF920F931F9336
:10044000CF93DF938091420290914302892B09F46C
:10045000CDC080914102883008F0C8C060913F0251
:100460007091400280E49FE10E945D288B017093AF
:10047000B5066093B4068091AC03882379F581E0DA
:100480008093AC03C4E4D2E06B01EE24FF246881C6
:10049000798180E090E034E0660F771F881F991F14
:1004A0003A95D1F7A70196010E94712839832883D4
:1004B0006A817B8180E090E024E0660F771F881FCF
:1004C000991F2A95D1F7A70196010E9471283B83B5
:1004D0002A83249683E0CC3AD807C9F6F894109280
:1004E000700017BA8091B6008F7D8093B60080911E
:1004F000B10081608093B1008091B1008D7F8093C5
:10050000B1008091B1008B7F8093B1008091B000E9
:100510008E7F8093B0008091B00082608093B000A5
:100520008091B100877F8093B1008091B0008F7778
:100530008093B0008091B0008F7B8093B000809159
:10054000B0008F7D8093B0008091B0008F7E80934B
:10055000B0008091B1008F778093B1008091B1009D
:100560008F7B8093B1001092B200C8018E589040EA
:100570008137910518F40093B30003C082ED809396
:10058000B3001092B4001092700017BA86E060E0D9
:100590000E941C231092AD061092AC0681E090E000
:1005A0009093AF068093AE069093B1068093B00609
:1005B00080914402909145029093B3068093B206D5
:1005C00078948091700082608093700081E08093C5
:1005D000B60604C08AE061E00E941C238091B60642
:1005E0008130C1F38AE060E00E941C23DF91CF914B
:1005F0001F910F91FF90EF90DF90CF9008951F9281
:100600000F920FB60F9211242F933F934F935F9346
:100610006F937F938F939F93AF93BF93EF93FF93CA
:10062000F8948091AE069091AF060197A1F586E00F
:100630006091B0060E941C2320E030E08091B0065B
:100640009091B106892B11F421E030E03093B1068E
:100650002093B0068091B2069091B30601979093D3
:10066000B3068093B206892B09F04FC01092AF06F3
:100670001092AE0681E090E09093B1068093B006B0
:10068000E091AC06F091AD06EE0FFF1FEE0FFF1FDD
:10069000ED5BFD4F34C086E060E00E941C2380913A
:1006A000B2069091B30601979093B3068093B20679
:1006B000892B59F5E091AC06F091AD063196F09397
:1006C000AD06E093AC068091420290914302E81798
:1006D000F90728F01092B6061092700016C081E05B
:1006E00090E09093AF068093AE069093B10680930E
:1006F000B006EE0FFF1FEE0FFF1FEF5BFD4F838174
:1007000094819093B3068093B2067894FF91EF9111
:10071000BF91AF919F918F917F916F915F914F9119
:100720003F912F910F900FBE0F901F90189586E06C
:1007300061E00E94DD2286E060E00E941C230895B3
:100740001F920F920FB60F9211241F932F933F9376
:100750004F935F936F937F938F939F93AF93BF93C9
:10076000CF93DF93EF93FF93F8940E9419229B019C
:10077000AC0119B1E12FF0E08091E106682F70E043
:100780006E277F2764FF25C014FF09C02093D10680
:100790003093D2064093D3065093D4061AC080916A
:1007A000D1069091D206A091D306B091D406281715
:1007B00039074A075B0728F0E901C81BD90BCE01AE
:1007C00004C080959095820F931F9093CA068093E2
:1007D000C90665FF2DC0E5FF09C02093D5063093FB
:1007E000D6064093D7065093D80622C08091D106F2
:1007F0009091D206A091D306B091D406281739075C
:100800004A075B0748F08091D5069091D606D9013A
:10081000A81BB90BCD0108C08091D5069091D606D2
:1008200080959095820F931F9093CC068093CB0672
:1008300062FF25C0E2FF09C02093D9063093DA0693
:100840004093DB065093DC061AC08091D906909144
:10085000DA06A091DB06B091DC06281739074A07B3
:100860005B0728F0E901C81BD90BCE0104C08095B5
:100870009095820F931F9093CE068093CD0663FFD1
:1008800025C0E3FF09C02093DD063093DE064093C8
:10089000DF065093E0061AC08091DD069091DE06D7
:1008A000A091DF06B091E006281739074A075B07D9
:1008B00028F0B901681B790BCB0104C08095909595
:1008C000820F931F9093D0068093CF061093E1067A
:1008D00089B1181709F049CF7894FF91EF91DF9112
:1008E000CF91BF91AF919F918F917F916F915F91C8
:1008F0004F913F912F911F910F900FBE0F901F901E
:1009000018951F93182F8AE061E00E941C23109312
:10091000410210924302109242021092AC031092D4
:10092000AD03E12FF0E0EE0FFF1FEE0FFF1FE255CA
:10093000FC4F1082E4E4F2E01182108213821282F2
:10094000349683E0EC3AF807B9F782E08093AB067F
:100950000E9419226093A7067093A8068093A906A7
:100960009093AA068FEF8093A6068091680081601D
:100970008093680080916B00826080936B001F9170
:1009800008951F920F920FB60F921124CF92DF920B
:10099000EF92FF920F931F932F933F934F935F9389
:1009A0006F937F938F939F93AF93BF93EF93FF9337
:1009B000F89413E0C12E0E9419227B018C01D3B060
:1009C0002091A7063091A8064091A9065091AA0649
:1009D0006D2D70E08091A60690E08627972781FF15
:1009E00067C08091AB06823029F4C092AB068AE0E2
:1009F00060E025C0833009F053C0D801C701821BD5
:100A0000930BA40BB50B8E3F2FEF920720E0A207AC
:100A100020E0B20720F08DEF9FEFA0E0B0E0E09182
:100A20004202F091430261FF0DC0EE0FFF1FEE0F77
:100A3000FF1FEF5BFD4F948383838AE061E00E9498
:100A40001C232EC0EE0FFF1FEE0FFF1FED5BFD4FAF
:100A5000948383838AE060E00E941C238091420299
:100A60009091430201969093430280934202E09159
:100A70004102F0E0EE0FFF1FEE0FFF1FE255FC4FAB
:100A800020812F5F20838A35910550F08091680086
:100A90008E7F8093680080916B008D7F80936B00C8
:100AA000E092A706F092A8060093A9061093AA0662
:100AB000D092A60683B1D81609F07DCF7894FF9125
:100AC000EF91BF91AF919F918F917F916F915F91C6
:100AD0004F913F912F911F910F91FF90EF90DF90D9
:100AE000CF900F900FBE0F901F901895EF92FF922E
:100AF0000F931F93CF93DF937C0100E010E087E01A
:100B000061E020E432E44FE050E00E94C3236858E3
:100B100073418040904098F38091B0019091B10171
:100B20000E949822C7E0D0E0F701EC0FFD1F88E09B
:100B300060810E941C238091B0019091B1010E94BC
:100B4000982221978FEFCF3FD80771F788E060E0B8
:100B50000E941C238AE090E00E94982287E00E9475
:100B60007023892BD9F78091B0019091B1010E9437
:100B70009822CFE0D0E0F701EC0FFD1F88E0608104
:100B80000E941C238091B0019091B1010E94982293
:100B90002197C730D10579F788E060E00E941C23D7
:100BA0000F5F1F4F0530110509F0A9CFDF91CF91DD
:100BB0001F910F91FF90EF9008958093B706609377
:100BC000B8060E94A40089EB96E00E94760508957D
:100BD0001F93182F8AE061E00E941C23E12FF0E0B0
:100BE000EE0FFF1FE952FE4F808161810E94DD05FB
:100BF0008AE060E00E941C231F910895EF92FF920B
:100C00000F931F938091AB068230E1F5E090A70629
:100C1000F090A8060091A9061091AA0680E89DE828
:100C2000ABE5B0E0E80EF91E0A1F1B1F0E94192257
:100C3000E616F7060807190728F5E0914202F09139
:100C40004302EE0FFF1FEE0FFF1FED5BFD4F8EEF18
:100C50009FEF94838383809168008E7F80936800E8
:100C600080916B008D7F80936B008AE060E00E9432
:100C70001C2383E398E060E071E00E942B2885E06C
:100C80008093AB068091AB06833009F052C0E090B0
:100C9000A706F090A8060091A9061091AA068FEF6A
:100CA0009FEFA0E0B0E0E80EF91E0A1F1B1F0E9494
:100CB0001922E616F70608071907D8F584E080938D
:100CC000AB06809168008E7F8093680080916B00F6
:100CD0008D7F80936B008AE060E00E941C2340912E
:100CE0004202509143029A012F5F3F4F30934302DB
:100CF0002093420280914102E82FF0E0EE0FFF1FA7
:100D0000EE0FFF1FE255FC4F80818F5F8083815083
:100D10002A35310570F0509343024093420280839C
:100D200083E398E060E071E00E942B2885E08093E7
:100D3000AB068091AB06843049F485E08093AB0626
:100D400083E398E064E071E00E942B281F910F91EB
:100D5000FF90EF90089588E297E00E94501F109254
:100D60009106109293061092920610929506109298
:100D70009406E6E9F6E0119286E0E63AF807D9F73C
:100D800008950F931F93CF93DF9300E010E088E264
:100D900097E060E570E00E94761EB80160707F7792
:100DA000672F770F770B88E297E00E94F81EB80153
:100DB000707088E297E00E94F81EC0E0D0E088E200
:100DC00097E06FEF0E94F81E2196C031D105B9F768
:100DD00088E297E00E943B1F6AE070E080E090E0CC
:100DE0000E943F22005F1F4F80E10030180779F614
:100DF000DF91CF911F910F910895EF92FF920F9382
:100E00001F93CF93DF93CEEAD3E047E4E42E42E092
:100E1000F42E88E297E060E570E00E94761E97016C
:100E200020703F7788E297E0632F0E94F81EB70199
:100E3000707088E297E00E94F81E88E297E00E94B6
:100E40003B1F88E297E060E570E044E050E00E94DC
:100E50004C1F88E297E00E94801E892B29F088E2CF
:100E600097E00E94891E888388E297E00E94801E96
:100E7000892B29F088E297E00E94891E898388E205
:100E800097E00E94801E892B31F088E297E00E9453
:100E9000891E1A828B8388E297E00E94801E892B2C
:100EA00051F00A811B8188E297E00E94891E080F99
:100EB000191F1B830A8384E090E0E80EF91E249634
:100EC00097E6E91692E0F90609F0A3CFDF91CF91FA
:100ED0001F910F91FF90EF900895EF92FF920F9363
:100EE0001F93CF93DF93CEE1D4E05FEAE52EF12CA0
:100EF00088E297E060E570E00E94761E970120701E
:100F00003F7788E297E0632F0E94F81EB701707068
:100F100088E297E00E94F81E88E297E00E943B1F5B
:100F20006AE070E080E090E00E943F2288E297E073
:100F300060E570E04CE050E00E944C1F88E297E0D2
:100F40000E94801E892B29F088E297E00E94891E6A
:100F5000888388E297E00E94801E892B31F088E226
:100F600097E00E94891E19828A8388E297E00E9496
:100F7000801E892B51F009811A8188E297E00E9436
:100F8000891E080F191F1A83098388E297E00E94BF
:100F9000801E892B31F088E297E00E94891E1B8217
:100FA0008C8388E297E00E94801E892B51F00B8190
:100FB0001C8188E297E00E94891E080F191F1C837C
:100FC0000B8388E297E00E94801E892B31F088E233
:100FD00097E00E94891E1D828E8388E297E00E941E
:100FE000801E892B51F00D811E8188E297E00E94BE
:100FF000891E080F191F1E830D8388E297E00E9447
:10100000801E892B31F088E297E00E94891E1F82A2
:10101000888788E297E00E94801E892B51F00F811B
:10102000188588E297E00E94891E080F191F18870B
:101030000F8388E297E00E94801E892B31F088E2BE
:1010400097E00E94891E19868A8788E297E00E94AD
:10105000801E892B51F009851A8588E297E00E944D
:10106000891E080F191F1A87098788E297E00E94D6
:10107000801E892B29F088E297E00E94891E8B87C9
:101080006AE070E080E090E00E943F228CE090E017
:10109000E80EF91E609697E4E91692E0F90609F069
:1010A00027CFDF91CF911F910F91FF90EF9008957F
:1010B000EF92FF920F931F93CF93DF93CEECD3E089
:1010C0006FE6E62EF12C88E297E060E570E00E9482
:1010D000761E970120703F7788E297E0632F0E9489
:1010E000F81EB701707088E297E00E94F81E88E24F
:1010F00097E00E943B1F88E297E060E570E048E0DF
:1011000050E00E944C1F88E297E00E94801E892BCD
:1011100029F088E297E00E94891E888388E297E0A0
:101120000E94801E892B31F088E297E00E94891E80
:1011300019828A8388E297E00E94801E892B51F0F1
:1011400009811A8188E297E00E94891E080F191F01
:101150001A83098388E297E00E94801E892B29F078
:1011600088E297E00E94891E8B8388E297E00E94C4
:10117000801E892B29F088E297E00E94891E8C83CB
:1011800088E297E00E94801E892B31F088E297E088
:101190000E94891E1D828E8388E297E00E94801E35
:1011A000892B51F00D811E8188E297E00E94891EF3
:1011B000080F191F1E830D8388E297E00E94801E8E
:1011C000892B29F088E297E00E94891E8F8388E0AE
:1011D00090E0E80EF91E2A969FEAE916F10409F05C
:1011E00072CFDF91CF911F910F91FF90EF900895F3
:1011F0000F931F93CF93DF9309ED11E0CBE0D0E085
:1012000088E297E060E570E00E94761EBE016070A3
:101210007F77672F770F770B88E297E00E94F81EA1
:10122000BE01707088E297E00E94F81E88E297E0A5
:101230000E943B1F88E297E060E570E042E050E0EA
:101240000E944C1F88E297E00E94801E892B31F09B
:1012500088E297E00E94891EF801808388E297E087
:101260000E94801E892B31F088E297E00E94891E3F
:10127000F801818322960E5F1F4FCF36D10509F00A
:10128000BFCFDF91CF911F910F9108950F931F93BF
:1012900088E297E060E570E00E94761E88E297E0C1
:1012A00060E00E94F81E88E297E068E00E94F81E65
:1012B00088E297E00E943B1F88E297E060E570E0DB
:1012C00043E050E00E944C1F88E297E00E94801E9D
:1012D000892B31F088E297E00E94891E8093D20129
:1012E00088E297E00E94801E892B41F088E297E017
:1012F0000E94891E1092D3018093D40188E297E066
:101300000E94801E892B71F00091D3011091D401AD
:1013100088E297E00E94891E080F191F1093D401DC
:101320000093D3011F910F9108950F931F9388E2AB
:1013300097E060E570E00E94761E88E297E060E04A
:101340000E94F81E88E297E066E00E94F81E88E29C
:1013500097E00E943B1F88E297E060E570E042E082
:1013600050E00E944C1F88E297E00E94801E892B6B
:1013700041F088E297E00E94891E10923E06809319
:101380003F0688E297E00E94801E892B71F0009151
:101390003E0610913F0688E297E00E94891E080FE2
:1013A000191F10933F0600933E061F910F91089559
:1013B0000F931F9388E297E060E570E00E94761E2D
:1013C00088E297E060E00E94F81E88E297E064E01F
:1013D0000E94F81E88E297E00E943B1F88E297E097
:1013E00060E570E042E050E00E944C1F88E297E028
:1013F0000E94801E892B41F088E297E00E94891E9E
:1014000010923F028093400288E297E00E94801E83
:10141000892B71F000913F021091400288E297E021
:101420000E94891E080F191F1093400200933F026B
:101430001F910F91089588E297E060E570E00E94A7
:10144000761E88E297E060E00E94F81E88E297E04E
:1014500062E00E94F81E88E297E00E943B1F88E24B
:1014600097E060E570E041E050E00E944C1F88E2A8
:1014700097E00E94801E892B41F088E297E00E944D
:10148000891E80933D0280933E0208950F931F931F
:10149000CF93DF938C0188E297E060E570E00E94D3
:1014A000761E980120703F7788E297E0632F0E94B4
:1014B000F81EB801707088E297E00E94F81E88E27A
:1014C00097E00E943B1F6AE070E080E090E00E949D
:1014D0003F2288E297E060E570E040E150E00E9442
:1014E0004C1F83E398E068E071E00E94282883E3C2
:1014F00098E0B8014AE050E00E94582783E398E062
:101500006BE071E00E942828C0E0D0E088E297E01C
:101510000E94801E892B89F088E297E00E94891E34
:10152000BC0183E398E04AE050E00E94F62783E3A1
:1015300098E06BE071E00E9428282196C031D10527
:1015400029F783E398E00E94A9266AE070E080E032
:1015500090E00E943F22DF91CF911F910F9108955B
:10156000CF93DF9388E297E060E570E00E94761EFB
:10157000209192063091930620703F7788E297E0A1
:10158000632F0E94F81E609192067091930670700E
:1015900088E297E00E94F81EC6E9D6E088E297E06C
:1015A00069910E94F81E86E0C63AD807B9F788E22A
:1015B00097E00E943B1F6EE170E080E090E00E94A7
:1015C0003F22DF91CF91089580919106813061F49F
:1015D0008AE061E00E941C230E94B00A10929106EA
:1015E0008AE060E00E941C230895FF920F931F93EE
:1015F000CF93DF938C01F62EEC01C07F8091920691
:1016000090919306C817D90711F00E94E40A8091BF
:101610009106882309F03FC0D0939306C0939206A9
:1016200081E08093910688E297E060E570E00E9497
:10163000761E209192063091930620703F7788E2C3
:1016400097E0632F0E94F81E6091920670919306B6
:10165000707088E297E00E94F81E88E297E00E948E
:101660003B1F88E297E060E570E040E150E00E94B7
:101670004C1FC6E9D6E088E297E00E94801E892BC5
:1016800029F088E297E00E94891E8883219686E0EF
:10169000C63AD80781F7F801EF70F070EA56F94FB3
:1016A000F0821093950600939406DF91CF911F91DD
:1016B0000F91FF90089582E090E060913D020E94BA
:1016C000F50A0895682F80919406909195060196E9
:1016D0000E94F50A08951F93182F892F0E94620B0C
:1016E000812F0E94620B1F9108950F931F93CF9338
:1016F000DF93C9EDD1E00BE010E0C80168810E94E2
:10170000F50A89810E94620B22960E5F1F4F82E0CC
:10171000CD33D80791F7DF91CF911F910F910895A5
:101720000F931F93CF93DF93CEEAD3E007E412E049
:10173000C80168810E94F50A89810E94620B8A8132
:101740009B810E946B0B24960C5F1F4F83E0CE3C65
:10175000D80771F7DF91CF911F910F9108950F93E3
:101760001F93CF93DF93CEE1D4E00FEA10E0C801DE
:1017700068810E94F50A89819A810E946B0B8B8196
:101780009C810E946B0B8D819E810E946B0B8F81CF
:1017900098850E946B0B89859A850E946B0B8B85BF
:1017A0000E94620B6096045F1F4F86E0CE33D8071D
:1017B000F1F6DF91CF911F910F9108950F931F9331
:1017C000CF93DF93CEECD3E00FE610E0C801688141
:1017D0000E94F50A89819A810E946B0B8B810E947D
:1017E000620B8C810E94620B8D819E810E946B0B2B
:1017F0008F810E94620B2A96085F1F4F84E0CE31D2
:10180000D80721F7DF91CF911F910F9108951F9372
:10181000162F672F0E94F50A812F0E94620B1F91DD
:101820000895FF920F931F93CF93DF938091AC03A2
:10183000882351F580914102883030F581E0809312
:10184000AD0304E412E0C0E0D0E0AAE5FA2E8091F6
:1018500041028F9DC00111248C0F9D1F880F991F7D
:10186000880F991FF8016081718189599D4F0E94ED
:10187000070CF801828193810E946B0B21960C5F0B
:101880001F4FCA35D10519F7DF91CF911F910F91E5
:10189000FF90089560913E0670913F0686E090E0CB
:1018A0000E94070C089560913F027091400284E00D
:1018B00090E00E94070C089580E090E064E070E002
:1018C0000E94070C089588E090E06091D2010E9488
:1018D000F50A6091D3017091D40189E090E00E94F3
:1018E000070C08951092910610929306109292069A
:1018F0001092950610929406E6E9F6E0119286E0C1
:10190000E63AF807D9F70E945C0C0E945B0B0E9434
:10191000530C0E944A0C0E94630C0E94750B0E949B
:10192000DE0B0E94AF0B0E94900B0E94110C0E94D4
:10193000E40A0895DF92EF92FF920F931F93CF93E3
:10194000DF93082F80914102081731F48091AC0396
:10195000813009F09AC006C08091AD03882311F44C
:101960000E94110C00934102E02FF0E0EE0FFF1FE8
:10197000EE0FFF1FE255FC4F8081809342021092D0
:1019800043021092AC0381E08093AD03C4E4D2E043
:10199000EE24FF240AE5D02E88E297E060E570E0AF
:1019A0000E94761E209141022D9D900111242E0D42
:1019B0003F1D220F331F220F331F29593D4F207027
:1019C0003F7788E297E0632F0E94F81E6091410202
:1019D0006D9DB00111246E0D7F1D660F771F660F80
:1019E000771F69597D4F707088E297E00E94F81E5A
:1019F00088E297E00E943B1F88E297E060E570E094
:101A000044E050E00E944C1F88E297E00E94801E54
:101A1000892B31F088E297E00E94891E1882898321
:101A200088E297E00E94801E892B51F0088119817D
:101A300088E297E00E94891E080F191F1983088306
:101A400088E297E00E94801E892B31F088E297E0BF
:101A50000E94891E1A828B8388E297E00E94801E72
:101A6000892B51F00A811B8188E297E00E94891E30
:101A7000080F191F1B830A830894E11CF11C24968C
:101A80008AE5E816F10409F087CFDF91CF911F9125
:101A90000F91FF90EF90DF900895CF92DF92EF9239
:101AA000FF920F931F93CF93DF93182FE82FF0E04F
:101AB000EE0FFF1FEE0FFF1FE255FC4F80818823C2
:101AC00009F4EBC0183008F0E8C08091AD0388231A
:101AD000A9F4109291061092930610929206109219
:101AE000950610929406E6E9F6E0119286E0E63A51
:101AF000F807D9F70E94110C0E94E40A8091410274
:101B0000181719F0812F0E949A0C60913F02709172
:101B1000400280E49FE10E945D288B017093B5062E
:101B20006093B4068091AC03882379F581E08093BB
:101B3000AC03C4E4D2E06B01EE24FF246881798118
:101B400080E090E034E0660F771F881F991F3A9578
:101B5000D1F7A70196010E947128398328836A81F1
:101B60007B8180E090E024E0660F771F881F991F3B
:101B70002A95D1F7A70196010E9471283B832A83F9
:101B8000249683E0CC3AD807C9F6F89410927000F6
:101B900017BA8091B6008F7D8093B6008091B10016
:101BA00081608093B1008091B1008D7F8093B100FE
:101BB0008091B1008B7F8093B1008091B0008E7FC7
:101BC0008093B0008091B00082608093B0008091DB
:101BD000B100877F8093B1008091B0008F778093B0
:101BE000B0008091B0008F7B8093B0008091B000F6
:101BF0008F7D8093B0008091B0008F7E8093B00085
:101C00008091B1008F778093B1008091B1008F7B7C
:101C10008093B1001092B200C8018E589040813775
:101C2000910518F40093B30003C082ED8093B300D4
:101C30001092B4001092700017BA86E060E00E9423
:101C40001C231092AD061092AC0681E090E09093B8
:101C5000AF068093AE069093B1068093B006809154
:101C60004402909145029093B3068093B206789413
:101C70008091700082608093700081E08093B6064E
:101C800004C08AE061E00E941C238091B606813086
:101C9000C1F38AE060E00E941C23DF91CF911F9185
:101CA0000F91FF90EF90DF90CF900895EF92FF9209
:101CB0000F931F93CF93DF93F82E809140068823D4
:101CC00009F040C00E940B22695E73408040904042
:101CD000C8F180913D02813009F58F2D90E0019788
:101CE000880F991F880F991FFC01E255FC4F218135
:101CF000C22FD0E0EF2CEA948C0100551C4F0CC091
:101D00008E2D0E944D0D219739F0F801608171816F
:101D100080E090E00E943F22209791F780913D0261
:101D2000823049F440913E0650913F0660E070E0F9
:101D30008F2D0E94920180913D02833019F48F2DE6
:101D40000E94E805DF91CF911F910F91FF90EF90D6
:101D500008958F929F92AF92BF92CF92DF92EF92AF
:101D6000FF920F931F93CF93DF93809140068823B8
:101D700009F05CC10E940B22695E73408040904074
:101D800008F454C18091D201882389F10E940B226A
:101D90002091D5013091D6014091D7015091D801C1
:101DA000261737074807590708F040C18091D2012C
:101DB0000E94560E0E940B227B018C016091D30180
:101DC0007091D40180E090E024E630E040E050E003
:101DD0000E943E28E60EF71E081F191FE092D5014B
:101DE000F092D6010093D7011093D8011FC1CEE124
:101DF000D4E02881322F3150343018F0EFEFFFEF6C
:101E000009C0E22FF0E0EE0FFF1FE953F94F0190F8
:101E1000F081E02D8B819C81E817F90708F401C15E
:101E2000343018F0EFEFFFEF09C0E22FF0E0EE0FD3
:101E3000FF1FE953F94F0190F081E02D89809A80CE
:101E40008E169F0608F4EDC045EC841649E0940612
:101E500008F0E7C0883C910508F4E3C088159905AF
:101E600008F0DFC0343018F06FEF7FEF08C0E22FCA
:101E7000F0E0EE0FFF1FE953F94F608171817C01A3
:101E800000E010E080E090E06E197F09800B910B7C
:101E9000AD80BE80CC24DD242F81388540E050E029
:101EA0002A193B094C095D090E943E28940140E033
:101EB00050E02E193F09400B510B0E9493287901E5
:101EC0008A01EA0CFB1C0C1D1D1D8C859D85AE85B1
:101ED000BF85E80EF91E0A1F1B1F0E940B22E61683
:101EE000F7060807190748F48B850E94560E0E94D2
:101EF0000B226C877D878E879F87609656E0CE3356
:101F0000D50709F076CFCEECD3E0E8818E2F815053
:101F1000843018F08FEF9FEF07C0F0E0EE0FFF1F47
:101F2000E953F94F8081918129813A812817390736
:101F300060F48B81813049F48885813031F4232B22
:101F400021F08F810E94560E1886E8818E2F8150D5
:101F5000843018F08FEF9FEF07C0F0E0EE0FFF1F07
:101F6000E953F94F8081918129813A818217930742
:101F700060F48C81813049F48985813031F4232BE0
:101F800021F08F810E94560E1986E8818E2F815094
:101F9000843018F0EFEFFFEF08C0F0E0EE0FFF1F06
:101FA000E953F94F0190F081E02D29813A818D812B
:101FB0009E81A901481B590BE417F50748F49B8142
:101FC000913031F48885882319F4232B09F0988700
:101FD000E8818E2F8150843018F0EFEFFFEF08C0BA
:101FE000F0E0EE0FFF1FE953F94F0190F081E02D73
:101FF00029813A818D819E81820F931F8E179F07C1
:1020000048F49C81913031F48985882319F4232B7D
:1020100009F099872A9654E0CE31D50709F075CF9B
:1020200005C01C861D861E861F8667CFDF91CF9157
:102030001F910F91FF90EF90DF90CF90BF90AF90E6
:102040009F908F900895CF93DF9388E297E060E5AB
:1020500070E00E94761E88E297E060E00E94F81E21
:1020600088E297E060E00E94F81E88E297E00E9414
:102070003B1F88E297E060E570E042E050E00E949C
:102080004C1F88E297E00E94801E892B31F088E285
:1020900097E00E94891ED82FC0E088E297E00E9456
:1020A000801E892B31F088E297E00E94891EC80FBC
:1020B000D91F249721F00E94DB000E94720CDF914F
:1020C000CF9108950E9423100E941B0A0E94D809F4
:1020D0000E9495090E9446090E94F8080E9458082B
:1020E0000E946D070E94FD0608950F931F9381E0E3
:1020F00080934106109242061092440610924306C5
:1021000010925A061092590610928D0610928E0661
:1021100010928F0610929006E5E4F6E0119211926B
:1021200086E0E935F807D1F7EBE5F6E0119286E0B5
:10213000ED38F807D9F70CC00091590610915A06EE
:1021400083E398E00E94A125055A194FF801808386
:1021500083E398E00E947025181619066CF31F910E
:102160000F910895FF920F931F93CF93DF93809168
:10217000420690E0FC01E454F040E731F10510F034
:102180000C94DB1CEC5CFF4FEE0FFF1F0590F491ED
:10219000E02D099483E398E06DE071E00E94282827
:1021A00083E398E063E070E04AE050E00E94F627A5
:1021B00083E398E06BE071E00E94282883E398E0D5
:1021C00061E070E04AE050E00E94F62783E398E087
:1021D0006BE071E00E94282883E398E062E070E001
:1021E0004AE050E00E94F62783E398E06BE071E05C
:1021F0000E94282883E398E06DED77E04AE050E004
:102200000E94F62783E398E06BE071E00E942828A3
:1022100083E398E066E070E04AE050E00E94F62731
:1022200083E398E06BE071E00E94282883E398E064
:102230006CE170E04AE050E00E94F62783E398E00A
:102240006BE071E00E94282883E398E06FE070E083
:102250004AE050E00E94F62783E398E06BE071E0EB
:102260000E94282883E398E067E270E04AE050E0AB
:102270000E94F62783E398E06BE071E00E94282833
:1022800083E398E064E070E04AE050E00E940928AF
:1022900083E398E060E171E00E94282883E398E0FE
:1022A00062E270E04AE050E00E94F62783E398E0A3
:1022B0006BE071E00E94282883E398E068E070E01A
:1022C0004AE050E00E94F62783E398E06BE071E07B
:1022D0000E94282883E398E062E370E04AE050E03F
:1022E0000E94F62783E398E06BE071E00E942828C3
:1022F00083E398E068E070E04AE050E00E94F6274F
:1023000083E398E06BE071E00E94282883E398E083
:102310006AE570E04AE050E00E94092883E398E013
:1023200063E171E00E94282883E398E060913D0218
:102330004AE050E00E94982783E398E066E171E06C
:102340000E94282860913F027091400283E398E048
:102350004AE050E00E94692783E398E069E171E078
:102360000E94282860913E0670913F0683E398E022
:102370004AE050E00E94692709ED11E0C1E0D0E099
:1023800083E398E06CE171E00E94282883E398E001
:10239000BE014AE050E00E94F62783E398E06BE03C
:1023A00071E00E94282883E398E0F80160814AE008
:1023B00050E00E94862783E398E06BE071E00E9482
:1023C000282883E398E0F80161814AE050E00E9408
:1023D000982721960E5F1F4FC333D10589F6CEE1B2
:1023E000D4E001E010E083E398E06FE171E00E9447
:1023F000282883E398E0B8014AE050E00E94F627DD
:1024000083E398E06BE071E00E94282883E398E082
:1024100068814AE050E00E94862783E398E06BE001
:1024200071E00E94282869817A8183E398E04AE07C
:1024300050E00E94582783E398E06BE071E00E942F
:1024400028286B817C8183E398E04AE050E00E9479
:10245000582783E398E06BE071E00E9428286D81A3
:102460007E8183E398E04AE050E00E94582783E3AE
:1024700098E06BE071E00E9428286F81788583E303
:1024800098E04AE050E00E94582783E398E06BE030
:1024900071E00E94282869857A8583E398E04AE004
:1024A00050E00E94582783E398E06BE071E00E94BF
:1024B000282883E398E06B854AE050E00E94982743
:1024C0000F5F1F4F60960332110509F08CCFCEECE1
:1024D000D3E001E010E083E398E062E271E00E9463
:1024E000282883E398E0B8014AE050E00E94F627EC
:1024F00083E398E06BE071E00E94282883E398E092
:1025000068814AE050E00E94862783E398E06BE010
:1025100071E00E94282869817A8183E398E04AE08B
:1025200050E00E94582783E398E06BE071E00E943E
:10253000282883E398E06B814AE050E00E948627D8
:1025400083E398E06BE071E00E94282883E398E041
:102550006C814AE050E00E94862783E398E06BE0BC
:1025600071E00E9428286D817E8183E398E04AE033
:1025700050E00E94582783E398E06BE071E00E94EE
:10258000282883E398E06F814AE050E00E94982772
:102590000F5F1F4F2A960930110509F09CCF0FEAF3
:1025A00013E0C1E0D0E083E398E065E271E00E94CF
:1025B000282883E398E0BE014AE050E00E94F62715
:1025C00083E398E06BE071E00E94282883E398E0C1
:1025D000F80160814AE050E00E94862783E398E09A
:1025E0006BE071E00E942828F8016181728183E329
:1025F00098E04AE050E00E94692721960C5F1F4F47
:10260000C930D10581F601E010E0802F81500E9491
:102610009A0CFF2442C083E398E068E271E00E94D4
:10262000282883E398E0B8014AE050E00E94F627AA
:1026300083E398E06BE071E00E942828BE016F5FA1
:102640007F4F83E398E04AE050E00E94F62783E35F
:1026500098E06BE071E00E942828CC0FDD1FCC0FC2
:10266000DD1FFE01EF5BFD4F6381748183E398E022
:102670004AE050E00E94582783E398E06BE071E065
:102680000E942828CD5BDD4F6B817C8183E398E03D
:102690004AE050E00E946927F394CF2DD0E080916A
:1026A000420290914302C817D90708F4B4CF0F5FD4
:1026B0001F4F0930110509F0A8CF83E398E06BE2C2
:1026C00071E00C94DF1C80914506909146060E94B3
:1026D000460A0C94E11C0E94C1060E94DB0083E3C1
:1026E00098E06FE271E00C94DF1C809143069091BA
:1026F000440683309105B9F5E0914506F091460610
:10270000309789F1E930F10508F0ABC02091470618
:10271000309148062115310509F4A3C02531310552
:1027200008F09FC08091490690914A06009709F4ED
:1027300098C04DEF893E940708F093C0E150F04CEB
:10274000EE0FFF1FEE0FFF1FDF01A255BC4F1196CA
:102750002C93E055FC4F9183808383E398E063E3FF
:1027600071E00C94DF1C8130910509F042C080912A
:10277000450690914606009709F473C0099708F042
:1027800070C083E398E065E271E00E9428286091C0
:1027900045067091460683E398E04AE050E00E94C7
:1027A000582783E398E06BE071E00E942828E091CD
:1027B0004506F0914606EE0FFF1FEE0FFF1FE65590
:1027C000FC4F83E398E061814AE050E00E94862755
:1027D00083E398E06BE071E00E942828E0914506D1
:1027E000F0914606EE0FFF1FEE0FFF1FE455FC4F62
:1027F00002C5892BB1F50FEA13E0C1E0D0E083E315
:1028000098E065E271E00E94282883E398E0BE0129
:102810004AE050E00E94F62783E398E06BE071E025
:102820000E94282883E398E0F80160814AE050E0A4
:102830000E94862783E398E06BE071E00E942828DD
:10284000F8016181728183E398E04AE050E00E94E0
:10285000692721960C5F1F4FC930D10581F60C9472
:10286000E11C83E398E067E371E00C94DF1C809146
:102870004306909144060197A1F5809145069091F9
:102880004606009731F08930910558F50E94560EA2
:1028900022C0E0914102F0E0EE0FFF1FEE0FFF1F9C
:1028A000E255FC4F8181C82FD0E013C00E941A026C
:1028B000219779F0E0914102F0E0EE0FFF1FEE0F5B
:1028C000FF1FE055FC4F6081718180E090E00E9425
:1028D0003F22209759F783E398E06BE371E00C9473
:1028E000DF1C83E398E06FE371E00C94DF1C8091C0
:1028F0004306909144068430910509F043C0E0916D
:102900004506F09146063097E9F1E930F10508F007
:1029100050C18091470690914806009709F449C13B
:102920008B35910508F045C1E150E0934102909349
:102930004302809342021092AD031092AC03F0E088
:10294000EE0FFF1FEE0FFF1FE255FC4F8083FC01CF
:10295000E150F04CEE0FFF1FEE0FFF1FDF01AF5BEA
:10296000BD4F8091490690914A0614969C938E9390
:102970001397ED5BFD4F80914B0690914C0694832D
:10298000838312C18130910509F0B1C08091450661
:1029900090914606009711F410E09EC08930910591
:1029A00008F007C181500E949A0C10E045C083E3F3
:1029B00098E068E271E00E942828609145067091D5
:1029C000460683E398E04AE050E00E94582783E3FC
:1029D00098E06BE071E00E942828BE016F5F7F4F96
:1029E00083E398E04AE050E00E94F62783E398E012
:1029F0006BE071E00E942828CC0FDD1FCC0FDD1F9B
:102A0000FE01EF5BFD4F6381748183E398E04AE050
:102A100050E00E94582783E398E06BE071E00E9449
:102A20002828CD5BDD4F6B817C8183E398E04AE011
:102A300050E00E9469271F5FC12FD0E080914202C1
:102A400090914302C817D90708F4B1CFADC083E312
:102A500098E068E271E00E94282860914506709134
:102A6000460683E398E04AE050E00E94582783E35B
:102A700098E06BE071E00E942828BE016F5F7F4FF5
:102A800083E398E04AE050E00E94F62783E398E071
:102A90006BE071E00E942828CC0FDD1FCC0FDD1FFA
:102AA000FE01EF5BFD4F6381748183E398E04AE0B0
:102AB00050E00E94582783E398E06BE071E00E94A9
:102AC0002828CD5BDD4F6B817C8183E398E04AE071
:102AD00050E00E9469271F5FC12FD0E08091420221
:102AE00090914302C817D90708F4B1CF5DC0892B74
:102AF00009F05FC001E010E0802F81500E949A0C25
:102B0000FF2442C083E398E068E271E00E94282835
:102B100083E398E0B8014AE050E00E94F62783E39F
:102B200098E06BE071E00E942828BE016F5F7F4F44
:102B300083E398E04AE050E00E94F62783E398E0C0
:102B40006BE071E00E942828CC0FDD1FCC0FDD1F49
:102B5000FE01EF5BFD4F6381748183E398E04AE0FF
:102B600050E00E94582783E398E06BE071E00E94F8
:102B70002828CD5BDD4F6B817C8183E398E04AE0C0
:102B800050E00E946927F394CF2DD0E0809142025B
:102B900090914302C817D90708F4B4CF0F5F1F4FB5
:102BA0000930110509F0A8CF83E398E063E471E0F0
:102BB00006C783E398E067E471E001C780914306AC
:102BC00090914406019769F48091450690914606DC
:102BD000009739F08930910520F481500E948104DA
:102BE000F0C683E398E060E071E0E9C680914306B7
:102BF000909144068130910599F480914506909119
:102C000046068E319105F8F089339105E0F49093F2
:102C1000400280933F0283E398E06BE471E0CFC60B
:102C2000892B89F483E398E066E171E00E9428280B
:102C300060913F027091400283E398E04AE050E0E7
:102C40000E946927BEC683E398E06FE471E0B7C6CF
:102C5000809143069091440683309105D1F4E09130
:102C60004506F0914606309709F48EC0E333F1052E
:102C700008F08AC0EE0FFF1FE952FE4F8091470611
:102C8000808380914906818383E398E063E571E066
:102C900096C68130910509F041C08091450690911A
:102CA0004606009709F470C0C39708F06DC083E32F
:102CB00098E06CE171E00E942828609145067091CF
:102CC000460683E398E04AE050E00E94582783E3F9
:102CD00098E06BE071E00E942828E0914506F091B1
:102CE0004606EE0FFF1FE952FE4F83E398E0608136
:102CF0004AE050E00E94862783E398E06BE071E0B1
:102D00000E942828E0914506F0914606EE0FFF1F2D
:102D1000E952FE4F83E398E061810CC4892BA1F551
:102D200009ED11E0C1E0D0E083E398E06CE171E0EF
:102D30000E94282883E398E0BE014AE050E00E9408
:102D4000F62783E398E06BE071E00E94282883E394
:102D500098E0F80160814AE050E00E94862783E312
:102D600098E06BE071E00E94282883E398E0F80186
:102D700061814AE050E00E94982721960E5F1F4F24
:102D8000C333D10589F61DC683E398E067E571E09A
:102D900016C68091430690914406009719F40E944C
:102DA000720C04C0019739F40E94621083E398E02A
:102DB0006BE571E004C683E398E06FE571E0FFC561
:102DC0008091430690914406019751F48091450605
:102DD00090914606019721F481E08093400602C05D
:102DE0001092400683E398E063E671E0E8C58091C5
:102DF0004306909144068130910581F48091450607
:102E0000909146060097B9F084309105A0F4809324
:102E10003D0283E398E067E671E0D1C5892B59F460
:102E200083E398E063E171E00E94282883E398E05F
:102E300060913D027FC383E398E06BE671E0BFC51C
:102E400080914306909144068130910599F48091D8
:102E50004506909146060097D1F0FDEF893E9F0709
:102E6000B0F490933F0680933E0683E398E06FE6CC
:102E700071E0A5C5892B59F483E398E069E171E01D
:102E80000E94282860913E0670913F06D5CE83E3CC
:102E900098E063E771E093C5809143069091440602
:102EA00088309105D9F5E0914506F09146063097B6
:102EB00009F478C1E332F10508F074C174E0EE0F53
:102EC000FF1F7A95E1F7E25FFB4F80914706808311
:102ED0008091490690914A069283818380914B06A6
:102EE00090914C069483838380914D0690914E0679
:102EF0009683858380914F069091500690878783B3
:102F00008091510690915206928781878091530655
:102F1000838783E398E067E771E051C581309105CD
:102F200009F0C4C08091450690914606009709F4C7
:102F300039C1839708F036C183E398E06FE171E00F
:102F40000E942828609145067091460683E398E028
:102F50004AE050E00E94582783E398E06BE071E07C
:102F60000E942828E0914506F091460664E0EE0FA5
:102F7000FF1F6A95E1F7E25FFB4F83E398E0608112
:102F80004AE050E00E94862783E398E06BE071E01E
:102F90000E942828E0914506F091460654E0EE0F85
:102FA000FF1F5A95E1F7E25FFB4F6181728183E376
:102FB00098E04AE050E00E94582783E398E06BE0F5
:102FC00071E00E942828E0914506F091460644E011
:102FD000EE0FFF1F4A95E1F7E25FFB4F63817481BB
:102FE00083E398E04AE050E00E94582783E398E0AA
:102FF0006BE071E00E942828E0914506F0914606BA
:1030000034E0EE0FFF1F3A95E1F7E25FFB4F658179
:10301000768183E398E04AE050E00E94582783E3FA
:1030200098E06BE071E00E942828E0914506F0915D
:10303000460624E0EE0FFF1F2A95E1F7E25FFB4F03
:103040006781708583E398E04AE050E00E9458274A
:1030500083E398E06BE071E00E942828E091450648
:10306000F091460694E0EE0FFF1F9A95E1F7E25FBC
:10307000FB4F6185728583E398E04AE050E00E944F
:10308000582783E398E06BE071E00E942828E091E4
:103090004506F091460684E0EE0FFF1F8A95E1F7A2
:1030A000E25FFB4F83E398E0638544C2892B09F01C
:1030B00079C0CEE1D4E001E010E083E398E06FE175
:1030C00071E00E94282883E398E0B8014AE050E0CC
:1030D0000E94F62783E398E06BE071E00E942828C5
:1030E00083E398E068814AE050E00E94862783E30A
:1030F00098E06BE071E00E94282869817A8183E37F
:1031000098E04AE050E00E94582783E398E06BE0A3
:1031100071E00E9428286B817C8183E398E04AE07B
:1031200050E00E94582783E398E06BE071E00E9432
:1031300028286D817E8183E398E04AE050E00E9478
:10314000582783E398E06BE071E00E9428286F81A4
:10315000788583E398E04AE050E00E94582783E3B3
:1031600098E06BE071E00E94282869857A8583E306
:1031700098E04AE050E00E94582783E398E06BE033
:1031800071E00E94282883E398E06B854AE050E0D4
:103190000E9498270F5F1F4F60960332110509F0B8
:1031A0008CCF0FC483E398E06BE771E008C4809193
:1031B0004306909144068130910501F580914506C2
:1031C00090914606009709F440C00597F0F583E317
:1031D00098E06FE771E00E942828E09145068E2F65
:1031E0008150843018F06FEF7FEF26CDF0E0EE0FC6
:1031F000FF1FE953F94F608171811ECD892B29F59D
:1032000083E398E062E871E00E942828C9ECD6E0E8
:1032100010E083E398E06BE071E00E94282814300E
:1032200018F06FEF7FEF02C06881798183E398E047
:103230004AE050E00E9458271F5F2296143049F759
:1032400083E398E00E94A926BCC383E398E064E886
:1032500071E0B5C380914306909144068730910593
:1032600009F09EC060914506709146066115710592
:1032700009F4D1C16930710508F0CDC1FB01EE0F31
:10328000FF1FCB01B3E0880F991FBA95E1F7E80F54
:10329000F91FEC53FC4F809147068083309145061F
:1032A00040914606832F942FFC01A3E0EE0FFF1FF1
:1032B000AA95E1F7880F991FE80FF91FEB53FC4F10
:1032C0008091490690914A0691838083832F942FA1
:1032D000FC0123E0EE0FFF1F2A95E1F7880F991FED
:1032E000E80FF91FE953FC4F80914B068083832F31
:1032F000942FFC0113E0EE0FFF1F1A95E1F7880FE2
:10330000991FE80FF91FE853FC4F80914D06808309
:10331000832F942FFC01A3E0EE0FFF1FAA95E1F786
:10332000880F991FE80FF91FE753FC4F80914F0654
:103330009091500691838083832F942FFC0123E08A
:10334000EE0FFF1F2A95E1F7880F991FE80FF91F6D
:10335000E553FC4F8091510680838BEF9FEF689F70
:10336000F001699FF00D789FF00D11243196EE0F5A
:10337000FF1FF095E195FF4FE253FC4F21E02083C2
:10338000832F942FFC01B3E0EE0FFF1FBA95E1F7F6
:10339000880F991FE80FF91FE353FC4F208306C3E2
:1033A0008130910509F0CBC0809145069091460689
:1033B000009709F430C1099708F02DC183E398E024
:1033C00062E271E00E9428286091450670914606ED
:1033D00083E398E04AE050E00E94582783E398E0B6
:1033E0006BE071E00E942828809145069091460686
:1033F000FC0173E0EE0FFF1F7A95E1F7880F991F2C
:10340000E80FF91FEC53FC4F83E398E060814AE03A
:1034100050E00E94862783E398E06BE071E00E9411
:1034200028288091450690914606FC0153E0EE0F56
:10343000FF1F5A95E1F7880F991FE80FF91FEB530B
:10344000FC4F6081718183E398E04AE050E00E9484
:10345000582783E398E06BE071E00E942828809170
:10346000450690914606FC0133E0EE0FFF1F3A95AA
:10347000E1F7880F991FE80FF91FE953FC4F83E329
:1034800098E060814AE050E00E94862783E398E05C
:103490006BE071E00E9428288091450690914606D5
:1034A000FC0103E0EE0FFF1F0A95E1F7880F991F5B
:1034B000E80FF91FE853FC4F83E398E060814AE08E
:1034C00050E00E94862783E398E06BE071E00E9461
:1034D00028288091450690914606FC01B3E0EE0F46
:1034E000FF1FBA95E1F7880F991FE80FF91FE753FF
:1034F000FC4F6081718183E398E04AE050E00E94D4
:10350000582783E398E06BE071E00E9428288091BF
:10351000450690914606FC0173E0EE0FFF1F7A9579
:10352000E1F7880F991FE80FF91FE553FC4F83E37C
:1035300098E060814AE050E00E94982742C2892BBF
:1035400009F069C0CEECD3E001E010E083E398E03D
:1035500062E271E00E94282883E398E0B8014AE023
:1035600050E00E94F62783E398E06BE071E00E9450
:10357000282883E398E068814AE050E00E9486278B
:1035800083E398E06BE071E00E94282869817A81EA
:1035900083E398E04AE050E00E94582783E398E0F4
:1035A0006BE071E00E94282883E398E06B814AE099
:1035B00050E00E94862783E398E06BE071E00E9470
:1035C000282883E398E06C814AE050E00E94862737
:1035D00083E398E06BE071E00E9428286D817E8192
:1035E00083E398E04AE050E00E94582783E398E0A4
:1035F0006BE071E00E94282883E398E06F814AE045
:1036000050E00E9498270F5F1F4F2A96093011053E
:1036100009F09CCFD6C183E398E06CE871E0CFC19C
:10362000809143069091440682309105E9F42091FF
:103630004506309146062F3F310509F050F580913F
:10364000470690914806009721F12093D20190936C
:10365000D4018093D3011092D5011092D60110921B
:10366000D7011092D80110C0019799F480914506B6
:1036700090914606892B69F41092D20188E893E173
:103680009093D4018093D30183E398E060E971E0E3
:1036900096C183E398E064E971E091C183E398E027
:1036A0006DE071E00E94282883E398E063E070E019
:1036B0004AE050E00E94F62783E398E06BE071E077
:1036C0000E94282883E398E061E070E04AE050E03F
:1036D0000E94F62783E398E06BE071E00E942828BF
:1036E00083E398E062E070E04AE050E00E94F62751
:1036F00083E398E06BE071E00E94282883E398E080
:103700006DED77E04AE050E00E94F62783E398E011
:103710006BE071E00E94282883E398E066E070E0A7
:103720004AE050E00E94F62783E398E06BE071E006
:103730000E94282883E398E06CE170E04AE050E0C2
:103740000E94F62783E398E06BE071E00E9428284E
:1037500083E398E06FE070E04AE050E00E94F627D3
:1037600083E398E06BE071E00E94282883E398E00F
:1037700067E270E04AE050E00E94F62783E398E0B9
:103780006BE071E00E94282883E398E064E070E039
:10379000CBC083E398E060E171E00E94282883E3D6
:1037A00098E062E270E04AE050E00E94F62783E38E
:1037B00098E06BE071E00E94282883E398E068E0DD
:1037C00070E04AE050E00E94F62783E398E06BE067
:1037D00071E00E94282883E398E062E370E04AE009
:1037E00050E00E94F62783E398E06BE071E00E94CE
:1037F000282883E398E068E070E04AE050E00E9407
:10380000F62783E398E06BE071E00E94282883E3C9
:1038100098E06AE570E088C083E398E068E071E0D2
:103820000E94282883E398E060E070E04AE050E0DE
:103830000E94F62783E398E06BE071E00E9428285D
:1038400083E398E062E070E04AE050E00E94F627EF
:1038500083E398E06BE071E00E94282883E398E01E
:1038600064E070E04AE050E00E94F62783E398E0CD
:103870006BE071E00E94282883E398E066E070E046
:103880004AE050E00E94F62783E398E06BE071E0A5
:103890000E94282883E398E068E070E04AE050E066
:1038A0000E94F62783E398E06BE071E00E942828ED
:1038B00083E398E06BE070E04AE050E00E94F62776
:1038C00083E398E06BE071E00E94282883E398E0AE
:1038D0006FE670E04AE050E00E94F62783E398E04C
:1038E0006BE071E00E94282883E398E06FEA70E0C3
:1038F0004AE050E00E94F62783E398E06BE071E035
:103900000E94282883E398E067E472E04AE050E0F0
:103910000E94F62783E398E06BE071E00E9428287C
:1039200083E398E067E672E04AE050E00E940928ED
:1039300048C0CEEAD3E010E083E398E065E271E0AE
:103940000E94282883E398E0612F4AE050E00E941B
:10395000862783E398E06BE071E00E94282883E3E8
:1039600098E068814AE050E00E94862783E398E06F
:103970006BE071E00E94282883E398E069814AE0C7
:1039800050E00E94862783E398E06BE071E00E949C
:1039900028286A817B8183E398E04AE050E00E9416
:1039A00069271F5F2496183039F60BC083E398E02F
:1039B00068E871E004C083E398E068E971E00E9480
:1039C0002B28DF91CF911F910F91FF9008957F9247
:1039D0008F929F92AF92BF92CF92DF92EF92FF921F
:1039E0000F931F93CF93DF9383E398E00E9470259A
:1039F0008536910514F00E94751080918D06909186
:103A00008E06A0918F06B0919006815A9648A140EB
:103A1000B04040F08091590690915A06892B11F0E0
:103A20000E94751080918D0690918E06A0918F0650
:103A3000B09190060196A11DB11D80938D069093C3
:103A40008E06A0938F06B093900632E0732E24E684
:103A5000922E9AE0892E80E1A82E87E2B82E08EEF9
:103A6000C02E03E0D02EEAC00091590610915A06EC
:103A700083E398E00E94A125055A194FF80180833D
:103A8000C0915906D0915A062196D0935A06C093F8
:103A90005906219710928D0610928E0610928F066D
:103AA0001092900680914106813021F0823009F019
:103AB000C3C027C0C55AD94FE881EB3331F0ED3090
:103AC00021F0EA3011F0EE33A1F480915B0680938F
:103AD000420670924106ED3021F0EA3011F0EE33EB
:103AE00021F40E94B2100E94751010925A06109292
:103AF00059068091590690915A06029708F09CC089
:103B00009DC0FE01E55AF94F00810B3311F00D30D5
:103B100099F46091430670914406AE01409550952A
:103B20004A5F5F4FEBE5F6E0EE24FF24DB01AA0FCE
:103B3000BB1FAB5BB94F62C00A3059F30E3309F0BB
:103B400075C0E7CF4230510581F14330510540F453
:103B50004115510569F04130510509F049C014C0C3
:103B60004330510561F14430510509F041C036C080
:103B7000808190E0C0979C012A9DC0012B9D900DF3
:103B80003A9D900D11240BC0808190E0C0979C015C
:103B90002C9DC0012D9D900D3C9D900D11242D91CB
:103BA0003C911197820F931F20C02D913C9111974A
:103BB000205C32418081899DC001112409C02D9172
:103BC0003C911197205E31408081889DC001112475
:103BD000280F391F11963C932E930AC020818D9196
:103BE0009C911197820F911DC09711969C938E9373
:103BF0000894E11CF11C4F5F5F4F3196EC16FD06F7
:103C000008F4A0CF6F5F7F4F709344066093430624
:103C10000D3021F00A3011F00E3321F40E94B21061
:103C20000E94751010925A061092590680915906FA
:103C300090915A06069710F00E94751083E398E061
:103C40000E947025181619060CF40ECFDF91CF9143
:103C50001F910F91FF90EF90DF90CF90BF90AF90AA
:103C60009F908F907F9008950F931F9303E318E028
:103C7000C80140E855E260E070E00E94E924C80114
:103C80006AE971E00E942B280E9475101F910F9124
:103C900008950E94341E0E9456010E94ED010E9468
:103CA00097030E9451010E94FE010E948A010E9416
:103CB0009703089590913D0280913E02981731F04C
:103CC0000E94491E80913D0280933E020E94E71CA3
:103CD0000E94A90E0E94FE0508950E94AB060E9454
:103CE000DB000E9462100E94491E089581E08093CB
:103CF000270760930407109225071092260708955E
:103D00002091030730E080910207281B3109C90187
:103D100008954091020780910307481718F02FEF8C
:103D20003FEF0AC0E42FF0E0EE51F94F8081282FD9
:103D300030E04F5F40930207C9010895E091020708
:103D400080910307E81718F0EFEFFFEF06C0F0E0EF
:103D5000EE51F94F8081E82FF0E0CF0108950895EA
:103D600010922B0710922A0788EE93E0A0E0B0E0B3
:103D700080932C0790932D07A0932E07B0932F07C5
:103D800086EB91E090932907809328070895CF92BE
:103D9000DF92EF92FF920F931F93CF93DF937C01FB
:103DA0006B018A01809127078823A1F0C0E0D0E051
:103DB0000DC0D701ED91FC91D601AC0FBD1F019054
:103DC000F081E02DC7016C9109952196C017D107AC
:103DD00080F304C0CB01642F0E94F91FC801DF915A
:103DE000CF911F910F91FF90EF90DF90CF900895AA
:103DF000DF93CF930F92CDB7DEB7FC01698380913B
:103E000027078823C9F080912607803238F081E0A7
:103E100090E09383828320E030E015C080912507F5
:103E2000E82FF0E0EB5FF84F998190838F5F8093EC
:103E300025078093260705C0CE01019661E00E9408
:103E4000F91F21E030E0C9010F90CF91DF91089573
:103E50000F93062F8091040765E077E040912607D5
:103E600021E00E94A41F10922507109226071092AD
:103E700027070F91089561E00E94281F089541329D
:103E800008F040E2862F62EE76E00E945B1F1092FF
:103E9000020780930307089521E00E943F1F0895C1
:103EA000109202071092030710922507109226071E
:103EB0000E94A5210895382F413210F040E042C001
:103EC000809134078823E1F791E0909334072093A1
:103ED00036078FEF8093A10710925C074150409303
:103EE0005D074F5F9093350780913507330F832B24
:103EF0008093350780913707813041F4109237075E
:103F0000809135078093BB0085EC01C085EE8093DE
:103F1000BC00809134078130E1F380915C07841705
:103F200010F440915C0720E030E00AC0FB01E20F92
:103F3000F31FD901A45CB84F8C9180832F5F3F4F52
:103F40002417A0F3842F08950F931F93582F122F37
:103F5000413210F081E04AC0809134078823E1F7B4
:103F600082E080933407009336078FEF8093A10798
:103F700010925C0740935D07ACE3B7E0FB0102C021
:103F800081918D938E2F861B8417D0F31092350765
:103F900080913507550F852B809335078091370722
:103FA000813041F410923707809135078093BB0030
:103FB00085EC01C085EE8093BC00112321F0809137
:103FC00034078230E1F38091A1078F3F11F480E044
:103FD0000DC08091A107803211F482E007C080916A
:103FE000A107803311F084E001C083E01F910F919D
:103FF0000895482F613210F081E0089580913407D0
:10400000843011F082E0089560937F07AEE5B7E059
:10401000842F9C01F90102C081918D938E2F841B06
:104020008617D0F380E008951F920F920FB60F927B
:1040300011242F933F934F935F936F937F938F93AD
:104040009F93AF93BF93EF93FF938091B90090E05C
:10405000887F90708036910509F4F2C08136910511
:10406000CCF58832910509F47BC089329105B4F40E
:104070008031910509F46FC0813191053CF40097BE
:1040800009F447C1089709F04FC165C0883191050F
:1040900009F466C0809709F047C182C08034910559
:1040A00009F4A4C08134910544F48033910509F4E6
:1040B00082C0C89709F038C189C08035910509F4DC
:1040C00089C08835910509F496C08834910509F0B6
:1040D0002BC1AEC08839910509F413C18939910506
:1040E000ECF48837910509F4ABC0893791054CF49D
:1040F0008836910509F4A4C08037910509F014C1F0
:104100009FC08838910509F4FCC08039910509F4F5
:104110009DC08038910509F007C198C0803B91058A
:1041200009F4C6C0813B91054CF4803A910509F42D
:104130009FC0883A910509F0F7C0BAC0803C91054C
:1041400009F4E3C0883C910509F4DFC0883B910580
:1041500009F0EAC0C2C0809135078093BB00CFC090
:1041600090915C0780915D07981768F490915C07C7
:10417000E92FF0E0E45CF84F80818093BB009F5F03
:1041800090935C07BCC080913607882309F44BC02C
:1041900085ED8093BC008091BC0084FDFCCFC2C043
:1041A00080E28093A10785ED8093BC008091BC00E4
:1041B00084FDFCCFB7C080E38093A10785ED809399
:1041C000BC008091BC0084FDFCCFACC088E3809330
:1041D000A1079BC080915C079091BB00E82FF0E0A5
:1041E000E45CF84F90838F5F80935C0790915C074D
:1041F00080915D0782C080915C079091BB00E82FA1
:10420000F0E0E45CF84F90838F5F80935C078091CF
:104210003607882341F085ED8093BC008091BC0077
:1042200084FDFCCF7FC081E08093370784EA6EC0B5
:1042300085ED8093BC008091BC0084FDFCCF72C0F2
:1042400083E0809334071092A00759C08091A007A3
:10425000803208F056C08091A0079091BB00E82FF3
:10426000F0E0E058F84F90838F5F8093A00747C03D
:104270008091A007803230F4E091A007F0E0E05890
:10428000F84F108285ED8093BC008091BC0084FDC6
:10429000FCCF109234076091A007E0913A07F091AB
:1042A0003B0780E897E070E009951092A0072DC0C9
:1042B00084E08093340710927E0710927F07E0918C
:1042C0003807F0913907099580917F07882329F4F1
:1042D00081E080937F0710925E0790917E07E92F1F
:1042E000F0E0E25AF84F80818093BB009F5F90938B
:1042F0007E0790917E0780917F07981710F485ECD8
:1043000001C085E88093BC000FC085EC8093BC00A1
:1043100009C01092A10785ED8093BC008091BC007C
:1043200084FDFCCF10923407FF91EF91BF91AF91C4
:104330009F918F917F916F915F914F913F912F91BD
:104340000F900FBE0F901F9018951092340781E0C8
:10435000809336071092370782E161E00E941C23A8
:1043600083E161E00E941C23E9EBF0E080818E7F15
:10437000808380818D7F808388E48093B80085E48A
:104380008093BC0008951F920F920FB60F921124D4
:104390002F933F938F939F93AF93BF938091A607E3
:1043A0009091A707A091A807B091A9073091AA07FB
:1043B0000196A11DB11D232F2D5F2D3720F02D5704
:1043C0000196A11DB11D2093AA078093A607909383
:1043D000A707A093A807B093A9078091A20790917F
:1043E000A307A091A407B091A5070196A11DB11D37
:1043F0008093A2079093A307A093A407B093A50767
:10440000BF91AF919F918F913F912F910F900FBED0
:104410000F901F9018958FB7F8942091A6073091B0
:10442000A7074091A8075091A9078FBFB901CA01FA
:1044300008959FB7F8942091A2073091A307409167
:10444000A4075091A50786B5A89B06C08F3F21F011
:104450002F5F3F4F4F4F5F4F9FBF542F432F322F40
:104460002227280F311D411D511D82E0220F331FCD
:10447000441F551F8A95D1F7B901CA0108959B01C0
:10448000AC017FB7F8948091A2079091A307A09107
:10449000A407B091A50766B5A89B05C06F3F19F0AA
:1044A0000196A11DB11D7FBFBA2FA92F982F882774
:1044B000860F911DA11DB11D62E0880F991FAA1FD3
:1044C000BB1F6A95D1F7BC012DC0FFB7F89480914E
:1044D000A2079091A307A091A407B091A507E6B504
:1044E000A89B05C0EF3F19F00196A11DB11DFFBFAC
:1044F000BA2FA92F982F88278E0F911DA11DB11DAE
:10450000E2E0880F991FAA1FBB1FEA95D1F7861B0F
:10451000970B885E9340C8F2215030404040504095
:1045200068517C4F211531054105510571F60895FB
:10453000019739F0880F991F880F991F02970197EB
:10454000F1F70895789484B5826084BD84B5816064
:1045500084BD85B5826085BD85B5816085BDEEE68B
:10456000F0E0808181608083E1E8F0E0108280816A
:1045700082608083808181608083E0E8F0E08081D8
:1045800081608083E1EBF0E0808184608083E0EBF8
:10459000F0E0808181608083EAE7F0E080818460E0
:1045A000808380818260808380818160808380813C
:1045B000806880831092C1000895CF93DF93482FC5
:1045C00050E0CA0188539F4FFC0134914C545F4F17
:1045D000FA018491882369F190E0880F991FFC010A
:1045E000EA56FF4FA591B491FC01E056FF4FC591EB
:1045F000D491662351F42FB7F8948C91932F909512
:1046000089238C93888189230BC0623061F42FB792
:10461000F8948C91932F909589238C938881832B88
:1046200088832FBF06C09FB7F8948C91832B8C93FF
:104630009FBFDF91CF910895482F50E0CA01845267
:104640009F4FFC012491CA0188539F4FFC01949114
:104650004C545F4FFA013491332309F440C02223B4
:1046600051F1233071F0243028F42130A1F02230B0
:1046700011F514C02630B1F02730C1F02430D9F440
:1046800004C0809180008F7703C0809180008F7D6F
:104690008093800010C084B58F7702C084B58F7D71
:1046A00084BD09C08091B0008F7703C08091B000B5
:1046B0008F7D8093B000E32FF0E0EE0FFF1FE056F8
:1046C000FF4FA591B4912FB7F894662321F48C91F4
:1046D0009095892302C08C91892B8C932FBF0895CC
:1046E000682F70E0CB0184529F4FFC012491CB01D5
:1046F00088539F4FFC0144916C547F4FFB01949170
:10470000992319F420E030E03CC0222351F12330FA
:1047100071F0243028F42130A1F0223011F514C0BA
:104720002630B1F02730C1F02430D9F404C0809194
:1047300080008F7703C0809180008F7D8093800000
:1047400010C084B58F7702C084B58F7D84BD09C049
:104750008091B0008F7703C08091B0008F7D8093EF
:10476000B000892F90E0880F991F86559F4FFC015C
:10477000A591B4918C9120E030E0842311F021E0E8
:1047800030E0C90108958F929F92AF92BF92CF926D
:10479000DF92EF92FF920F931F93CF93DF93A82F97
:1047A000B0E0CD0188539F4FFC018490AC54BF4FC3
:1047B000FD018491662311F4992401C0982C6FEFB8
:1047C000A62E6FEFB62E6FEFC62E6FE0D62EA2226A
:1047D000B322C422D522682F70E0660F771F66557A
:1047E0007F4FEE24FF248701FB01A591B4910BC0FC
:1047F000EA14FB040C051D0509F44EC00894E11CE5
:10480000F11C011D111D8C918821891589F30CC0A3
:10481000EA14FB040C051D0509F43EC00894E11CD4
:10482000F11C011D111D03C0FB01A591B4918C91D8
:104830008821891569F720E030E040E050E0FB0175
:10484000C591D4910FC0DA01C9018E0D9F1DA01F23
:10485000B11F8A159B05AC05BD05F1F02F5F3F4FD9
:104860004F4F5F4F88818821891569F3CA01B901CB
:1048700025E130E040E050E00E943E289B01AC0181
:10488000205F3F4F4F4F5F4F84E0569547953795D8
:1048900027958A95D1F704C020E030E040E050E051
:1048A000B901CA01DF91CF911F910F91FF90EF9055
:1048B000DF90CF90BF90AF909F908F900895089514
:1048C0001F920F920FB60F9211242F933F934F9385
:1048D0008F939F93EF93FF938091C00082FD1DC043
:1048E0004091C6002091EB073091EC072F5F3F4FBE
:1048F0002F7330708091ED079091EE0728173907DC
:1049000071F0E091EB07F091EC07E555F84F40832B
:104910003093EC072093EB0702C08091C600FF9113
:10492000EF919F918F914F913F912F910F900FBEDB
:104930000F901F901895E0913F08F0914008E05CBF
:10494000FF4F8191919120813181821B930B8F7355
:104950009070892B11F00E945F2408951F920F928E
:104960000FB60F9211242F933F938F939F93EF9342
:10497000FF9320912F083091300880913108909159
:1049800032082817390731F48091C1008F7D809358
:10499000C10014C0E0913108F0913208E151F84FA4
:1049A0002081809131089091320801968F73907028
:1049B00090933208809331082093C600FF91EF91C5
:1049C0009F918F913F912F910F900FBE0F901F904D
:1049D0001895AF92BF92DF92EF92FF920F931F93C1
:1049E000CF93DF93EC017A018B01DD24403081EE1F
:1049F000580780E0680780E0780711F0DD24D39441
:104A000091E0A92EB12CEC89FD89DD2069F0C5016A
:104A100008A002C0880F991F0A94E2F7808360E023
:104A200079E08DE390E005C0108260E874E88EE1E3
:104A300090E0A80197010E94712821503040404029
:104A40005040569547953795279580E12030380797
:104A500020F0DD2011F0DD24D6CFE889F9893083FC
:104A6000EA89FB89208319A2EE89FF89408121E030
:104A700030E0C9010C8C02C0880F991F0A94E2F73C
:104A8000482B4083EE89FF894081C9010D8C02C00B
:104A9000880F991F0A94E2F7482B4083EE89FF891B
:104AA0004081C9010E8C02C0880F991F0A94E2F759
:104AB000482B4083EE89FF8980810F8C02C0220F32
:104AC000331F0A94E2F7209528232083DF91CF91AA
:104AD0001F910F91FF90EF90DF90BF90AF900895DE
:104AE000DC011C96ED91FC911D97E05CFF4F21913C
:104AF000319180819181281B390B2F733070C9014E
:104B00000895DC011C96ED91FC911D97E05CFF4F30
:104B100020813181E054F040DF01AE5BBF4F8D91C9
:104B20009C9111972817390719F42FEF3FEF07C011
:104B30008D919C91E80FF91F8081282F30E0C901E9
:104B40000895DC011C96ED91FC911D97E05CFF4FF0
:104B500020813181E054F040DF01AE5BBF4F8D9189
:104B60009C9111972817390719F42FEF3FEF10C0C8
:104B70008D919C911197E80FF91F20818D919C9147
:104B8000119701968F73907011969C938E9330E0DD
:104B9000C9010895DC0191968C919197882339F091
:104BA0005496ED91FC915597808186FFF9CF9196AF
:104BB0001C920895CF93DF93EC01EE85FF85E05CB6
:104BC000FF4F20813181E054F0402F5F3F4F2F7322
:104BD0003070DF01AE5BBF4F8D919C91119728170C
:104BE0003907D1F3E05CFF4F80819181E054F040C0
:104BF000E80FF91F6083EE85FF85E05CFF4F31838E
:104C00002083EE89FF89208181E090E00F8C02C033
:104C1000880F991F0A94E2F7282B208381E089A34B
:104C2000EC89FD8980818064808381E090E0DF9160
:104C3000CF910895109236081092350888EE93E0CF
:104C4000A0E0B0E08093370890933808A09339082B
:104C5000B0933A0886EC91E090933408809333083F
:104C60008BEA97E09093400880933F088FEE97E09F
:104C7000909342088093410885EC90E0909344081B
:104C80008093430884EC90E0909346088093450815
:104C900080EC90E0909348088093470881EC90E086
:104CA00090934A088093490882EC90E090934C08D6
:104CB00080934B0886EC90E090934E0880934D08CB
:104CC00084E080934F0883E08093500887E08093CE
:104CD000510885E08093520881E08093530808953D
:104CE000CF93DF930E94A2220E946D1ECBE9D4E2F3
:104CF0000E945A1E2097E1F30E949B24F9CFCF9285
:104D0000DF92EF92FF920F931F93CF93DF937C017B
:104D10006B018A01C0E0D0E00FC0D6016D916D013A
:104D2000D701ED91FC910190F081E02DC70109952B
:104D3000C80FD91F015010400115110571F7CE01A0
:104D4000DF91CF911F910F91FF90EF90DF90CF9067
:104D50000895EF92FF920F931F938C01DC01ED9168
:104D6000FC910190F081E02D6DE009957C01D80166
:104D7000ED91FC910190F081E02DC8016AE0099568
:104D80009C012E0D3F1DC9011F910F91FF90EF90C7
:104D90000895CF93DF93EC016115710519F420E0BC
:104DA00030E00FC0DB010D900020E9F71197A61B42
:104DB000B70BE881F9810280F381E02DAD010995FF
:104DC0009C01C901DF91CF9108954F925F927F922C
:104DD0008F929F92AF92BF92CF92DF92EF92FF920B
:104DE0000F931F93DF93CF93CDB7DEB7A1970FB685
:104DF000F894DEBF0FBECDBF2C01742ECB01223044
:104E000008F42AE019A231E2C32ED12CCC0EDD1E0B
:104E1000822E9924AA24BB24672D752FA501940105
:104E20000E94712879018A01C801B701A501940186
:104E30000E943E28472D461B0894C108D1084A30DD
:104E400014F4405D01C0495CF6014083E114F104B3
:104E50000105110521F07E2C5F2DC801DDCFC201B7
:104E6000B6010E94C926A1960FB6F894DEBF0FBE08
:104E7000CDBFCF91DF911F910F91FF90EF90DF9009
:104E8000CF90BF90AF909F908F907F905F904F900A
:104E90000895DC012115310541F4ED91FC9101905B
:104EA000F081E02D642F099508950E94E52608956C
:104EB000EF92FF920F931F939A017B0100E010E0A5
:104EC000B801A7010E9449271F910F91FF90EF9011
:104ED0000895CF92DF92EF92FF920F931F936C0190
:104EE0007B019A0100E010E0B801A7010E94492768
:104EF0008C01C6010E94A926080F191FC8011F9125
:104F00000F91FF90EF90DF90CF900895EF92FF9276
:104F10000F931F939A01E62EFF2400E010E0B801E2
:104F2000A7010E9449271F910F91FF90EF900895CC
:104F3000CF92DF92EF92FF920F931F936C01E62EB8
:104F40009A01FF2400E010E0B801A7010E94492760
:104F50008C01C6010E94A926080F191FC8011F91C4
:104F60000F91FF90EF90DF90CF900895CF92DF9256
:104F7000EF92FF920F931F93CF93DF93EC016A019F
:104F80007B012115310541F4E881F9810190F0811F
:104F9000E02D642F09951FC02A303105D1F477FF29
:104FA00017C0E881F9810190F081E02D6DE209954B
:104FB0008C0144275527BA014C195D096E097F09F8
:104FC000CE012AE00E94E5269801280F391F04C06F
:104FD0002AE00E94E5269C01C901DF91CF911F9133
:104FE0000F91FF90EF90DF90CF900895EF92FF9296
:104FF0000F931F937B019A010027F7FC0095102F58
:10500000B801A7010E94B6271F910F91FF90EF9062
:105010000895CF92DF92EF92FF920F931F936C014E
:105020007B019A010027F7FC0095102FB801A7011A
:105030000E94B6278C01C6010E94A926080F191FDD
:10504000C8011F910F91FF90EF90DF90CF900895CE
:105050000E94C9260895EF92FF920F931F937C013F
:105060000E94C9268C01C7010E94A926080F191F9A
:10507000C8011F910F91FF90EF900895629FD0019A
:10508000739FF001829FE00DF11D649FE00DF11D03
:10509000929FF00D839FF00D749FF00D659FF00DB2
:1050A0009927729FB00DE11DF91F639FB00DE11D9F
:1050B000F91FBD01CF0111240895AA1BBB1B51E1AB
:1050C00007C0AA1FBB1FA617B70710F0A61BB70B78
:1050D000881F991F5A95A9F780959095BC01CD011D
:1050E0000895A1E21A2EAA1BBB1BFD010DC0AA1F29
:1050F000BB1FEE1FFF1FA217B307E407F50720F041
:10510000A21BB30BE40BF50B661F771F881F991FBB
:105110001A9469F760957095809590959B01AC0104
:10512000BD01CF01089597FB092E05260ED057FD2E
:1051300004D0D7DF0AD0001C38F450954095309544
:1051400021953F4F4F4F5F4F0895F6F7909580950B
:10515000709561957F4F8F4F9F4F0895EE0FFF1F02
:0C5160000590F491E02D0994F894FFCF25
:10516C004A3B30004A3B3100453B003B00563B007C
:10517C00573B004F3B004B3B00503B004C3B00521D
:10518C003B00543B00473B00493B00443B3100464D
:10519C003B3100473B3100473B3000483B31004836
:1051AC003B3000493B3100493B30004B3B31004B1D
:1051BC003B30004C3B31004C3B30004D3B31004D03
:1051CC003B30004E3B31004F3B31004F3B300050E9
:1051DC003B3100503B3000523B3100523B300053CE
:1051EC003B005300533B3000543B3100543B3000E8
:1051FC00553B3100553B3000550053747261746F50
:10520C00536E6170706572203220496E69742E0085
:10521C00680000000000F81EC71E801E891E9E1E1E
:10522C00AF1E00000000DA257F267025A125812500
:02523C00CA2581
:00000001FF
