:100000000C947A000C94A2000C94A2000C94480565
:100010000C94A2000C9486030C94A2000C948C0205
:100020000C94A2000C94A2000C94A2000C94A200C8
:100030000C94A2000C94A2000C94A2000C94A200B8
:100040000C94C11D0C94A2000C945E200C94AC2066
:100050000C94A2000C94A2000C94A2000C94A20098
:100060000C94121C0C94A2002D0EC110C910D310B8
:100070008D11A611BD12D9120B13AC13BF13DA13D5
:100080000314D9182F14D9152C16D91812188D1835
:10009000D918D918D41800000000240027002A001D
:1000A00000000000250028002B00000000002300B5
:1000B00026002900040404040404040402020202C9
:1000C000020203030303030301020408102040801B
:1000D000010204081020010204081020000000079B
:1000E0000002010000030406000000000000000000
:1000F000AE1A182211241FBECFEFD8E0DEBFCDBF4D
:1001000011E0A0E0B1E0E2E3F9E402C005900D9255
:10011000A83CB107D9F718E0A8ECB1E001C01D92E6
:10012000AE33B107E1F710E0C4EFD0E004C022978E
:10013000FE010E949324C03FD107C9F70E946E229E
:100140000C9497240C9400008091A006482F50E056
:10015000E9EAF6E020E030E061E0CA01022E02C0E8
:10016000959587950A94E2F780FD02C0108201C040
:1001700060832F5F3F4F31972830310571F78091B1
:10018000A106482F50E0E1EBF6E020E030E061E02E
:10019000CA01022E02C0959587950A94E2F780FD68
:1001A00002C0108201C060832F5F3F4F319728301B
:1001B000310571F7089582E080932C0280932D021F
:1001C00010922A06E8ECF1E010821182329632E0B9
:1001D000EC32F307C9F788EE93E0909329068093F9
:1001E000280686E290E090932F0280932E028FEFF4
:1001F0008093300210923202109231021092C303A7
:10020000E3E3F2E01182108213821282349683E0DB
:10021000E33CF807B9F7E4ECF3E021E082E390E097
:100220001082218393838283349633E0E43EF30784
:10023000B9F7E8E4F4E0108212821182148213828A
:1002400016821582108617821286118613863C96B6
:1002500086E0E832F80779F7E4EEF3E010821282E4
:1002600011821382148216821582178210861186DB
:100270003A9634E0E834F30789F708958AE061E0BC
:100280000E94DB1E089584E062E00E94DB1E85E090
:1002900062E00E94DB1E82E062E00E94DB1E83E0DF
:1002A00062E00E94DB1E1092B3061092B20610921A
:1002B000B5061092B4061092B7061092B6061092C8
:1002C000B9061092B806E8E6F0E080818460808389
:1002D000EDE6F0E0808184608083808188608083A7
:1002E000808180618083808180628083089589E03D
:1002F00060E00E94DB1E85E08093950608958EE005
:1003000061E00E94DB1E8FE061E00E94DB1E8EE058
:1003100060E00E941A1F8FE060E00E941A1F08959B
:100320008F929F92BF92CF92DF92EF92FF920F93A4
:100330001F93CF93DF938091B6008F7D8093B6009B
:100340008091B10081608093B1008091B1008D7F78
:100350008093B1008091B1008B7F8093B100809138
:10036000B0008E7F8093B0008091B0008260809357
:10037000B0008091B100877F8093B1008091B00080
:100380008F778093B0008091B0008F7B8093B00016
:100390008091B0008F7D8093B0008091B0008F7EFF
:1003A0008093B0008091B1008F778093B1008091ED
:1003B000B1008F7B8093B1001092B20060912E0249
:1003C00070912F0280E49FE10E945B2460939E065F
:1003D00070939F068091B3008E3808F499C0809185
:1003E000B3008F3F09F494C06093B3001092B4003F
:1003F000809170008D7F80937000809170008B7F62
:1004000080937000809170008E7F80937000809147
:1004100070008B7F80937000809170008E7F80933E
:10042000700017BA86E060E00E941A1F8091C30333
:10043000882309F046C081E08093C3038090310295
:100440009090320280919E0690919F066C01EE245E
:10045000FF24BB2431C0CC0FDD1FCC0FDD1F8E016C
:10046000005D1D4FF8016381748180E090E044E0FD
:10047000660F771F881F991F4A95D1F7A70196012C
:100480000E946F24F801348323838E010E5C1D4F7C
:10049000F8016381748180E090E024E0660F771FAB
:1004A000881F991F2A95D1F7A70196010E946F24F2
:1004B000F80134832383B394CB2DD0E0C815D9053C
:1004C00050F2109297061092960681E090E0909379
:1004D00099068093980690939B0680939A06809144
:1004E00033029091340290939D0680939C068091F4
:1004F0007000826080937000DF91CF911F910F9107
:10050000FF90EF90DF90CF90BF909F908F900895D5
:100510008EEF8093B3006ACF1F920F920FB60F92A7
:1005200011242F933F934F935F936F937F938F93F8
:100530009F93AF93BF93EF93FF93F89480919806A6
:10054000909199060197A1F586E060919A060E9424
:100550001A1F20E030E080919A0690919B06892B2B
:1005600011F421E030E030939B0620939A068091AD
:100570009C0690919D06019790939D0680939C0602
:10058000892B09F050C0109299061092980681E0CC
:1005900090E090939B0680939A06E0919606F091E6
:1005A0009706EE0FFF1FEE0FFF1FEE5CFD4F35C0ED
:1005B00086E060E00E941A1F80919C0690919D0643
:1005C000019790939D0680939C06892B61F5E0919D
:1005D0009606F09197063196F0939706E09396066B
:1005E0008091310290913202E817F90730F0809142
:1005F00070008D7F8093700016C081E090E0909332
:1006000099068093980690939B0680939A06EE0F26
:10061000FF1FEE0FFF1FE05DFD4F838194819093DC
:100620009D0680939C067894FF91EF91BF91AF91C6
:100630009F918F917F916F915F914F913F912F91FA
:100640000F900FBE0F901F90189586E061E00E94FA
:10065000DB1E86E060E00E941A1F0895EF92FF9271
:100660000F931F93982F7A018B018150833068F587
:10067000923071F09330A9F0913039F58EE061E05D
:100680000E941A1FC801B7010E943D1E8EE01AC0C9
:100690008FE061E00E941A1FC801B7010E943D1E51
:1006A00010C08EE061E00E941A1F8FE061E00E949E
:1006B0001A1FC801B7010E943D1E8EE060E00E9433
:1006C0001A1F8FE060E00E941A1F1F910F91FF9088
:1006D000EF90089587E062E00E94DB1E88E061E011
:1006E0000E94DB1E88E060E00E941A1F68E873E148
:1006F00080E090E00E943D1E8091A6019091A701AC
:1007000008979093A7018093A60108951F920F92D6
:100710000FB60F9211241F932F933F934F935F9324
:100720006F937F938F939F93AF93BF93CF93DF93F9
:10073000EF93FF93F8940E94171E9B01AC0119B12F
:10074000E12FF0E08091CA06682F70E06E277F27C6
:1007500062FF25C012FF09C02093BA063093BB0682
:100760004093BC065093BD061AC08091BA06909182
:10077000BB06A091BC06B091BD06281739074A07F1
:100780005B0728F0E901C81BD90BCE0104C0809596
:100790009095820F931F9093B3068093B20663FFE8
:1007A0002DC0E3FF09C02093BE063093BF064093DF
:1007B000C0065093C10622C08091BA069091BB0634
:1007C000A091BC06B091BD06281739074A075B0700
:1007D00048F08091BE069091BF06D901A81BB90BC5
:1007E000CD0108C08091BE069091BF06809590957E
:1007F000820F931F9093B5068093B40664FF25C0C3
:10080000E4FF09C02093C2063093C3064093C40698
:100810005093C5061AC08091C2069091C306A0915C
:10082000C406B091C506281739074A075B0728F0A8
:10083000E901C81BD90BCE0104C080959095820FA9
:10084000931F9093B7068093B60665FF25C0E5FF1A
:1008500009C02093C6063093C7064093C80650933C
:10086000C9061AC08091C6069091C706A091C80615
:10087000B091C906281739074A075B0728F0B90164
:10088000681B790BCB0104C080959095820F931F54
:100890009093B9068093B8061093CA0689B11817C9
:1008A00009F049CF7894FF91EF91DF91CF91BF91FB
:1008B000AF919F918F917F916F915F914F913F91F8
:1008C0002F911F910F900FBE0F901F901895EF92D0
:1008D000FF920F931F93809195068230B1F5E090BF
:1008E0009106F0909206009193061091940680E88C
:1008F0009DE8ABE5B0E0E80EF91E0A1F1B1F0E9441
:10090000171EE616F70608071907F8F484E0809327
:100910009506E0913102F0913202EE0FFF1FEE0FCB
:10092000FF1FEE5CFD4F8EEF9FEF948383838091DA
:1009300068008E7F8093680080916B008D7F80932C
:100940006B008AE060E00E941A1F80919506833058
:1009500009F054C0E0909106F09092060091930641
:10096000109194068FEF9FEFA0E0B0E0E80EF91E23
:100970000A1F1B1F0E94171EE616F7060807190715
:10098000E8F584E08093950640913102509132025F
:10099000FA01EE0FFF1FEE0FFF1FEE5CFD4F8FEF12
:1009A0009FEF948383839A012F5F3F4F30933202EE
:1009B0002093310280913002E82FF0E0EE0FFF1F0C
:1009C000EE0FFF1FEC53FC4F80818F5F80838150BF
:1009D0002436310528F0509332024093310280834F
:1009E000809168008E7F8093680080916B008D7F7E
:1009F00080936B008AE060E00E941A1F8091950648
:100A0000843019F485E0809395061F910F91FF9033
:100A1000EF9008951F93182F8AE061E00E941A1F3B
:100A20001093300210923202109231021092C303DE
:100A3000E12FF0E0EE0FFF1FEE0FFF1FEC53FC4F16
:100A40001082E3E3F2E01182108213821282349664
:100A500083E0E33CF807B9F782E0809395060E94B3
:100A6000171E60939106709392068093930690935D
:100A700094068FEF80939006809168008160809348
:100A8000680080916B00826080936B001F910895D5
:100A90001F920F920FB60F921124BF92CF92DF9246
:100AA000EF92FF920F931F932F933F934F935F9378
:100AB0006F937F938F939F93AF93BF93CF93DF9366
:100AC000EF93FF93F894E4E0BE2ECCEFDFEF73E0FA
:100AD000C72E0E94171E7B018C01D3B02091910676
:100AE0003091920640919306509194066D2D70E0DE
:100AF0008091900690E08627972781FF7CC08091A7
:100B00009506823019F4C092950669C0833009F0C9
:100B10006AC0D801C701821B930BA40BB50B8E3F93
:100B20002FEF920720E0A20720E0B20720F08DEF20
:100B30009FEFA0E0B0E0E0913102F091320261FF5E
:100B40000BC0EE0FFF1FEE0FFF1FE05DFD4F948304
:100B500083838AE061E045C0EE0FFF1FEE0FFF1FA9
:100B6000EE5CFD4F948383838AE060E00E941A1F4D
:100B7000A0913102B09132029D012F5F3F4F30931F
:100B800032022093310280913002E82FF0E0EE0F24
:100B9000FF1FEE0FFF1FEC53FC4F80818F5F8083A0
:100BA000815024363105F8F0B0933202A09331021F
:100BB0008083B0929506AA0FBB1FAA0FBB1FAE5C25
:100BC000BD4F1496DC93CE931397809168008E7F6F
:100BD0008093680080916B008D7F80936B008AE02A
:100BE00060E00E941A1FE0929106F0929206009334
:100BF000930610939406D092900683B1D81609F00C
:100C000068CF7894FF91EF91DF91CF91BF91AF9131
:100C10009F918F917F916F915F914F913F912F9114
:100C20001F910F91FF90EF90DF90CF90BF900F90AA
:100C30000FBE0F901F9018950F931F93CF93DF93C4
:100C40008C0187E061E020E432E44FE050E00E9454
:100C5000C11F685873418040904098F38091A6016D
:100C60009091A7010E94961EC7E0D0E0F801EC0F1A
:100C7000FD1F88E060810E941A1F8091A60190915B
:100C8000A7010E94961E21978FEFCF3FD80771F7DB
:100C900088E060E00E941A1F8AE090E00E94961EA1
:100CA00087E00E946E1F892BD9F78091A601909151
:100CB000A7010E94961ECFE0D0E0F801EC0FFD1FC7
:100CC00088E060810E941A1F8091A6019091A7017F
:100CD0000E94961E2197C730D10579F788E060E021
:100CE0000E941A1FDF91CF911F910F910895809359
:100CF000A0066093A1060E94A40082EA96E00E94EA
:100D00001C060895E82FF0E0EE0FFF1FE853FE4F9A
:100D1000808161810E94770608951F93182F80912A
:100D20002A06882311F50E94091E61527E448040E4
:100D30009040D8F080912C02813019F4812F0E94CC
:100D4000900180912C02823049F440912806509104
:100D5000290660E070E0812F0E942E0380912C0212
:100D6000833019F4812F0E9482061F910895CF933A
:100D7000DF93C8E4D4E08881982F9150943018F024
:100D8000EFEFFFEF09C0E82FF0E0EE0FFF1FE05597
:100D9000F94F0190F081E02D2B813C81E217F307A0
:100DA000D0F0943018F0EFEFFFEF09C0E82FF0E03B
:100DB000EE0FFF1FE055F94F0190F081E02D898182
:100DC0009A818E179F0738F0892B29F0232B19F071
:100DD0008B850E948D062C9646E0C832D40759F6C2
:100DE000C4EED3E0E8818E2F8150843018F08FEF6D
:100DF0009FEF07C0F0E0EE0FFF1FE055F94F808135
:100E0000918129813A812817390760F48B818130DB
:100E100049F48885813031F4232B21F08F810E94A1
:100E20008D061886E8818E2F8150843018F08FEF60
:100E30009FEF07C0F0E0EE0FFF1FE055F94F8081F4
:100E4000918129813A818217930760F48C818130E6
:100E500049F48985813031F4232B21F08F810E9460
:100E60008D061986E8818E2F8150843018F0EFEFBF
:100E7000FFEF08C0F0E0EE0FFF1FE055F94F0190C3
:100E8000F081E02D29813A818D819E81A901481B45
:100E9000590BE417F50748F49B81913031F48885AC
:100EA000882319F4232B09F09887E8818E2F81502D
:100EB000843018F0EFEFFFEF08C0F0E0EE0FFF1FF7
:100EC000E055F94F0190F081E02D29813A818D8123
:100ED0009E81820F931F8E179F0748F49C8191304B
:100EE00031F48985882319F4232B09F099872A96F0
:100EF00054E0C834D50709F075CFDF91CF9108953C
:100F000081E197E00E944E1B10927B0610927D06B5
:100F100010927C0610927F0610927E06E0E8F6E0C2
:100F2000119286E0E039F807D9F708950F931F93DF
:100F3000CF93DF9300E010E081E197E060E570E09F
:100F40000E94741AB80160707F77672F770F770B54
:100F500081E197E00E94F61AB801707081E197E094
:100F60000E94F61AC0E0D0E081E197E06FEF0E94A6
:100F7000F61A2196C031D105B9F781E197E00E94B8
:100F8000391B6AE070E080E090E00E943D1E005F47
:100F90001F4F80E10030180779F6DF91CF911F9144
:100FA0000F910895DF92EF92FF920F931F93CF93CB
:100FB000DF93E82F80913002E81709F48FC0E093A7
:100FC0003002F0E0EE0FFF1FEE0FFF1FEC53FC4F5F
:100FD000808180933102109232021092C303C3E3E6
:100FE000D2E0EE24FF24B4E6DB2E81E197E060E559
:100FF00070E00E94741A609130026D9DB00111245E
:1010000061557F4F6E0D7F1DA6E076956795AA9579
:10101000E1F76F77707081E197E00E94F61A6091B6
:1010200030026D9DB001112461557F4F6E0D7F1D03
:10103000660F771F660F771F707081E197E00E943F
:10104000F61A81E197E00E94391B81E197E060E5A3
:1010500070E044E050E00E944A1B81E197E00E946A
:101060007E1A892B31F081E197E00E94871A18825D
:10107000898381E197E00E947E1A892B51F00881D3
:10108000198181E197E00E94871A080F191F1983BF
:10109000088381E197E00E947E1A892B31F081E17B
:1010A00097E00E94871A1A828B8381E197E00E9461
:1010B0007E1A892B51F00A811B8181E197E00E9401
:1010C000871A080F191F1B830A830894E11CF11C5F
:1010D000249684E6E816F10409F087CFDF91CF91DA
:1010E0001F910F91FF90EF90DF900895EF92FF9284
:1010F0000F931F93CF93DF93C4ECD3E08CE9E82EDA
:1011000082E0F82E81E197E060E570E00E94741AB9
:10111000B70160707F77672F770F770B81E197E0DA
:101120000E94F61AB701707081E197E00E94F61AEA
:1011300081E197E00E94391B81E197E060E570E072
:1011400044E050E00E944A1B81E197E00E947E1A31
:10115000892B29F081E197E00E94871A888381E139
:1011600097E00E947E1A892B29F081E197E00E9486
:10117000871A898381E197E00E947E1A892B31F0DA
:1011800081E197E00E94871A1A828B8381E197E0C0
:101190000E947E1A892B51F00A811B8181E197E020
:1011A0000E94871A080F191F1B830A8384E090E0AE
:1011B000E80EF91E24969CEBE91692E0F90609F078
:1011C000A1CFDF91CF911F910F91FF90EF900895E4
:1011D000EF92FF920F931F93CF93DF93C8E4D4E075
:1011E0002CEBE22EF12C81E197E060E570E00E94AB
:1011F000741AB70160707F77672F770F770B81E1E3
:1012000097E00E94F61AB701707081E197E00E94A2
:10121000F61A81E197E00E94391B81E197E060E5D1
:1012200070E04CE050E00E944A1B81E197E00E9490
:101230007E1A892B29F081E197E00E94871A888322
:1012400081E197E00E947E1A892B31F081E197E0DD
:101250000E94871A19828A8381E197E00E947E1A90
:10126000892B51F009811A8181E197E00E94871A48
:10127000080F191F1A83098381E197E00E947E1AE3
:10128000892B31F081E197E00E94871A1B828C83C1
:1012900081E197E00E947E1A892B51F00B811C811D
:1012A00081E197E00E94871A080F191F1C830B83A6
:1012B00081E197E00E947E1A892B31F081E197E06D
:1012C0000E94871A1D828E8381E197E00E947E1A18
:1012D000892B51F00D811E8181E197E00E94871AD0
:1012E000080F191F1E830D8381E197E00E947E1A6B
:1012F000892B31F081E197E00E94871A1F8288874D
:1013000081E197E00E947E1A892B51F00F811885A8
:1013100081E197E00E94871A080F191F18870F8331
:1013200081E197E00E947E1A892B31F081E197E0FC
:101330000E94871A19868A8781E197E00E947E1AA7
:10134000892B51F009851A8581E197E00E94871A5F
:10135000080F191F1A87098781E197E00E947E1AFA
:10136000892B29F081E197E00E94871A8B878CE016
:1013700090E0E80EF91E2C969CE9E91692E0F90639
:1013800009F031CFDF91CF911F910F91FF90EF9036
:101390000895EF92FF920F931F93CF93DF93C4EEC4
:1013A000D3E04CE6E42EF12C81E197E060E570E0BB
:1013B0000E94741AB70160707F77672F770F770BE1
:1013C00081E197E00E94F61AB701707081E197E021
:1013D0000E94F61A81E197E00E94391B81E197E0B3
:1013E00060E570E048E050E00E944A1B81E197E030
:1013F0000E947E1A892B29F081E197E00E94871ACA
:10140000888381E197E00E947E1A892B31F081E187
:1014100097E00E94871A19828A8381E197E00E94EF
:101420007E1A892B51F009811A8181E197E00E948F
:10143000871A080F191F1A83098381E197E00E9418
:101440007E1A892B29F081E197E00E94871A8B830D
:1014500081E197E00E947E1A892B29F081E197E0D3
:101460000E94871A8C8381E197E00E947E1A892B63
:1014700031F081E197E00E94871A1D828E8381E11D
:1014800097E00E947E1A892B51F00D811E8181E127
:1014900097E00E94871A080F191F1E830D8381E1B0
:1014A00097E00E947E1A892B29F081E197E00E9443
:1014B000871A8F8388E090E0E80EF91E2A969CEB4D
:1014C000E916F10409F070CFDF91CF911F910F91D0
:1014D000FF90EF9008950F931F93CF93DF9308EC45
:1014E00011E0C8E0D0E081E197E060E570E00E94A3
:1014F000741ABE0160707F77672F770F770B81E1D9
:1015000097E00E94F61ABE01707081E197E00E9498
:10151000F61A81E197E00E94391B81E197E060E5CE
:1015200070E042E050E00E944A1B81E197E00E9497
:101530007E1A892B31F081E197E00E94871AF80129
:10154000808381E197E00E947E1A892B31F081E14E
:1015500097E00E94871AF801818322960E5F1F4F41
:10156000CC36D10509F0BFCFDF91CF911F910F91FC
:1015700008950F931F9381E197E060E570E00E946A
:10158000741A81E197E060E00E94F61A81E197E029
:1015900066E00E94F61A81E197E00E94391B81E122
:1015A00097E060E570E042E050E00E944A1B81E174
:1015B00097E00E947E1A892B41F081E197E00E941A
:1015C000871A109228068093290681E197E00E94ED
:1015D0007E1A892B71F0009128061091290681E16D
:1015E00097E00E94871A080F191F1093290600938D
:1015F00028061F910F9108950F931F9381E197E0A3
:1016000060E570E00E94741A81E197E060E00E945A
:10161000F61A81E197E064E00E94F61A81E197E012
:101620000E94391B81E197E060E570E042E050E004
:101630000E944A1B81E197E00E947E1A892B41F0AB
:1016400081E197E00E94871A10922E0280932F0268
:1016500081E197E00E947E1A892B71F000912E02A1
:1016600010912F0281E197E00E94871A080F191F3D
:1016700010932F0200932E021F910F91089581E184
:1016800097E060E570E00E94741A81E197E060E005
:101690000E94F61A81E197E062E00E94F61A81E169
:1016A00097E00E94391B81E197E060E570E041E03E
:1016B00050E00E944A1B81E197E00E947E1A892B2C
:1016C00031F081E197E00E94871A80932C020895FF
:1016D0000F931F93CF93DF938C0181E197E060E537
:1016E00070E00E94741A980120703F7781E197E0C2
:1016F000632F0E94F61A107081E197E0602F0E941C
:10170000F61A81E197E00E94391B6AE070E080E000
:1017100090E00E943D1E81E197E060E570E040E1CD
:1017200050E00E944A1B8CE198E060E071E00E946A
:101730002624C0E0D0E081E197E00E947E1A892B48
:1017400089F081E197E00E94871ABC018CE198E062
:101750004AE050E00E94F4238CE198E063E071E0FD
:101760000E9426242196C031D10529F78CE198E00A
:101770000E94A7226AE070E080E090E00E943D1E97
:10178000DF91CF911F910F910895CF93DF938091B7
:101790007B06813089F581E197E060E570E00E9489
:1017A000741A20917C0630917D0620703F7781E18C
:1017B00097E0632F0E94F61A60917C0670917D0677
:1017C000707081E197E00E94F61AC0E8D6E081E1EE
:1017D00097E069910E94F61A86E0C039D807B9F7F8
:1017E00081E197E00E94391B10927B066AE070E06D
:1017F00080E090E00E943D1EDF91CF910895FF921E
:101800000F931F93CF93DF938C01F62EEC01C07FD3
:1018100080917C0690917D06C817D90711F00E942F
:10182000C50B80917B06882309F03FC0D0937D06CD
:10183000C0937C0681E080937B0681E197E060E5C0
:1018400070E00E94741A20917C0630917D06207011
:101850003F7781E197E0632F0E94F61A60917C0642
:1018600070917D06707081E197E00E94F61A81E127
:1018700097E00E94391B81E197E060E570E040E16C
:1018800050E00E944A1BC0E8D6E081E197E00E9448
:101890007E1A892B29F081E197E00E94871A8883BC
:1018A000219686E0C039D80781F7F801EF70F07013
:1018B000E058F94FF08210937F0600937E06DF9187
:1018C000CF911F910F91FF90089582E090E0609179
:1018D0002C020E94FF0B0895682F80917E06909144
:1018E0007F0601960E94FF0B08951F93182F892FE2
:1018F0000E946C0C812F0E946C0C1F9108950F9315
:101900001F93CF93DF93C8ECD1E008E010E0C8014B
:1019100068810E94FF0B89810E946C0C22960E5FE9
:101920001F4F82E0CC32D80791F7DF91CF911F9102
:101930000F9108950F931F93CF93DF93C4ECD3E0DF
:101940000CE912E0C80168810E94FF0B89810E94A6
:101950006C0C8A819B810E94750C24960C5F1F4F32
:1019600083E0C43ED80771F7DF91CF911F910F91AB
:1019700008950F931F93CF93DF93C8E4D4E00CEB4B
:1019800010E0C80168810E94FF0B89819A810E9442
:10199000750C8B819C810E94750C8D819E810E94AB
:1019A000750C8F8198850E94750C89859A850E9497
:1019B000750C8B850E946C0C2C96045F1F4F86E083
:1019C000C832D807F1F6DF91CF911F910F9108959A
:1019D0000F931F93CF93DF93C4EED3E00CE610E098
:1019E000C80168810E94FF0B89819A810E94750C51
:1019F0008B810E946C0C8C810E946C0C8D819E816D
:101A00000E94750C8F810E946C0C2A96085F1F4FF4
:101A100084E0C834D80721F7DF91CF911F910F914F
:101A200008951F93162F672F0E94FF0B812F0E948E
:101A30006C0C1F910895FF920F931F93CF93DF9328
:101A400003E312E0C0E0D0E0F4E6FF2E8091300224
:101A50008F9DC001112481559F4F8C0F9D1FF80150
:101A600060817181880F991F880F991F0E94110D45
:101A7000F801828193810E94750C21960C5F1F4FA3
:101A8000C436D10519F7DF91CF911F910F91FF90C7
:101A90000895609128067091290686E090E00E94E2
:101AA000110D089560912E0270912F0284E090E054
:101AB0000E94110D089580E090E061E070E00E94C6
:101AC000110D089510927B0610927D0610927C06EF
:101AD00010927F0610927E06E0E8F6E0119286E012
:101AE000E039F807D9F70E945B0D0E94650C0E944F
:101AF000520D0E94490D0E947F0C0E94E80C0E942A
:101B0000B90C0E949A0C0E941B0D0E94C50B0895EF
:101B1000CF93DF9381E197E060E570E00E94741A53
:101B200081E197E060E00E94F61A81E197E060E0D1
:101B30000E94F61A81E197E00E94391B81E197E04B
:101B400060E570E042E050E00E944A1B81E197E0CE
:101B50000E947E1A892B31F081E197E00E94871A5A
:101B6000D82FC0E081E197E00E947E1A892B31F0E6
:101B700081E197E00E94871AC80FD91F219721F0B1
:101B80000E94DB000E94620DDF91CF9108950E94B8
:101B9000880D0E943F0B0E94FC0A0E94B90A0E9415
:101BA0006B0A0E94C9090E94E8080E9476080895FD
:101BB0000F931F9381E080932B0610922C061092B6
:101BC0002E0610922D061092440610924306109293
:101BD0007706109278061092790610927A06EFE254
:101BE000F6E01192119286E0E334F807D1F7E5E4CC
:101BF000F6E0119286E0E737F807D9F70CC00091BC
:101C00004306109144068CE198E00E949F210B5BF3
:101C1000194FF80180838CE198E00E946E2118161C
:101C200019066CF31F910F910895FF920F931F9364
:101C3000CF93DF9380912C0690E0FC01E454F040B8
:101C4000E731F10510F00C94D918EC5CFF4FEE0F62
:101C5000FF1F0590F491E02D09948CE198E065E078
:101C600071E00E9426248CE198E063E070E04AE095
:101C700050E00E94F4238CE198E068E071E00E945B
:101C800026248CE198E061E070E04AE050E00E9498
:101C9000F4238CE198E068E071E00E9426248CE156
:101CA00098E060E070E04AE050E00E94F4238CE1AC
:101CB00098E068E071E00E9426248CE198E06DEDE8
:101CC00077E04AE050E00E94F4238CE198E068E07D
:101CD00071E00E9426248CE198E065E070E04AE023
:101CE00050E00E94F4238CE198E068E071E00E94EB
:101CF00026248CE198E06FE170E04AE050E00E9419
:101D0000F4238CE198E068E071E00E9426248CE1E5
:101D100098E06AE070E04AE050E00E94F4238CE131
:101D200098E068E071E00E9426248CE198E068E188
:101D300070E04AE050E00E94F4238CE198E068E013
:101D400071E00E9426248CE198E061E070E04AE0B6
:101D500050E00E9407248CE198E06AE071E00E9464
:101D600026248CE198E068E270E04AE050E00E94AE
:101D7000F4238CE198E068E071E00E9426248CE175
:101D800098E06AE070E04AE050E00E94F4238CE1C1
:101D900098E068E071E00E9426248CE198E062E31C
:101DA00070E04AE050E00E94F4238CE198E068E0A3
:101DB00071E00E9426248CE198E068E070E04AE03F
:101DC00050E00E94F4238CE198E068E071E00E940A
:101DD00026248CE198E064E670E04AE050E00E943E
:101DE00007248CE198E06DE071E00E9426248CE1EC
:101DF00098E060912C024AE050E00E9496238CE12A
:101E000098E060E171E00E94262460912E027091BA
:101E10002F028CE198E04AE050E00E9467238CE1B9
:101E200098E063E171E00E94262460912806709199
:101E300029068CE198E04AE050E00E94672308EC14
:101E400011E0C1E0D0E08CE198E066E171E00E9431
:101E500026248CE198E0BE014AE050E00E94F42381
:101E60008CE198E068E071E00E9426248CE198E023
:101E7000F80160814AE050E00E9484238CE198E000
:101E800068E071E00E9426248CE198E0F80161810D
:101E90004AE050E00E94962321960E5F1F4FC33305
:101EA000D10589F6C8E4D4E001E010E08CE198E0C7
:101EB00069E171E00E9426248CE198E0B8014AE0D3
:101EC00050E00E94F4238CE198E068E071E00E9409
:101ED00026248CE198E068814AE050E00E94842347
:101EE0008CE198E068E071E00E94262469817A81A3
:101EF0008CE198E04AE050E00E9456238CE198E0A3
:101F000068E071E00E9426246B817C818CE198E07E
:101F10004AE050E00E9456238CE198E068E071E0CE
:101F20000E9426246D817E818CE198E04AE050E099
:101F30000E9456238CE198E068E071E00E9426241C
:101F40006F8178858CE198E04AE050E00E9456234A
:101F50008CE198E068E071E00E94262469857A852A
:101F60008CE198E04AE050E00E9456238CE198E032
:101F700068E071E00E9426248CE198E06B854AE0DD
:101F800050E00E9496230F5F1F4F2C9609321105D7
:101F900009F08CCFC4EED3E001E010E08CE198E0D2
:101FA0006CE171E00E9426248CE198E0B8014AE0DF
:101FB00050E00E94F4238CE198E068E071E00E9418
:101FC00026248CE198E068814AE050E00E94842356
:101FD0008CE198E068E071E00E94262469817A81B2
:101FE0008CE198E04AE050E00E9456238CE198E0B2
:101FF00068E071E00E9426248CE198E06B814AE061
:1020000050E00E9484238CE198E068E071E00E9437
:1020100026248CE198E06C814AE050E00E94842301
:102020008CE198E068E071E00E9426246D817E8159
:102030008CE198E04AE050E00E9456238CE198E061
:1020400068E071E00E9426248CE198E06F814AE00C
:1020500050E00E9496230F5F1F4F2A960B30110508
:1020600009F09CCFC5ECD3E010E08CE198E06FE183
:1020700071E00E9426248CE198E0612F4AE050E054
:102080000E9484238CE198E068E071E00E9426249D
:102090008CE198E068814AE050E00E9484238CE162
:1020A00098E068E071E00E94262469817A818CE1E1
:1020B00098E04AE050E00E9467231F5F24961830A2
:1020C000A1F601E010E0802F81500E94D207FF248A
:1020D00042C08CE198E062E271E00E9426248CE12B
:1020E00098E0B8014AE050E00E94F4238CE198E0C7
:1020F00068E071E00E942624BE016F5F7F4F8CE193
:1021000098E04AE050E00E94F4238CE198E068E017
:1021100071E00E942624CC0FDD1FCC0FDD1FFE01D5
:10212000E05DFD4F638174818CE198E04AE050E00E
:102130000E9456238CE198E068E071E00E9426241A
:10214000CE5CDD4F6B817C818CE198E04AE050E011
:102150000E946723F394CF2DD0E0809131029091BB
:102160003202C817D90708F4B4CF0F5F1F4F0930E8
:10217000110509F0A8CF8CE198E065E271E00C94BC
:10218000DD1880912F06909130060E94680B0C9408
:10219000DF180E9496070E94DB008CE198E069E25C
:1021A00071E00C94DD1880912D0690912E068330FD
:1021B0009105B1F5E0912F06F0913006309781F14D
:1021C000E930F10508F0A4C02091310630913206C3
:1021D0002115310509F49CC02531310508F098C05E
:1021E0008091330690913406009709F491C04DEF29
:1021F000893E940708F08CC0E150F04CEE0FFF1FB1
:10220000EE0FFF1FDF01AC53BC4F11962C93EA5326
:10221000FC4F918380838CE198E06DE271E0CDC743
:102220008130910509F042C080912F0690913006CF
:10223000009709F46DC0099708F06AC08CE198E036
:102240006FE171E00E94262460912F0670913006A4
:102250008CE198E04AE050E00E9456238CE198E03F
:1022600068E071E00E942624E0912F06F09130068C
:10227000EE0FFF1FEE0FFF1FE054FC4F8CE198E0C4
:1022800061814AE050E00E9484238CE198E068E09C
:1022900071E00E942624E0912F06F0913006EE0FA7
:1022A000FF1FEE0FFF1FEE53FC4FA7C4892B81F5D4
:1022B000C5ECD3E010E08CE198E06FE171E00E94A2
:1022C00026248CE198E0612F4AE050E00E948423AC
:1022D0008CE198E068E071E00E9426248CE198E0AF
:1022E00068814AE050E00E9484238CE198E068E035
:1022F00071E00E94262469817A818CE198E04AE0AD
:1023000050E00E9467231F5F24961830A1F657C73C
:102310008CE198E061E371E050C780912D069091C7
:102320002E06019709F04BC780912F069091300639
:10233000009709F444C78930910508F040C70E940E
:102340008D068CE198E065E371E037C780912D063A
:1023500090912E068430910509F044C0E0912F063B
:10236000F09130063097F1F1E930F10508F000C145
:1023700020913106309132062115310509F4F8C05B
:102380002536310508F0F4C0E150E0933002909119
:102390003106809132069093310280933202F0E050
:1023A000EE0FFF1FEE0FFF1FEC53FC4F9083F90160
:1023B000E150F04CEE0FFF1FEE0FFF1FDF01A05D9D
:1023C000BD4F809133069091340614969C938E9362
:1023D0001397EE5CFD4F80913506909136069483FD
:1023E0008383C1C08130910509F060C080912F06C0
:1023F00090913006009709F4BBC08930910508F030
:10240000B7C081500E94D20710E045C08CE198E02F
:1024100062E271E00E94262460912F0670913006DE
:102420008CE198E04AE050E00E9456238CE198E06D
:1024300068E071E00E942624BE016F5F7F4F8CE14F
:1024400098E04AE050E00E94F4238CE198E068E0D4
:1024500071E00E942624CC0FDD1FCC0FDD1FFE0192
:10246000E05DFD4F638174818CE198E04AE050E0CB
:102470000E9456238CE198E068E071E00E942624D7
:10248000CE5CDD4F6B817C818CE198E04AE050E0CE
:102490000E9467231F5FC12FD0E08091310290918D
:1024A0003202C817D90708F4B1CF5DC0892B09F0F3
:1024B0005FC001E010E0802F81500E94D207FF240E
:1024C00042C08CE198E062E271E00E9426248CE137
:1024D00098E0B8014AE050E00E94F4238CE198E0D3
:1024E00068E071E00E942624BE016F5F7F4F8CE19F
:1024F00098E04AE050E00E94F4238CE198E068E024
:1025000071E00E942624CC0FDD1FCC0FDD1FFE01E1
:10251000E05DFD4F638174818CE198E04AE050E01A
:102520000E9456238CE198E068E071E00E94262426
:10253000CE5CDD4F6B817C818CE198E04AE050E01D
:102540000E946723F394CF2DD0E0809131029091C7
:102550003202C817D90708F4B4CF0F5F1F4F0930F4
:10256000110509F0A8CF8CE198E069E371E025C678
:102570008CE198E06DE371E020C680912D0690918A
:102580002E06019789F480912F06909130060097CE
:1025900059F08930910540F481500E940A058CE180
:1025A00098E061E471E009C68CE198E065E471E0CF
:1025B00004C680912D0690912E068130910599F4E4
:1025C00080912F06909130068E319105F8F0893375
:1025D0009105E0F490932F0280932E028CE198E015
:1025E00069E471E0EAC5892B89F48CE198E060E147
:1025F00071E00E94262460912E0270912F028CE1DE
:1026000098E04AE050E00E946723D9C58CE198E049
:102610006DE471E0D2C580912D0690912E06833035
:102620009105D1F4E0912F06F0913006309709F42E
:102630008EC0E333F10508F08AC0EE0FFF1FEA53A6
:10264000FE4F8091310680838091330681838CE137
:1026500098E061E571E0B1C58130910509F041C0B4
:1026600080912F0690913006009709F470C0C397AF
:1026700008F06DC08CE198E066E171E00E942624CC
:1026800060912F06709130068CE198E04AE050E0AE
:102690000E9456238CE198E068E071E00E942624B5
:1026A000E0912F06F0913006EE0FFF1FEA53FE4F28
:1026B0008CE198E060814AE050E00E9484238CE144
:1026C00098E068E071E00E942624E0912F06F091E6
:1026D0003006EE0FFF1FEA53FE4F8CE198E0618158
:1026E0002BC4892BA1F508EC11E0C1E0D0E08CE10E
:1026F00098E066E171E00E9426248CE198E0BE013A
:102700004AE050E00E94F4238CE198E068E071E038
:102710000E9426248CE198E0F80160814AE050E0B4
:102720000E9484238CE198E068E071E00E942624F6
:102730008CE198E0F80161814AE050E00E94962324
:1027400021960E5F1F4FC333D10589F638C58CE142
:1027500098E065E571E031C580912D0690912E06D7
:10276000009719F40E94620D20C0019719F40E948D
:10277000C70D1BC08CE198E06DE571E01EC580912E
:102780002D0690912E06019771F480912F0690915D
:102790003006019741F481E080932A068CE198E0AD
:1027A00061E671E00AC510922A068CE198E069E5BD
:1027B00071E003C580912D0690912E068130910520
:1027C00081F480912F06909130060097B9F0843003
:1027D0009105A0F480932C028CE198E065E671E00D
:1027E000ECC4892B59F48CE198E06DE071E00E9413
:1027F00026248CE198E060912C029EC38CE198E045
:1028000069E671E0DAC480912D0690912E06813040
:10281000910599F480912F06909130060097D1F0A0
:10282000FDEF893E9F07B0F4909329068093280618
:102830008CE198E06DE671E0C0C4892B59F48CE11D
:1028400098E063E171E00E9426246091280670916F
:102850002906D5CE8CE198E061E771E0AEC48091A5
:102860002D0690912E068830910509F040C0809188
:102870002F0690913006009709F496C18932910590
:1028800008F092C1FC01EE0FFF1FE80FF91FEE0FD9
:10289000FF1FEE0FFF1FE85BFB4F3C978091310657
:1028A0008193809133069091340681939193809126
:1028B00035069091360681939193809137069091D9
:1028C0003806819391938091390690913A068193CD
:1028D000919380913B0690913C06819391938091D6
:1028E0003D0680838CE198E065E771E066C4813045
:1028F000910509F0DDC080912F0690913006009778
:1029000009F452C1899708F04FC18CE198E069E160
:1029100071E00E94262460912F06709130068CE1B0
:1029200098E04AE050E00E9456238CE198E068E08D
:1029300071E00E94262480912F0690913006FC01C0
:10294000EE0FFF1FE80FF91FEE0FFF1FEE0FFF1F27
:10295000E45CFB4F8CE198E060814AE050E00E942B
:1029600084238CE198E068E071E00E942624809145
:102970002F0690913006FC01EE0FFF1FE80FF91FA4
:10298000EE0FFF1FEE0FFF1FE35CFB4F60817181B5
:102990008CE198E04AE050E00E9456238CE198E0F8
:1029A00068E071E00E94262480912F069091300605
:1029B000FC01EE0FFF1FE80FF91FEE0FFF1FEE0FD8
:1029C000FF1FE15CFB4F608171818CE198E04AE080
:1029D00050E00E9456238CE198E068E071E00E948C
:1029E000262480912F0690913006FC01EE0FFF1FE8
:1029F000E80FF91FEE0FFF1FEE0FFF1FEF5BFB4FFE
:102A0000608171818CE198E04AE050E00E94562399
:102A10008CE198E068E071E00E94262480912F0606
:102A200090913006FC01EE0FFF1FE80FF91FEE0F2B
:102A3000FF1FEE0FFF1FED5BFB4F608171818CE18B
:102A400098E04AE050E00E9456238CE198E068E06C
:102A500071E00E94262480912F0690913006FC019F
:102A6000EE0FFF1FE80FF91FEE0FFF1FEE0FFF1F06
:102A7000EB5BFB4F608171818CE198E04AE050E0B4
:102A80000E9456238CE198E068E071E00E942624C1
:102A900080912F0690913006FC01EE0FFF1FE80F8A
:102AA000F91FEE0FFF1FEE0FFF1FE95BFB4F41C247
:102AB000892B09F079C0C8E4D4E001E010E08CE192
:102AC00098E069E171E00E9426248CE198E0B80169
:102AD0004AE050E00E94F4238CE198E068E071E065
:102AE0000E9426248CE198E068814AE050E00E9430
:102AF00084238CE198E068E071E00E9426246981DB
:102B00007A818CE198E04AE050E00E9456238CE103
:102B100098E068E071E00E9426246B817C818CE162
:102B200098E04AE050E00E9456238CE198E068E08B
:102B300071E00E9426246D817E818CE198E04AE05C
:102B400050E00E9456238CE198E068E071E00E941A
:102B500026246F8178858CE198E04AE050E00E945D
:102B600056238CE198E068E071E00E942624698594
:102B70007A858CE198E04AE050E00E9456238CE18F
:102B800098E068E071E00E9426248CE198E06B8573
:102B90004AE050E00E9496230F5F1F4F2C960932A7
:102BA000110509F08CCF0BC38CE198E069E771E067
:102BB00004C380912D0690912E068130910501F578
:102BC00080912F0690913006009709F440C0059738
:102BD000F0F58CE198E06DE771E00E942624E09129
:102BE0002F068E2F8150843018F06FEF7FEF07CDC6
:102BF000F0E0EE0FFF1FE055F94F60817181FFCCCF
:102C0000892B29F58CE198E060E871E00E94262488
:102C1000C2EBD6E010E08CE198E068E071E00E9441
:102C20002624143018F06FEF7FEF02C0688179819D
:102C30008CE198E04AE050E00E9456231F5F229604
:102C4000143049F78CE198E00E94A722B8C28CE1C9
:102C500098E062E871E0B1C280912D0690912E0655
:102C60008730910509F09EC060912F067091300663
:102C70006115710509F4D1C16B30710508F0CDC142
:102C8000FB01EE0FFF1FCB0113E0880F991F1A9570
:102C9000E1F7E80FF91FE652FC4F8091310680837F
:102CA00030912F0640913006832F942FFC01B3E022
:102CB000EE0FFF1FBA95E1F7880F991FE80FF91F74
:102CC000E552FC4F809133069091340691838083C6
:102CD000832F942FFC0153E0EE0FFF1F5A95E1F76D
:102CE000880F991FE80FF91FE352FC4F80913506BA
:102CF0008083832F942FFC0103E0EE0FFF1F0A95C2
:102D0000E1F7880F991FE80FF91FE252FC4F8091FD
:102D100037068083832F942FFC01B3E0EE0FFF1F53
:102D2000BA95E1F7880F991FE80FF91FE152FC4FA0
:102D30008091390690913A0691838083832F942F56
:102D4000FC0153E0EE0FFF1F5A95E1F7880F991F22
:102D5000E80FF91FEF51FC4F80913B0680838BEF0A
:102D60009FEF689FF001699FF00D789FF00D11248F
:102D70003196EE0FFF1FF095E195FF4FEC51FC4FA0
:102D800021E02083832F942FFC0103E0EE0FFF1F2F
:102D90000A95E1F7880F991FE80FF91FED51FC4FD5
:102DA000208302C28130910509F0CBC080912F06AB
:102DB00090913006009709F430C10B9708F02DC1AF
:102DC0008CE198E06CE171E00E94262460912F066E
:102DD000709130068CE198E04AE050E00E94562362
:102DE0008CE198E068E071E00E94262480912F0633
:102DF00090913006FC01B3E0EE0FFF1FBA95E1F7AA
:102E0000880F991FE80FF91FE652FC4F8CE198E0FC
:102E100060814AE050E00E9484238CE198E068E001
:102E200071E00E94262480912F0690913006FC01CB
:102E300073E0EE0FFF1F7A95E1F7880F991FE80FF7
:102E4000F91FE552FC4F608171818CE198E04AE006
:102E500050E00E9456238CE198E068E071E00E9407
:102E6000262480912F0690913006FC0153E0EE0F4E
:102E7000FF1F5A95E1F7880F991FE80FF91FE352DA
:102E8000FC4F8CE198E060814AE050E00E9484238E
:102E90008CE198E068E071E00E94262480912F0682
:102EA00090913006FC0133E0EE0FFF1F3A95E1F7F9
:102EB000880F991FE80FF91FE252FC4F8CE198E050
:102EC00060814AE050E00E9484238CE198E068E051
:102ED00071E00E94262480912F0690913006FC011B
:102EE00003E0EE0FFF1F0A95E1F7880F991FE80F27
:102EF000F91FE152FC4F608171818CE198E04AE05A
:102F000050E00E9456238CE198E068E071E00E9456
:102F1000262480912F0690913006FC01B3E0EE0F3D
:102F2000FF1FBA95E1F7880F991FE80FF91FEF51BE
:102F3000FC4F8CE198E060814AE050E00E949623CB
:102F40003EC1892B09F069C0C4EED3E001E010E076
:102F50008CE198E06CE171E00E9426248CE198E01D
:102F6000B8014AE050E00E94F4238CE198E068E068
:102F700071E00E9426248CE198E068814AE050E0EC
:102F80000E9484238CE198E068E071E00E9426248E
:102F900069817A818CE198E04AE050E00E945623F2
:102FA0008CE198E068E071E00E9426248CE198E0D2
:102FB0006B814AE050E00E9484238CE198E068E055
:102FC00071E00E9426248CE198E06C814AE050E098
:102FD0000E9484238CE198E068E071E00E9426243E
:102FE0006D817E818CE198E04AE050E00E9456239A
:102FF0008CE198E068E071E00E9426248CE198E082
:103000006F814AE050E00E9496230F5F1F4F2A967F
:103010000B30110509F09CCFD2C08CE198E06AE832
:1030200071E0CBC08CE198E065E071E00E9426245D
:103030008CE198E063E070E04AE050E00E94F42305
:103040008CE198E068E071E00E9426248CE198E031
:1030500061E070E04AE050E00E94F4238CE198E0E7
:1030600068E071E00E9426248CE198E060E070E066
:103070004AE050E00E94F4238CE198E068E071E0BF
:103080000E9426248CE198E06DED77E04AE050E064
:103090000E94F4238CE198E068E071E00E9426240D
:1030A0008CE198E065E070E04AE050E00E94F42393
:1030B0008CE198E068E071E00E9426248CE198E0C1
:1030C0006FE170E04AE050E00E94F4238CE198E068
:1030D00068E071E00E9426248CE198E06AE070E0EC
:1030E0004AE050E00E94F4238CE198E068E071E04F
:1030F0000E9426248CE198E068E170E04AE050E00C
:103100000E94F4238CE198E068E071E00E9426249C
:103110008CE198E061E070E042C08CE198E06AE008
:1031200071E00E9426248CE198E068E270E04AE0B9
:1031300050E00E94F4238CE198E068E071E00E9486
:1031400026248CE198E06AE070E04AE050E00E94BA
:10315000F4238CE198E068E071E00E9426248CE181
:1031600098E062E370E04AE050E00E94F4238CE1D2
:1031700098E068E071E00E9426248CE198E068E025
:1031800070E04AE050E00E94F4238CE198E068E0AF
:1031900071E00E9426248CE198E064E670E04AE049
:1031A00050E00E9407240BC08CE198E066E871E0D3
:1031B00004C08CE198E06EE871E00E942924DF9160
:1031C000CF911F910F91FF9008957F928F929F92C0
:1031D000AF92BF92CF92DF92EF92FF920F931F9325
:1031E000CF93DF938CE198E00E946E2185369105A4
:1031F00014F00E94D80D8091770690917806A091E6
:103200007906B0917A06815A9648A140B04040F0C4
:103210008091430690914406892B11F00E94D80DAD
:103220008091770690917806A0917906B0917A0600
:103230000196A11DB11D8093770690937806A09307
:103240007906B0937A0672E0772E64E6962E5AE0FD
:10325000852E40E1A42E47E2B42E38EEC32E33E093
:10326000D32EEAC000914306109144068CE198E009
:103270000E949F210B5B194FF8018083C091430688
:10328000D09144062196D0934406C09343062197DB
:1032900010927706109278061092790610927A06AC
:1032A00080912B06813021F0823009F0C3C027C005
:1032B000CB5BD94FE881EB3331F0ED3021F0EA30D0
:1032C00011F0EE33A1F48091450680932C067092A4
:1032D0002B06ED3021F0EA3011F0EE3321F40E949C
:1032E000150E0E94D80D109244061092430680914C
:1032F000430690914406029708F09CC09DC0FE01D1
:10330000EB5BF94F00810B3311F00D3099F46091B4
:103310002D0670912E06AE01409550954A5F5F4F85
:10332000E5E4F6E0EE24FF24DB01AA0FBB1FA15D5C
:10333000B94F62C00A3059F30E3309F075C0E7CFB8
:103340004230510581F14330510540F4411551059A
:1033500069F04130510509F049C014C043305105AE
:1033600061F14430510509F041C036C0808190E0E0
:10337000C0979C012A9DC0012B9D900D3A9D900DF8
:1033800011240BC0808190E0C0979C012C9DC0014E
:103390002D9D900D3C9D900D11242D913C911197E8
:1033A000820F931F20C02D913C911197205C3241D8
:1033B0008081899DC001112409C02D913C911197F4
:1033C000205E31408081889DC0011124280F391F63
:1033D00011963C932E930AC020818D919C91119758
:1033E000820F911DC09711969C938E930894E11CB7
:1033F000F11C4F5F5F4F3196EC16FD0608F4A0CF2D
:103400006F5F7F4F70932E0660932D060D3021F075
:103410000A3011F00E3321F40E94150E0E94D80DCF
:103420001092440610924306809143069091440600
:10343000069710F00E94D80D8CE198E00E946E2152
:10344000181619060CF40ECFDF91CF911F910F9132
:10345000FF90EF90DF90CF90BF90AF909F908F90B4
:103460007F9008950F931F930CE118E0C80140E886
:1034700055E260E070E00E94E720C80160E971E079
:103480000E9429240E94D80D1F910F9108950E9437
:10349000321A0E9443010E947F010E9425030E946C
:1034A0003E010E946A030E9477010E94250308954D
:1034B00090912C0280912D02981731F00E94471AAA
:1034C00080912C0280932D020E94E5180E94B7067D
:1034D0000E94670408950E9480070E94DB000E94FA
:1034E000C70D0E94471A089581E0809310076093EA
:1034F000ED0610920E0710920F0708952091EC062A
:1035000030E08091EB06281B3109C90108954091F4
:10351000EB068091EC06481718F02FEF3FEF0AC03A
:10352000E42FF0E0E553F94F8081282F30E04F5F22
:103530004093EB06C9010895E091EB068091EC06FB
:10354000E81718F0EFEFFFEF06C0F0E0E553F94F92
:103550008081E82FF0E0CF010895089510921407BC
:103560001092130788EE93E0A0E0B0E08093150777
:1035700090931607A0931707B09318078CEA91E071
:1035800090931207809311070895CF92DF92EF92E4
:10359000FF920F931F93CF93DF937C016B018A01FE
:1035A000809110078823A1F0C0E0D0E00DC0D701C2
:1035B000ED91FC91D601AC0FBD1F0190F081E02D83
:1035C000C7016C9109952196C017D10780F304C0FB
:1035D000CB01642F0E94F71BC801DF91CF911F918F
:1035E0000F91FF90EF90DF90CF900895DF93CF93EE
:1035F0000F92CDB7DEB7FC01698380911007882355
:10360000C9F080910F07803238F081E090E0938319
:10361000828320E030E015C080910E07E82FF0E0B3
:10362000E251F94F998190838F5F80930E078093C9
:103630000F0705C0CE01019661E00E94F71B21E053
:1036400030E0C9010F90CF91DF9108950F93062FBD
:103650008091ED066EEE76E040910F0721E00E942A
:10366000A21B10920E0710920F07109210070F91D5
:10367000089561E00E94261B0895413208F040E25F
:10368000862F6BEC76E00E94591B1092EB0680931C
:10369000EC06089521E00E943D1B08951092EB0670
:1036A0001092EC0610920E0710920F070E94A31DB5
:1036B0000895382F413210F040E042C080911D073C
:1036C0008823E1F791E090931D0720931F078FEF68
:1036D00080938A07109245074150409346074F5FF9
:1036E00090931E0780911E07330F832B80931E0734
:1036F00080912007813041F41092200780911E07AD
:103700008093BB0085EC01C085EE8093BC00809166
:103710001D078130E1F380914507841710F4409133
:10372000450720E030E00AC0FB01E20FF31FD9019A
:10373000AB5DB84F8C9180832F5F3F4F2417A0F370
:10374000842F08950F931F93582F122F413210F09A
:1037500081E04AC080911D078823E1F782E08093D1
:103760001D0700931F078FEF80938A07109245076C
:1037700040934607A5E2B7E0FB0102C081918D931B
:103780008E2F861B8417D0F310921E0780911E0780
:10379000550F852B80931E0780912007813041F4BF
:1037A0001092200780911E078093BB0085EC01C01A
:1037B00085EE8093BC00112321F080911D0782309B
:1037C000E1F380918A078F3F11F480E00DC0809172
:1037D0008A07803211F482E007C080918A07803323
:1037E00011F084E001C083E01F910F910895482FEC
:1037F000613210F081E0089580911D07843011F04E
:1038000082E0089560936807A7E4B7E0842F9C01E5
:10381000F90102C081918D938E2F841B8617D0F3FE
:1038200080E008951F920F920FB60F9211242F93EC
:103830003F934F935F936F937F938F939F93AF9338
:10384000BF93EF93FF938091B90090E0887F9070D1
:103850008036910509F4F2C081369105CCF58832A5
:10386000910509F47BC089329105B4F4803191054A
:1038700009F46FC0813191053CF4009709F447C108
:10388000089709F04FC165C08831910509F466C0F9
:10389000809709F047C182C08034910509F4A4C023
:1038A0008134910544F48033910509F482C0C897AE
:1038B00009F038C189C08035910509F489C088357F
:1038C000910509F496C08834910509F02BC1AEC06A
:1038D0008839910509F413C189399105ECF48837C9
:1038E000910509F4ABC0893791054CF488369105F0
:1038F00009F4A4C08037910509F014C19FC088382D
:10390000910509F4FCC08039910509F49DC0803807
:10391000910509F007C198C0803B910509F4C6C024
:10392000813B91054CF4803A910509F49FC0883A97
:10393000910509F0F7C0BAC0803C910509F4E3C0D5
:10394000883C910509F4DFC0883B910509F0EAC085
:10395000C2C080911E078093BB00CFC090914507E5
:1039600080914607981768F490914507E92FF0E099
:10397000EB5DF84F80818093BB009F5F909345077C
:10398000BCC080911F07882309F44BC085ED80934C
:10399000BC008091BC0084FDFCCFC2C080E280935B
:1039A0008A0785ED8093BC008091BC0084FDFCCF2C
:1039B000B7C080E380938A0785ED8093BC00809137
:1039C000BC0084FDFCCFACC088E380938A079BC019
:1039D000809145079091BB00E82FF0E0EB5DF84F38
:1039E00090838F5F809345079091450780914607AC
:1039F00082C0809145079091BB00E82FF0E0EB5D1D
:103A0000F84F90838F5F8093450780911F0788232D
:103A100041F085ED8093BC008091BC0084FDFCCF1B
:103A20007FC081E08093200784EA6EC085ED80939B
:103A3000BC008091BC0084FDFCCF72C083E0809309
:103A40001D071092890759C080918907803208F0BC
:103A500056C0809189079091BB00E82FF0E0E759AC
:103A6000F84F90838F5F8093890747C080918907C3
:103A7000803230F4E0918907F0E0E759F84F108286
:103A800085ED8093BC008091BC0084FDFCCF10923A
:103A90001D0760918907E0912307F091240789E6CB
:103AA00097E070E00995109289072DC084E080931B
:103AB0001D071092670710926807E0912107F091A7
:103AC0002207099580916807882329F481E0809373
:103AD00068071092470790916707E92FF0E0E95BCC
:103AE000F84F80818093BB009F5F90936707909110
:103AF000670780916807981710F485EC01C085E886
:103B00008093BC000FC085EC8093BC0009C010926C
:103B10008A0785ED8093BC008091BC0084FDFCCFBA
:103B200010921D07FF91EF91BF91AF919F918F91DF
:103B30007F916F915F914F913F912F910F900FBEA9
:103B40000F901F90189510921D0781E080931F071A
:103B50001092200782E161E00E941A1F83E161E078
:103B60000E941A1FE9EBF0E080818E7F80838081C4
:103B70008D7F808388E48093B80085E48093BC00C7
:103B800008951F920F920FB60F9211242F933F9317
:103B90008F939F93AF93BF9380918F0790919007DE
:103BA000A0919107B0919207309193070196A11DC2
:103BB000B11D232F2D5F2D3720F02D570196A11D0C
:103BC000B11D2093930780938F0790939007A09344
:103BD0009107B093920780918B0790918C07A091E9
:103BE0008D07B0918E070196A11DB11D80938B07A3
:103BF00090938C07A0938D07B0938E07BF91AF91E0
:103C00009F918F913F912F910F900FBE0F901F901A
:103C100018958FB7F89420918F07309190074091B5
:103C20009107509192078FBFB901CA0108959FB7BC
:103C3000F89420918B0730918C0740918D0750911B
:103C40008E0786B5A89B06C08F3F21F02F5F3F4FA0
:103C50004F4F5F4F9FBF542F432F322F2227280FE4
:103C6000311D411D511D82E0220F331F441F551F7E
:103C70008A95D1F7B901CA0108959B01AC017FB7BC
:103C8000F89480918B0790918C07A0918D07B0914B
:103C90008E0766B5A89B05C06F3F19F00196A11D60
:103CA000B11D7FBFBA2FA92F982F8827860F911D8E
:103CB000A11DB11D62E0880F991FAA1FBB1F6A9545
:103CC000D1F7BC012DC0FFB7F89480918B0790917C
:103CD0008C07A0918D07B0918E07E6B5A89B05C013
:103CE000EF3F19F00196A11DB11DFFBFBA2FA92FFB
:103CF000982F88278E0F911DA11DB11DE2E0880F1E
:103D0000991FAA1FBB1FEA95D1F7861B970B885EE8
:103D10009340C8F2215030404040504068517C4FA1
:103D2000211531054105510571F60895019739F0C6
:103D3000880F991F880F991F02970197F1F708952F
:103D4000789484B5826084BD84B5816084BD85B576
:103D5000826085BD85B5816085BDEEE6F0E080813D
:103D600081608083E1E8F0E010828081826080835E
:103D7000808181608083E0E8F0E0808181608083E1
:103D8000E1EBF0E0808184608083E0EBF0E0808113
:103D900081608083EAE7F0E08081846080838081B5
:103DA000826080838081816080838081806880835D
:103DB0001092C1000895CF93DF93482F50E0CA01BD
:103DC00088539F4FFC0134914C545F4FFA0184910A
:103DD000882369F190E0880F991FFC01EA56FF4F94
:103DE000A591B491FC01E056FF4FC591D491662393
:103DF00051F42FB7F8948C91932F909589238C933D
:103E0000888189230BC0623061F42FB7F8948C91BC
:103E1000932F909589238C938881832B88832FBF40
:103E200006C09FB7F8948C91832B8C939FBFDF9132
:103E3000CF910895482F50E0CA0184529F4FFC0152
:103E40002491CA0188539F4FFC0194914C545F4FB9
:103E5000FA013491332309F440C0222351F1233075
:103E600071F0243028F42130A1F0223011F514C073
:103E70002630B1F02730C1F02430D9F404C080914D
:103E800080008F7703C0809180008F7D80938000B9
:103E900010C084B58F7702C084B58F7D84BD09C002
:103EA0008091B0008F7703C08091B0008F7D8093A8
:103EB000B000E32FF0E0EE0FFF1FE056FF4FA5919B
:103EC000B4912FB7F894662321F48C9190958923AF
:103ED00002C08C91892B8C932FBF0895682F70E0BE
:103EE000CB0184529F4FFC012491CB0188539F4FFB
:103EF000FC0144916C547F4FFB019491992319F478
:103F000020E030E03CC0222351F1233071F0243016
:103F100028F42130A1F0223011F514C02630B1F080
:103F20002730C1F02430D9F404C0809180008F770D
:103F300003C0809180008F7D8093800010C084B585
:103F40008F7702C084B58F7D84BD09C08091B00099
:103F50008F7703C08091B0008F7D8093B000892F50
:103F600090E0880F991F86559F4FFC01A591B49151
:103F70008C9120E030E0842311F021E030E0C90191
:103F800008958F929F92AF92BF92CF92DF92EF925D
:103F9000FF920F931F93CF93DF93A82FB0E0CD0133
:103FA00088539F4FFC018490AC54BF4FFD01849116
:103FB000662311F4992401C0982C6FEFA62E6FEFA1
:103FC000B62E6FEFC62E6FE0D62EA222B322C422E9
:103FD000D522682F70E0660F771F66557F4FEE245D
:103FE000FF248701FB01A591B4910BC0EA14FB04E7
:103FF0000C051D0509F44EC00894E11CF11C011DBF
:10400000111D8C918821891589F30CC0EA14FB04D9
:104010000C051D0509F43EC00894E11CF11C011DAE
:10402000111D03C0FB01A591B4918C9188218915C4
:1040300069F720E030E040E050E0FB01C591D49109
:104040000FC0DA01C9018E0D9F1DA01FB11F8A1577
:104050009B05AC05BD05F1F02F5F3F4F4F4F5F4F04
:1040600088818821891569F3CA01B90125E130E009
:1040700040E050E00E943C249B01AC01205F3F4F98
:104080004F4F5F4F84E056954795379527958A9512
:10409000D1F704C020E030E040E050E0B901CA01AF
:1040A000DF91CF911F910F91FF90EF90DF90CF9014
:1040B000BF90AF909F908F90089508951F920F9298
:1040C0000FB60F9211242F933F934F938F939F938B
:1040D000EF93FF938091C00082FD1DC04091C60008
:1040E0002091D4073091D5072F5F3F4F2F73307049
:1040F0008091D6079091D7072817390771F0E09182
:10410000D407F091D507EC56F84F40833093D5078C
:104110002093D40702C08091C600FF91EF919F9138
:104120008F914F913F912F910F900FBE0F901F9045
:104130001895E0912808F0912908E05CFF4F8191E3
:10414000919120813181821B930B8F739070892B09
:1041500011F00E945D2008951F920F920FB60F92EA
:1041600011242F933F938F939F93EF93FF9320916D
:1041700018083091190880911A0890911B08281787
:10418000390731F48091C1008F7D8093C10014C044
:10419000E0911A08F0911B08E852F84F20818091B5
:1041A0001A0890911B0801968F73907090931B08CA
:1041B00080931A082093C600FF91EF919F918F91F1
:1041C0003F912F910F900FBE0F901F901895AF92B7
:1041D000BF92DF92EF92FF920F931F93CF93DF93E3
:1041E000EC017A018B01DD24403081EE580780E03C
:1041F000680780E0780711F0DD24D39491E0A92EC0
:10420000B12CEC89FD89DD2069F0C50108A002C050
:10421000880F991F0A94E2F7808360E079E08DE3CC
:1042200090E005C0108260E874E88EE190E0A8019B
:1042300097010E946F2421503040404050405695D5
:1042400047953795279580E12030380720F0DD200D
:1042500011F0DD24D6CFE889F9893083EA89FB891A
:10426000208319A2EE89FF89408121E030E0C90155
:104270000C8C02C0880F991F0A94E2F7482B4083E8
:10428000EE89FF894081C9010D8C02C0880F991FFA
:104290000A94E2F7482B4083EE89FF894081C901E7
:1042A0000E8C02C0880F991F0A94E2F7482B4083B6
:1042B000EE89FF8980810F8C02C0220F331F0A9480
:1042C000E2F7209528232083DF91CF911F910F9152
:1042D000FF90EF90DF90BF90AF900895DC011C96A7
:1042E000ED91FC911D97E05CFF4F21913191808110
:1042F0009181281B390B2F733070C9010895DC019F
:104300001C96ED91FC911D97E05CFF4F208131815F
:10431000E054F040DF01AE5BBF4F8D919C9111974F
:104320002817390719F42FEF3FEF07C08D919C91A3
:10433000E80FF91F8081282F30E0C9010895DC01C2
:104340001C96ED91FC911D97E05CFF4F208131811F
:10435000E054F040DF01AE5BBF4F8D919C9111970F
:104360002817390719F42FEF3FEF10C08D919C915A
:104370001197E80FF91F20818D919C91119701965B
:104380008F73907011969C938E9330E0C9010895BD
:10439000DC0191968C919197882339F05496ED9198
:1043A000FC915597808186FFF9CF91961C920895D4
:1043B000CF93DF93EC01EE85FF85E05CFF4F20811A
:1043C0003181E054F0402F5F3F4F2F733070DF0199
:1043D000AE5BBF4F8D919C91119728173907D1F390
:1043E000E05CFF4F80819181E054F040E80FF91FBD
:1043F0006083EE85FF85E05CFF4F31832083EE898B
:10440000FF89208181E090E00F8C02C0880F991F06
:104410000A94E2F7282B208381E089A3EC89FD89A7
:1044200080818064808381E090E0DF91CF91089566
:1044300010921F0810921E0888EE93E0A0E0B0E0F2
:104440008093200890932108A0932208B09323081A
:104450008CEB91E090931D0880931C0884E997E011
:10446000909329088093280888ED97E090932B0873
:1044700080932A0885EC90E090932D0880932C0877
:1044800084EC90E090932F0880932E0880EC90E0CD
:10449000909331088093300881EC90E0909333083A
:1044A0008093320882EC90E0909335088093340832
:1044B00086EC90E0909337088093360884E08093F0
:1044C000380883E08093390887E080933A0885E0D4
:1044D00080933B0881E080933C080895CF93DF935D
:1044E0000E94A01E0E946B1AC9E9D0E20E94581ACD
:1044F0002097E1F30E949920F9CFCF92DF92EF92BB
:10450000FF920F931F93CF93DF937C016B018A017E
:10451000C0E0D0E00FC0D6016D916D01D701ED91E3
:10452000FC910190F081E02DC7010995C80FD91FBA
:10453000015010400115110571F7CE01DF91CF91A7
:104540001F910F91FF90EF90DF90CF900895EF9221
:10455000FF920F931F938C01DC01ED91FC91019070
:10456000F081E02D6DE009957C01D801ED91FC9181
:104570000190F081E02DC8016AE009959C012E0DA3
:104580003F1DC9011F910F91FF90EF900895CF93A8
:10459000DF93EC016115710519F420E030E00FC0E4
:1045A000DB010D900020E9F71197A61BB70BE881FE
:1045B000F9810280F381E02DAD0109959C01C901CB
:1045C000DF91CF9108954F925F927F928F929F9249
:1045D000AF92BF92CF92DF92EF92FF920F931F9311
:1045E000DF93CF93CDB7DEB7A1970FB6F894DEBFB8
:1045F0000FBECDBF2C01742ECB01223008F42AE06F
:1046000019A231E2C32ED12CCC0EDD1E822E9924AC
:10461000AA24BB24672D752FA50194010E946F2445
:1046200079018A01C801B701A50194010E943C24C7
:10463000472D461B0894C108D1084A3014F4405D48
:1046400001C0495CF6014083E114F1040105110544
:1046500021F07E2C5F2DC801DDCFC201B6010E9482
:10466000C722A1960FB6F894DEBF0FBECDBFCF9183
:10467000DF911F910F91FF90EF90DF90CF90BF904F
:10468000AF909F908F907F905F904F900895DC0146
:104690002115310541F4ED91FC910190F081E02D5F
:1046A000642F099508950E94E3220895EF92FF92E6
:1046B0000F931F939A017B0100E010E0B801A7015E
:1046C0000E9447231F910F91FF90EF900895CF9282
:1046D000DF92EF92FF920F931F936C017B019A017F
:1046E00000E010E0B801A7010E9447238C01C60139
:1046F0000E94A722080F191FC8011F910F91FF9058
:10470000EF90DF90CF900895EF92FF920F931F9359
:104710009A01E62EFF2400E010E0B801A7010E94F4
:1047200047231F910F91FF90EF900895CF92DF9252
:10473000EF92FF920F931F936C01E62E9A01FF24D4
:1047400000E010E0B801A7010E9447238C01C601D8
:104750000E94A722080F191FC8011F910F91FF90F7
:10476000EF90DF90CF900895CF92DF92EF92FF927B
:104770000F931F93CF93DF93EC016A017B01211507
:10478000310541F4E881F9810190F081E02D642F39
:1047900009951FC02A303105D1F477FF17C0E88191
:1047A000F9810190F081E02D6DE209958C0144279B
:1047B0005527BA014C195D096E097F09CE012AE01F
:1047C0000E94E3229801280F391F04C02AE00E94AA
:1047D000E3229C01C901DF91CF911F910F91FF90BE
:1047E000EF90DF90CF900895EF92FF920F931F9379
:1047F0007B019A010027F7FC0095102FB801A70153
:104800000E94B4231F910F91FF90EF900895CF92D3
:10481000DF92EF92FF920F931F936C017B019A013D
:104820000027F7FC0095102FB801A7010E94B423C0
:104830008C01C6010E94A722080F191FC8011F91F1
:104840000F91FF90EF90DF90CF9008950E94C722C4
:104850000895EF92FF920F931F937C010E94C7224D
:104860008C01C7010E94A722080F191FC8011F91C0
:104870000F91FF90EF900895629FD001739FF00118
:10488000829FE00DF11D649FE00DF11D929FF00DE0
:10489000839FF00D749FF00D659FF00D9927729F17
:1048A000B00DE11DF91F639FB00DE11DF91FBD01A2
:1048B000CF0111240895AA1BBB1B51E107C0AA1FF9
:1048C000BB1FA617B70710F0A61BB70B881F991FB1
:1048D0005A95A9F780959095BC01CD010895A1E264
:1048E0001A2EAA1BBB1BFD010DC0AA1FBB1FEE1F6A
:1048F000FF1FA217B307E407F50720F0A21BB30BB5
:10490000E40BF50B661F771F881F991F1A9469F730
:1049100060957095809590959B01AC01BD01CF018C
:104920000895EE0FFF1F0590F491E02D0994F8947F
:02493000FFCFB7
:10493200453B002C00563B003B00573B004F3B00E1
:104942004B3B00503B004C3B00523B00543B00476A
:104952003B00493B00443B3100463B3100473B3181
:1049620000473B3000483B3100493B3100493B3076
:10497200004A3B31004A3B30004B3B31004B3B305D
:10498200004C3B31004C3B30004D3B31004D3B3045
:10499200004E3B31004F3B31004F3B3000503B312A
:1049A20000503B3000523B3100523B3000533B0041
:1049B2005300533B3000543B3100543B3000550010
:1049C20053747261746F536E61707065722032201D
:1049D200496E69742E00680000000000F61AC51ABC
:1049E2007E1A871A9C1AAD1A00000000D8217D2277
:0849F2006E219F217F21C821E5
:00000001FF
