:100000000C947A000C94A2000C94A2000C946F043F
:100010000C94A2000C94AB020C94A2000C940A0263
:100020000C94A2000C94A2000C94A2000C94A200C8
:100030000C94A2000C94A2000C94A2000C94A200B8
:100040000C94281F0C94A2000C94C5210C9413222C
:100050000C94A2000C94A2000C94A2000C94A20098
:100060000C94791D0C94A200CF0E681170117A11B6
:100070003C1258126C138813BA135B146E14891453
:10008000B214401ADE148816DB16401AC1183C1947
:100090007F19FE193B1A00000000240027002A00E7
:1000A00000000000250028002B00000000002300B5
:1000B00026002900040404040404040402020202C9
:1000C000020203030303030301020408102040801B
:1000D000010204081020010204081020000000079B
:1000E0000002010000030406000000000000000000
:1000F000151C7F2311241FBECFEFD8E0DEBFCDBF7C
:1001000011E0A0E0B1E0E0E0FCE402C005900D9257
:10011000A63CB107D9F718E0A6ECB1E001C01D92EA
:10012000AE33B107E1F710E0C4EFD0E004C022978E
:10013000FE010E94FA25C03FD107C9F70E94D523CE
:100140000C94FE250C9400008091A006482F50E0EE
:10015000E9EAF6E020E030E061E0CA01022E02C0E8
:10016000959587950A94E2F780FD02C0108201C040
:1001700060832F5F3F4F31972830310571F78091B1
:10018000A106482F50E0E1EBF6E020E030E061E02E
:10019000CA01022E02C0959587950A94E2F780FD68
:1001A00002C0108201C060832F5F3F4F319728301B
:1001B000310571F7089582E080932A0280932B0223
:1001C00010922906E6ECF1E010821182329632E0BC
:1001D000EA32F307C9F788EE93E0909328068093FC
:1001E000270686E290E090932D0280932C028FEFF9
:1001F00080932E021092300210922F021092C103AF
:1002000081E08093C203E1E3F2E011821082138265
:100210001282349683E0E13CF807B9F7E3ECF3E0AF
:1002200021E082E390E010822183938382833496DD
:1002300033E0E33EF307B9F7E7E4F4E0108212821B
:1002400011821482138216821582108617821286FA
:10025000118613863C9686E0E732F80779F7E3EEDD
:10026000F3E01082128211821382148216821582A8
:100270001782108611863A9634E0E734F30789F73F
:1002800008958AE061E00E944220089584E062E0DF
:100290000E94422085E062E00E94422082E062E00B
:1002A0000E94422083E062E00E9442201092B30646
:1002B0001092B2061092B5061092B4061092B706CC
:1002C0001092B6061092B9061092B806E8E6F0E071
:1002D000808184608083EDE6F0E0808184608083AB
:1002E000808188608083808180618083808180625A
:1002F0008083089589E060E00E94422085E0809339
:1003000094060895CF92DF92EF92FF921F93182FD9
:100310006A017B018AE061E00E948120812F815087
:10032000833008F040C0143099F1153038F41230A1
:10033000A9F01330E0F41130B1F507C0163061F1C7
:10034000163040F1173079F52AC08EE061E00E9446
:100350008120C701B6010E94A41F1AC08FE061E08E
:100360000E948120C701B6010E94A41F15C08EE023
:1003700061E00E9481208FE061E00E948120C7013E
:10038000B6010E94A41F8EE060E00E94812004C09C
:100390008EE003C08EE004C08FE060E002C08FE01A
:1003A00061E00E9481208AE060E00E9481201F912C
:1003B000FF90EF90DF90CF9008958EE061E00E9473
:1003C00042208FE061E00E9442208EE060E00E94C7
:1003D00081208FE060E00E948120089587E062E044
:1003E0000E94422088E061E00E94422088E060E0B4
:1003F0000E94812068E873E180E090E00E94A41FE1
:100400008091A4019091A50108979093A5018093F4
:10041000A40108951F920F920FB60F9211242F93EB
:100420003F934F935F936F937F938F939F93AF937C
:10043000BF93EF93FF93F89480919706909198065D
:100440000197A1F586E0609199060E94812020E045
:1004500030E08091990690919A06892B11F421E061
:1004600030E030939A062093990680919B069091F4
:100470009C06019790939C0680939B06892B09F01C
:100480004FC0109298061092970681E090E09093EA
:100490009A0680939906E0919506F0919606EE0FE4
:1004A000FF1FEE0FFF1FE05DFD4F34C086E060E0F0
:1004B0000E94812080919B0690919C0601979093C9
:1004C0009C0680939B06892B59F5E0919506F09147
:1004D00096063196F0939606E093950680912F024A
:1004E00090913002E817F90728F010929F061092B9
:1004F000700016C081E090E0909398068093970674
:1005000090939A0680939906EE0FFF1FEE0FFF1F40
:10051000E25DFD4F8381948190939C0680939B06BE
:100520007894FF91EF91BF91AF919F918F917F91BF
:100530006F915F914F913F912F910F900FBE0F9050
:100540001F90189586E061E00E94422086E060E0FE
:100550000E94812008951F920F920FB60F921124CE
:100560001F932F933F934F935F936F937F938F933B
:100570009F93AF93BF93CF93DF93EF93FF93F89441
:100580000E947E1F9B01AC0119B1E12FF0E0809128
:10059000CA06682F70E06E277F2764FF25C014FF0E
:1005A00009C02093BA063093BB064093BC06509313
:1005B000BD061AC08091BA069091BB06A091BC06F8
:1005C000B091BD06281739074A075B0728F0E901F3
:1005D000C81BD90BCE0104C080959095820F931F44
:1005E0009093B3068093B20665FF2DC0E5FF09C066
:1005F0002093BE063093BF064093C0065093C106B9
:1006000022C08091BA069091BB06A091BC06B09121
:10061000BD06281739074A075B0748F08091BE06D8
:100620009091BF06D901A81BB90BCD0108C08091DC
:10063000BE069091BF0680959095820F931F909370
:10064000B5068093B40662FF25C0E2FF09C020937F
:10065000C2063093C3064093C4065093C5061AC021
:100660008091C2069091C306A091C406B091C506C0
:10067000281739074A075B0728F0E901C81BD90B7F
:10068000CE0104C080959095820F931F9093B7067A
:100690008093B60663FF25C0E3FF09C02093C6061A
:1006A0003093C7064093C8065093C9061AC080917C
:1006B000C6069091C706A091C806B091C906281732
:1006C00039074A075B0728F0B901681B790BCB0192
:1006D00004C080959095820F931F9093B9068093E4
:1006E000B8061093CA0689B1181709F049CF789453
:1006F000FF91EF91DF91CF91BF91AF919F918F913A
:100700007F916F915F914F913F912F911F910F902A
:100710000FBE0F901F901895EF92FF920F931F93AB
:10072000809194068230B1F5E0909006F0909106A9
:10073000009192061091930680E89DE8ABE5B0E049
:10074000E80EF91E0A1F1B1F0E947E1FE616F70601
:1007500008071907F8F484E080939406E0912F02CB
:10076000F0913002EE0FFF1FEE0FFF1FE05DFD4F17
:100770008EEF9FEF94838383809168008E7F8093B8
:10078000680080916B008D7F80936B008AE060E051
:100790000E94812080919406833009F054C0E0903B
:1007A0009006F090910600919206109193068FEFBB
:1007B0009FEFA0E0B0E0E80EF91E0A1F1B1F0E9489
:1007C0007E1FE616F70608071907E8F584E0809310
:1007D000940640912F0250913002FA01EE0FFF1F54
:1007E000EE0FFF1FE05DFD4F8FEF9FEF948383833C
:1007F0009A012F5F3F4F3093300220932F02809158
:100800002E02E82FF0E0EE0FFF1FEE0FFF1FED535B
:10081000FC4F80818F5F808381502436310528F022
:100820005093300240932F028083809168008E7F26
:100830008093680080916B008D7F80936B008AE0CD
:1008400060E00E94812080919406843019F485E054
:10085000809394061F910F91FF90EF9008951F933E
:10086000182F8AE061E00E94812010932E021092DE
:10087000300210922F021092C1031092C203E12F96
:10088000F0E0EE0FFF1FEE0FFF1FED53FC4F108245
:10089000E1E3F2E01182108213821282349683E047
:1008A000E13CF807B9F782E0809394060E947E1F2E
:1008B00060939006709391068093920690939306AE
:1008C0008FEF80938F06809168008160809368002D
:1008D00080916B00826080936B001F9108951F923E
:1008E0000F920FB60F921124BF92CF92DF92EF9228
:1008F000FF920F931F932F933F934F935F936F93A9
:100900007F938F939F93AF93BF93CF93DF93EF9397
:10091000FF93F89454E0B52ECCEFDFEF43E0C42E04
:100920000E947E1F7B018C01D3B0209190063091F4
:10093000910640919206509193066D2D70E0809142
:100940008F0690E08627972781FF7CC080919406D0
:10095000823019F4C092940669C0833009F06AC0ED
:10096000D801C701821B930BA40BB50B8E3F2FEF51
:10097000920720E0A20720E0B20720F08DEF9FEF62
:10098000A0E0B0E0E0912F02F091300261FF0BC0D7
:10099000EE0FFF1FEE0FFF1FE25DFD4F9483838379
:1009A0008AE061E045C0EE0FFF1FEE0FFF1FE05D24
:1009B000FD4F948383838AE060E00E948120A091B0
:1009C0002F02B09130029D012F5F3F4F30933002D4
:1009D00020932F0280912E02E82FF0E0EE0FFF1FF0
:1009E000EE0FFF1FED53FC4F80818F5F808381509E
:1009F00024363105F8F0B0933002A0932F028083A3
:100A0000B0929406AA0FBB1FAA0FBB1FA05DBD4FDB
:100A10001496DC93CE931397809168008E7F809319
:100A2000680080916B008D7F80936B008AE060E0AE
:100A30000E948120E0929006F09291060093920627
:100A400010939306D0928F0683B1D81609F068CF21
:100A50007894FF91EF91DF91CF91BF91AF919F91EA
:100A60008F917F916F915F914F913F912F911F9146
:100A70000F91FF90EF90DF90CF90BF900F900FBE3F
:100A80000F901F901895EF92FF920F931F93CF93A3
:100A9000DF937C0100E010E087E061E020E432E4D5
:100AA0004FE050E00E9428216858734180409040F8
:100AB00098F38091A4019091A5010E94FD1FC7E0C9
:100AC000D0E0F701EC0FFD1F88E060810E948120DB
:100AD0008091A4019091A5010E94FD1F21978FEFA5
:100AE000CF3FD80771F788E060E00E9481208AE05C
:100AF00090E00E94FD1F87E00E94D520892BD9F746
:100B00008091A4019091A5010E94FD1FCFE0D0E04B
:100B1000F701EC0FFD1F88E060810E948120809129
:100B2000A4019091A5010E94FD1F2197C730D10516
:100B300079F788E060E00E9481200F5F1F4F053049
:100B4000110509F0A9CFDF91CF911F910F91FF906F
:100B5000EF9008958093A0066093A1060E94A400E0
:100B600082EA96E00E94430508951F93182F8AE0B9
:100B700061E00E948120E12FF0E0EE0FFF1FEC53B7
:100B8000FE4F808161810E94AA058AE060E00E9498
:100B900081201F91089581E197E00E94B51C109279
:100BA0007A0610927C0610927B0610927E061092B6
:100BB0007D06EFE7F6E0119286E0EF38F807D9F707
:100BC00008950F931F93CF93DF9300E010E081E12E
:100BD00097E060E570E00E94DB1BB80160707F77F2
:100BE000672F770F770B81E197E00E945D1CB801BA
:100BF000707081E197E00E945D1CC0E0D0E081E16F
:100C000097E06FEF0E945D1C2196C031D105B9F7C6
:100C100081E197E00E94A01C6AE070E080E090E033
:100C20000E94A41F005F1F4F80E10030180779F673
:100C3000DF91CF911F910F910895DF92EF92FF9274
:100C40000F931F93CF93DF93E82F80912E02E81725
:100C500029F48091C103813009F092C0E0932E0203
:100C6000F0E0EE0FFF1FEE0FFF1FED53FC4F8081F2
:100C700080932F02109230021092C10381E0809382
:100C8000C203C1E3D2E0EE24FF24B4E6DB2E81E10F
:100C900097E060E570E00E94DB1B20912E022D9D05
:100CA0009001112421553F4F2E0D3F1D220F331F60
:100CB000220F331F20703F7781E197E0632F0E945E
:100CC0005D1C60912E026D9DB001112461557F4F16
:100CD0006E0D7F1D660F771F660F771F707081E1A5
:100CE00097E00E945D1C81E197E00E94A01C81E1D9
:100CF00097E060E570E044E050E00E94B11C81E1C3
:100D000097E00E94E51B892B31F081E197E00E947A
:100D1000EE1B1882898381E197E00E94E51B892BF5
:100D200051F00881198181E197E00E94EE1B080FC4
:100D3000191F1983088381E197E00E94E51B892B25
:100D400031F081E197E00E94EE1B1A828B8381E1F2
:100D500097E00E94E51B892B51F00A811B8181E1FC
:100D600097E00E94EE1B080F191F1B830A8308944B
:100D7000E11CF11C249684E6E816F10409F087CF03
:100D8000DF91CF911F910F91FF90EF90DF90089529
:100D9000EF92FF920F931F93CF93DF93C3ECD3E0B7
:100DA0000CE9E02E02E0F02E81E197E060E570E0D2
:100DB0000E94DB1B970120703F7781E197E0632F52
:100DC0000E945D1CB701707081E197E00E945D1C7C
:100DD00081E197E00E94A01C81E197E060E570E06E
:100DE00044E050E00E94B11C81E197E00E94E51BC5
:100DF000892B29F081E197E00E94EE1B888381E135
:100E000097E00E94E51B892B29F081E197E00E9481
:100E1000EE1B898381E197E00E94E51B892B31F06D
:100E200081E197E00E94EE1B1A828B8381E197E0BB
:100E30000E94E51B892B51F00A811B8181E197E01B
:100E40000E94EE1B080F191F1B830A8384E090E0A9
:100E5000E80EF91E24969CEBE91692E0F90609F0DB
:100E6000A3CFDF91CF911F910F91FF90EF90089545
:100E7000EF92FF920F931F93CF93DF93C7E4D4E0D9
:100E80008CEBE82EF12C81E197E060E570E00E94A8
:100E9000DB1B970120703F7781E197E0632F0E9471
:100EA0005D1CB701707081E197E00E945D1C81E1DB
:100EB00097E00E94A01C6AE070E080E090E00E9451
:100EC000A41F81E197E060E570E04CE050E00E94F3
:100ED000B11C81E197E00E94E51B892B29F081E19B
:100EE00097E00E94EE1B888381E197E00E94E51B5A
:100EF000892B31F081E197E00E94EE1B19828A83F1
:100F000081E197E00E94E51B892B51F009811A814C
:100F100081E197E00E94EE1B080F191F1A830983D5
:100F200081E197E00E94E51B892B31F081E197E098
:100F30000E94EE1B1B828C8381E197E00E94E51BDF
:100F4000892B51F00B811C8181E197E00E94EE1BFF
:100F5000080F191F1C830B8381E197E00E94E51B9A
:100F6000892B31F081E197E00E94EE1B1D828E8378
:100F700081E197E00E94E51B892B51F00D811E81D4
:100F800081E197E00E94EE1B080F191F1E830D835D
:100F900081E197E00E94E51B892B31F081E197E028
:100FA0000E94EE1B1F82888781E197E00E94E51B6B
:100FB000892B51F00F81188581E197E00E94EE1B8B
:100FC000080F191F18870F8381E197E00E94E51B26
:100FD000892B31F081E197E00E94EE1B19868A8708
:100FE00081E197E00E94E51B892B51F009851A8564
:100FF00081E197E00E94EE1B080F191F1A870987ED
:1010000081E197E00E94E51B892B29F081E197E0BF
:101010000E94EE1B8B876AE070E080E090E00E9407
:10102000A41F8CE090E0E80EF91E2C969CE9E916CE
:1010300092E0F90609F027CFDF91CF911F910F9130
:10104000FF90EF900895EF92FF920F931F93CF932D
:10105000DF93C3EED3E09CE6E92EF12C81E197E02B
:1010600060E570E00E94DB1B970120703F7781E113
:1010700097E0632F0E945D1CB701707081E197E0DB
:101080000E945D1C81E197E00E94A01C81E197E035
:1010900060E570E048E050E00E94B11C81E197E01B
:1010A0000E94E51B892B29F081E197E00E94EE1B4D
:1010B000888381E197E00E94E51B892B31F081E173
:1010C00097E00E94EE1B19828A8381E197E00E94DB
:1010D000E51B892B51F009811A8181E197E00E947B
:1010E000EE1B080F191F1A83098381E197E00E9404
:1010F000E51B892B29F081E197E00E94EE1B8B8391
:1011000081E197E00E94E51B892B29F081E197E0BE
:101110000E94EE1B8C8381E197E00E94E51B892BE6
:1011200031F081E197E00E94EE1B1D828E8381E108
:1011300097E00E94E51B892B51F00D811E8181E112
:1011400097E00E94EE1B080F191F1E830D8381E19B
:1011500097E00E94E51B892B29F081E197E00E942E
:10116000EE1B8F8388E090E0E80EF91E2A969CEB38
:10117000E916F10409F072CFDF91CF911F910F9121
:10118000FF90EF9008950F931F93CF93DF9306EC9A
:1011900011E0C8E0D0E081E197E060E570E00E94F6
:1011A000DB1BBE0160707F77672F770F770B81E1C4
:1011B00097E00E945D1CBE01707081E197E00E9483
:1011C0005D1C81E197E00E94A01C81E197E060E551
:1011D00070E042E050E00E94B11C81E197E00E9483
:1011E000E51B892B31F081E197E00E94EE1BF801AD
:1011F000808381E197E00E94E51B892B31F081E13A
:1012000097E00E94EE1BF801818322960E5F1F4F2C
:10121000CC36D10509F0BFCFDF91CF911F910F914F
:1012200008950F931F9381E197E060E570E00E94BD
:10123000DB1B81E197E060E00E945D1C81E197E0AB
:1012400066E00E945D1C81E197E00E94A01C81E1A4
:1012500097E060E570E042E050E00E94B11C81E15F
:1012600097E00E94E51B892B41F081E197E00E9405
:10127000EE1B109227068093280681E197E00E94DA
:10128000E51B892B71F0009127061091280681E15A
:1012900097E00E94EE1B080F191F10932806009379
:1012A00027061F910F9108950F931F9381E197E0F7
:1012B00060E570E00E94DB1B81E197E060E00E9446
:1012C0005D1C81E197E064E00E945D1C81E197E094
:1012D0000E94A01C81E197E060E570E042E050E0F0
:1012E0000E94B11C81E197E00E94E51B892B41F02F
:1012F00081E197E00E94EE1B10922C0280932D0258
:1013000081E197E00E94E51B892B71F000912C028E
:1013100010912D0281E197E00E94EE1B080F191F2A
:1013200010932D0200932C021F910F91089581E1DB
:1013300097E060E570E00E94DB1B81E197E060E0F0
:101340000E945D1C81E197E062E00E945D1C81E1EA
:1013500097E00E94A01C81E197E060E570E041E029
:1013600050E00E94B11C81E197E00E94E51B892BAF
:1013700041F081E197E00E94EE1B80932A02809366
:101380002B0208950F931F93CF93DF938C0181E17C
:1013900097E060E570E00E94DB1B980120703F77CA
:1013A00081E197E0632F0E945D1CB801707081E1BC
:1013B00097E00E945D1C81E197E00E94A01C6AE01A
:1013C00070E080E090E00E94A41F81E197E060E57A
:1013D00070E040E150E00E94B11C8CE198E060E0D8
:1013E00071E00E948D258CE198E0B8014AE050E060
:1013F0000E94BD248CE198E063E071E00E948D259D
:10140000C0E0D0E081E197E00E94E51B892B89F0E4
:1014100081E197E00E94EE1BBC018CE198E04AE07C
:1014200050E00E945B258CE198E063E071E00E944F
:101430008D252196C031D10529F78CE198E00E94D5
:101440000E246AE070E080E090E00E94A41FDF912B
:10145000CF911F910F910895CF93DF9381E197E092
:1014600060E570E00E94DB1B20917B0630917C06DA
:1014700020703F7781E197E0632F0E945D1C6091AF
:101480007B0670917C06707081E197E00E945D1C84
:10149000CFE7D6E081E197E069910E945D1C86E08C
:1014A000CF38D807B9F781E197E00E94A01C6EE120
:1014B00070E080E090E00E94A41FDF91CF9108953A
:1014C00080917A06813061F48AE061E00E94812097
:1014D0000E942C0A10927A068AE060E00E94812025
:1014E0000895FF920F931F93CF93DF938C01F62EF5
:1014F000EC01C07F80917B0690917C06C817D907CC
:1015000011F00E94600A80917A06882309F03FC09A
:10151000D0937C06C0937B0681E080937A0681E1BC
:1015200097E060E570E00E94DB1B20917B06309124
:101530007C0620703F7781E197E0632F0E945D1C5D
:1015400060917B0670917C06707081E197E00E944B
:101550005D1C81E197E00E94A01C81E197E060E5BD
:1015600070E040E150E00E94B11CCFE7D6E081E19D
:1015700097E00E94E51B892B29F081E197E00E940A
:10158000EE1B8883219686E0CF38D80781F7F801D3
:10159000EF70F070E158F94FF08210937E060093DF
:1015A0007D06DF91CF911F910F91FF90089582E00A
:1015B00090E060912A020E94710A0895682F80913C
:1015C0007D0690917E0601960E94710A08951F93F0
:1015D000182F892F0E94DE0A812F0E94DE0A1F9198
:1015E00008950F931F93CF93DF93C6ECD1E008E0EB
:1015F00010E0C80168810E94710A89810E94DE0A98
:1016000022960E5F1F4F82E0CA32D80791F7DF9112
:10161000CF911F910F9108950F931F93CF93DF9355
:10162000C3ECD3E00CE912E0C80168810E94710AA2
:1016300089810E94DE0A8A819B810E94E70A2496A2
:101640000C5F1F4F83E0C33ED80771F7DF91CF9146
:101650001F910F9108950F931F93CF93DF93C7E4CA
:10166000D4E00CEB10E0C80168810E94710A898106
:101670009A810E94E70A8B819C810E94E70A8D81F2
:101680009E810E94E70A8F8198850E94E70A8985DA
:101690009A850E94E70A8B850E94DE0A2C96045FD9
:1016A0001F4F86E0C732D807F1F6DF91CF911F9127
:1016B0000F9108950F931F93CF93DF93C3EED3E061
:1016C0000CE610E0C80168810E94710A89819A8144
:1016D0000E94E70A8B810E94DE0A8C810E94DE0A4A
:1016E0008D819E810E94E70A8F810E94DE0A2A96E0
:1016F000085F1F4F84E0C734D80721F7DF91CF91EF
:101700001F910F9108951F93162F672F0E94710A42
:10171000812F0E94DE0A1F910895FF920F931F935D
:10172000CF93DF938091C103882351F580912E02DE
:10173000883030F581E08093C20301E312E0C0E01D
:10174000D0E044E6F42E80912E028F9DC00111243A
:1017500081559F4F8C0F9D1FF80160817181880F0B
:10176000991F880F991F0E94830BF8018281938132
:101770000E94E70A21960C5F1F4FC436D10519F766
:10178000DF91CF911F910F91FF900895CF92DF923B
:10179000EF92FF920F931F93CF93DF93182FE82FB1
:1017A000F0E0EE0FFF1FEE0FFF1FED53FC4F8081A7
:1017B000882309F4EBC0183008F0E8C08091C20318
:1017C0008823A9F410927A0610927C0610927B0668
:1017D00010927E0610927D06EFE7F6E0119286E009
:1017E000EF38F807D9F70E948D0B0E94600A8091AC
:1017F0002E02181719F0812F0E941D0660912C02ED
:1018000070912D0280E49FE10E94C2258B017093AC
:101810009E0660939D068091C103882379F581E03F
:101820008093C103C1E3D2E06B01EE24FF24688101
:10183000798180E090E0E4E0660F771F881F991FB0
:10184000EA95D1F7A70196010E94D625398328830E
:101850006A817B8180E090E054E0660F771F881FEB
:10186000991F5A95D1F7A70196010E94D6253B836F
:101870002A83249683E0C13CD807C9F6F8941092D5
:10188000700017BA8091B6008F7D8093B60080916A
:10189000B10081608093B1008091B1008D7F809311
:1018A000B1008091B1008B7F8093B1008091B00036
:1018B0008E7F8093B0008091B00082608093B000F2
:1018C0008091B100877F8093B1008091B0008F77C5
:1018D0008093B0008091B0008F7B8093B0008091A6
:1018E000B0008F7D8093B0008091B0008F7E809398
:1018F000B0008091B1008F778093B1008091B100EA
:101900008F7B8093B1001092B200C8018E58904036
:101910008137910518F40093B30003C082ED8093E2
:10192000B3001092B4001092700017BA86E060E025
:101930000E948120109296061092950681E090E018
:10194000909398068093970690939A0680939906B1
:10195000809131029091320290939C0680939B0675
:1019600078948091700082608093700081E0809311
:101970009F0604C08AE061E00E94812080919F065A
:101980008130C1F38AE060E00E948120DF91CF9135
:101990001F910F91FF90EF90DF90CF900895EF92FD
:1019A000FF920F931F93CF93DF93F82E8091290618
:1019B000882309F040C00E94701F695E7340804018
:1019C0009040C8F180912A02813009F58F2D90E076
:1019D0000197880F991F880F991FFC01ED53FC4F49
:1019E0002181C22FD0E0EF2CEA948C010B531C4FC5
:1019F0000CC08E2D0E94C60B219739F0F801608132
:101A0000718180E090E00E94A41F209791F780915F
:101A10002A02823049F4409127065091280660E05E
:101A200070E08F2D0E94820180912A02833019F488
:101A30008F2D0E94B505DF91CF911F910F91FF90DF
:101A4000EF900895CF93DF93C7E4D4E08881982F77
:101A50009150943018F0EFEFFFEF09C0E82FF0E05D
:101A6000EE0FFF1FE055F94F0190F081E02D2B8123
:101A70003C81E217F307D0F0943018F0EFEFFFEF5E
:101A800009C0E82FF0E0EE0FFF1FE055F94F01907D
:101A9000F081E02D89819A818E179F0738F0892B7C
:101AA00029F0232B19F08B850E94CF0C2C9646E051
:101AB000C732D40759F6C3EED3E0E8818E2F8150A8
:101AC000843018F08FEF9FEF07C0F0E0EE0FFF1F9C
:101AD000E055F94F8081918129813A812817390792
:101AE00060F48B81813049F48885813031F4232B77
:101AF00021F08F810E94CF0C1886E8818E2F8150B3
:101B0000843018F08FEF9FEF07C0F0E0EE0FFF1F5B
:101B1000E055F94F8081918129813A81821793079D
:101B200060F48C81813049F48985813031F4232B34
:101B300021F08F810E94CF0C1986E8818E2F815071
:101B4000843018F0EFEFFFEF08C0F0E0EE0FFF1F5A
:101B5000E055F94F0190F081E02D29813A818D8186
:101B60009E81A901481B590BE417F50748F49B8196
:101B7000913031F48885882319F4232B09F0988754
:101B8000E8818E2F8150843018F0EFEFFFEF08C00E
:101B9000F0E0EE0FFF1FE055F94F0190F081E02DCE
:101BA00029813A818D819E81820F931F8E179F0715
:101BB00048F49C81913031F48985882319F4232BD2
:101BC00009F099872A9654E0C734D50709F075CFF4
:101BD000DF91CF910895609127067091280686E0E5
:101BE00090E00E94830B089560912C0270912D0269
:101BF00084E090E00E94830B089580E090E061E033
:101C000070E00E94830B089510927A0610927C0671
:101C100010927B0610927E0610927D06EFE7F6E0AA
:101C2000119286E0EF38F807D9F70E94FD0D0E9467
:101C3000D70A0E94F40D0E94EB0D0E94F10A0E9447
:101C40005A0B0E942B0B0E940C0B0E948D0B0E94C2
:101C5000600A0895CF93DF9381E197E060E570E03B
:101C60000E94DB1B81E197E060E00E945D1C81E146
:101C700097E060E00E945D1C81E197E00E94A01C5B
:101C800081E197E060E570E042E050E00E94B11C25
:101C900081E197E00E94E51B892B31F081E197E01B
:101CA0000E94EE1BD82FC0E081E197E00E94E51B67
:101CB000892B31F081E197E00E94EE1BC80FD91FFC
:101CC000219721F00E94DB000E94040EDF91CF914A
:101CD00008950E942A0E0E9497090E9454090E94AA
:101CE00011090E94C3080E9423080E9438070E941D
:101CF000C80608950F931F9381E080932A061092DF
:101D00002B0610922D0610922C061092430610926C
:101D1000420610927606109277061092780610927C
:101D20007906EEE2F6E01192119286E0E234F807CD
:101D3000D1F7E4E4F6E0119286E0E637F807D9F748
:101D40000CC000914206109143068CE198E00E947D
:101D500006230C5B194FF80180838CE198E00E9408
:101D6000D522181619066CF31F910F910895FF9252
:101D70000F931F93CF93DF9380912B0690E0FC018C
:101D8000E454F040E731F10510F00C94401AEC5C9B
:101D9000FF4FEE0FFF1F0590F491E02D09948CE1A9
:101DA00098E065E071E00E948D258CE198E063E0A9
:101DB00070E04AE050E00E945B258CE198E063E02F
:101DC00071E00E948D258CE198E061E070E04AE0CE
:101DD00050E00E945B258CE198E063E071E00E9496
:101DE0008D258CE198E061E070E04AE050E00E94CF
:101DF0005B258CE198E063E071E00E948D258CE129
:101E000098E06DED77E04AE050E00E945B258CE1C0
:101E100098E063E071E00E948D258CE198E066E037
:101E200070E04AE050E00E945B258CE198E063E0BE
:101E300071E00E948D258CE198E064E070E04AE05A
:101E400050E00E945B258CE198E063E071E00E9425
:101E50008D258CE198E060E170E04AE050E00E945E
:101E60005B258CE198E063E071E00E948D258CE1B8
:101E700098E064E070E04AE050E00E945B258CE16D
:101E800098E063E071E00E948D258CE198E061E0CC
:101E900070E04AE050E00E946E258CE198E068E036
:101EA00071E00E948D258CE198E068E270E04AE0E4
:101EB00050E00E945B258CE198E063E071E00E94B5
:101EC0008D258CE198E06AE070E04AE050E00E94E5
:101ED0005B258CE198E063E071E00E948D258CE148
:101EE00098E062E370E04AE050E00E945B258CE1FC
:101EF00098E063E071E00E948D258CE198E068E055
:101F000070E04AE050E00E945B258CE198E063E0DD
:101F100071E00E948D258CE198E064E670E04AE073
:101F200050E00E946E258CE198E06BE071E00E9429
:101F30008D258CE198E060912A024AE050E00E94F1
:101F4000FD248CE198E06EE071E00E948D256091A7
:101F50002C0270912D028CE198E04AE050E00E9442
:101F6000CE248CE198E061E171E00E948D256091C2
:101F70002706709128068CE198E04AE050E00E9424
:101F8000CE2406EC11E0C1E0D0E08CE198E064E101
:101F900071E00E948D258CE198E0BE014AE050E09E
:101FA0000E945B258CE198E063E071E00E948D2542
:101FB0008CE198E0F80160814AE050E00E94EB2457
:101FC0008CE198E063E071E00E948D258CE198E05F
:101FD000F80161814AE050E00E94FD2421960E5FE5
:101FE0001F4FC333D10589F6C7E4D4E001E010E008
:101FF0008CE198E067E171E00E948D258CE198E02A
:10200000B8014AE050E00E945B258CE198E063E073
:1020100071E00E948D258CE198E068814AE050E0F3
:102020000E94EB248CE198E063E071E00E948D2532
:1020300069817A818CE198E04AE050E00E94BD24F9
:102040008CE198E063E071E00E948D256B817C81DA
:102050008CE198E04AE050E00E94BD248CE198E0D9
:1020600063E071E00E948D256D817E818CE198E0B6
:102070004AE050E00E94BD248CE198E063E071E00A
:102080000E948D256F8178858CE198E04AE050E0D0
:102090000E94BD248CE198E063E071E00E948D25F0
:1020A00069857A858CE198E04AE050E00E94BD2481
:1020B0008CE198E063E071E00E948D258CE198E06E
:1020C0006B854AE050E00E94FD240F5F1F4F2C9665
:1020D0000932110509F08CCFC3EED3E001E010E026
:1020E0008CE198E06AE171E00E948D258CE198E036
:1020F000B8014AE050E00E945B258CE198E063E083
:1021000071E00E948D258CE198E068814AE050E002
:102110000E94EB248CE198E063E071E00E948D2541
:1021200069817A818CE198E04AE050E00E94BD2408
:102130008CE198E063E071E00E948D258CE198E0ED
:102140006B814AE050E00E94EB248CE198E063E070
:1021500071E00E948D258CE198E06C814AE050E0AE
:102160000E94EB248CE198E063E071E00E948D25F1
:102170006D817E818CE198E04AE050E00E94BD24B0
:102180008CE198E063E071E00E948D258CE198E09D
:102190006F814AE050E00E94FD240F5F1F4F2A9696
:1021A0000B30110509F09CCF04EC13E0C1E0D0E046
:1021B0008CE198E06DE171E00E948D258CE198E062
:1021C000BE014AE050E00E945B258CE198E063E0AC
:1021D00071E00E948D258CE198E0F80160814AE071
:1021E00050E00E94EB248CE198E063E071E00E94F3
:1021F0008D25F801618172818CE198E04AE050E020
:102200000E94CE2421960C5F1F4FC930D10581F664
:1022100001E010E0802F81500E941D06FF2442C083
:102220008CE198E060E271E00E948D258CE198E0FD
:10223000B8014AE050E00E945B258CE198E063E041
:1022400071E00E948D25BE016F5F7F4F8CE198E0A9
:102250004AE050E00E945B258CE198E063E071E089
:102260000E948D25CC0FDD1FCC0FDD1FFE01E25D2E
:10227000FD4F638174818CE198E04AE050E00E9458
:10228000BD248CE198E063E071E00E948D25C05D83
:10229000DD4F6B817C818CE198E04AE050E00E9448
:1022A000CE24F394CF2DD0E080912F029091300274
:1022B000C817D90708F4B4CF0F5F1F4F09301105B5
:1022C00009F0A8CF8CE198E063E271E00C94441A25
:1022D00080912E0690912F060E94C2090C94461AF6
:1022E0000E94E1050E94DB008CE198E067E271E06A
:1022F0000C94441A80912C0690912D068330910500
:10230000B9F5E0912E06F0912F06309789F1E9306A
:10231000F10508F0ABC0209130063091310621154F
:10232000310509F4A3C02531310508F09FC0809123
:10233000320690913306009709F498C04DEF893E1C
:10234000940708F093C0E150F04CEE0FFF1FEE0F22
:10235000FF1FDF01AD53BC4F11962C93EB53FC4F85
:10236000918380838CE198E06BE271E00C94441AD5
:102370008130910509F042C080912E0690912F0680
:10238000009709F473C0099708F070C08CE198E0D9
:102390006DE171E00E948D2560912E0670912F06EF
:1023A0008CE198E04AE050E00E94BD248CE198E086
:1023B00063E071E00E948D25E0912E06F0912F06DA
:1023C000EE0FFF1FEE0FFF1FE154FC4F8CE198E072
:1023D00061814AE050E00E94EB248CE198E063E0E8
:1023E00071E00E948D25E0912E06F0912F06EE0FF0
:1023F000FF1FEE0FFF1FEF53FC4FAEC4892BB1F54B
:1024000004EC13E0C1E0D0E08CE198E06DE171E014
:102410000E948D258CE198E0BE014AE050E00E94C8
:102420005B258CE198E063E071E00E948D258CE1F2
:1024300098E0F80160814AE050E00E94EB248CE1D2
:1024400098E063E071E00E948D25F801618172815E
:102450008CE198E04AE050E00E94CE2421960C5F87
:102460001F4FC930D10581F60C94461A8CE198E0D3
:102470006FE271E00C94441A80912C0690912D0625
:10248000019711F00C94461A80912E0690912F0618
:10249000009711F40C94461A8930910510F00C94B1
:1024A000461A0E94CF0C8CE198E063E371E0ECC720
:1024B00080912C0690912D068430910509F041C041
:1024C000E0912E06F0912F063097D9F1E930F10511
:1024D00008F0FDC08091300690913106009709F414
:1024E000F6C08536910508F0F2C0E150E0932E0267
:1024F0009093300280932F021092C203F0E0EE0F0F
:10250000FF1FEE0FFF1FED53FC4F8083FC01E150D6
:10251000F04CEE0FFF1FEE0FFF1FDF01A25DBD4F5E
:10252000809132069091330614969C938E93139764
:10253000E05DFD4F8091340690913506948383834E
:10254000C1C08130910509F060C080912E06909144
:102550002F06009709F4BBC08930910508F0B7C079
:1025600081500E941D0610E045C08CE198E060E2B9
:1025700071E00E948D2560912E0670912F068CE1EE
:1025800098E04AE050E00E94BD248CE198E063E0CE
:1025900071E00E948D25BE016F5F7F4F8CE198E056
:1025A0004AE050E00E945B258CE198E063E071E036
:1025B0000E948D25CC0FDD1FCC0FDD1FFE01E25DDB
:1025C000FD4F638174818CE198E04AE050E00E9405
:1025D000BD248CE198E063E071E00E948D25C05D30
:1025E000DD4F6B817C818CE198E04AE050E00E94F5
:1025F000CE241F5FC12FD0E080912F029091300236
:10260000C817D90708F4B1CF5DC0892B09F05FC0A6
:1026100001E010E0802F81500E941D06FF2442C07F
:102620008CE198E060E271E00E948D258CE198E0F9
:10263000B8014AE050E00E945B258CE198E063E03D
:1026400071E00E948D25BE016F5F7F4F8CE198E0A5
:102650004AE050E00E945B258CE198E063E071E085
:102660000E948D25CC0FDD1FCC0FDD1FFE01E25D2A
:10267000FD4F638174818CE198E04AE050E00E9454
:10268000BD248CE198E063E071E00E948D25C05D7F
:10269000DD4F6B817C818CE198E04AE050E00E9444
:1026A000CE24F394CF2DD0E080912F029091300270
:1026B000C817D90708F4B4CF0F5F1F4F09301105B1
:1026C00009F0A8CF8CE198E067E371E0DDC68CE10A
:1026D00098E06BE371E0D8C680912C0690912D06AE
:1026E000019789F480912E0690912F06009759F05A
:1026F0008930910540F481500E942F048CE198E0CC
:102700006FE371E0C1C68CE198E063E471E0BCC6A0
:1027100080912C0690912D068130910599F480913D
:102720002E0690912F068E319105F8F08933910590
:10273000E0F490932D0280932C028CE198E067E402
:1027400071E0A2C6892B89F48CE198E06EE071E01B
:102750000E948D2560912C0270912D028CE198E0F1
:102760004AE050E00E94CE2491C68CE198E06BE4F0
:1027700071E08AC680912C0690912D0683309105D8
:10278000D1F4E0912E06F0912F06309709F48EC017
:10279000E333F10508F08AC0EE0FFF1FEC53FE4F44
:1027A0008091300680838091320681838CE198E0AD
:1027B0006FE471E069C68130910509F041C08091F4
:1027C0002E0690912F06009709F470C0C39708F069
:1027D0006DC08CE198E064E171E00E948D2560910C
:1027E0002E0670912F068CE198E04AE050E00E949E
:1027F000BD248CE198E063E071E00E948D25E091BA
:102800002E06F0912F06EE0FFF1FEC53FE4F8CE1CA
:1028100098E060814AE050E00E94EB248CE198E06F
:1028200063E071E00E948D25E0912E06F0912F0665
:10283000EE0FFF1FEC53FE4F8CE198E061812BC43B
:10284000892BA1F506EC11E0C1E0D0E08CE198E025
:1028500064E171E00E948D258CE198E0BE014AE0C0
:1028600050E00E945B258CE198E063E071E00E94FB
:102870008D258CE198E0F80160814AE050E00E94EB
:10288000EB248CE198E063E071E00E948D258CE1FF
:1028900098E0F80161814AE050E00E94FD24219611
:1028A0000E5F1F4FC333D10589F6F0C58CE198E068
:1028B00063E571E0E9C580912C0690912D060097A3
:1028C00019F40E94040E20C0019719F40E94690EA9
:1028D0001BC08CE198E06BE571E0D6C580912C06B9
:1028E00090912D06019771F480912E0690912F06FC
:1028F000019741F481E0809329068CE198E06FE52F
:1029000071E0C2C5109229068CE198E067E571E09C
:10291000BBC580912C0690912D068130910581F4E4
:1029200080912E0690912F060097B9F08430910582
:10293000A0F480932A028CE198E063E671E0A4C5DC
:10294000892B59F48CE198E06BE071E00E948D25B1
:102950008CE198E060912A029EC38CE198E067E6E2
:1029600071E092C580912C0690912D0681309105E1
:1029700099F480912E0690912F060097D1F0FDEFEB
:10298000893E9F07B0F490932806809327068CE138
:1029900098E06BE671E078C5892B59F48CE198E0FA
:1029A00061E171E00E948D256091270670912806F3
:1029B000D5CE8CE198E06FE671E066C580912C067B
:1029C00090912D068830910509F040C080912E0627
:1029D00090912F06009709F496C18932910508F06D
:1029E00092C1FC01EE0FFF1FE80FF91FEE0FFF1F52
:1029F000EE0FFF1FE95BFB4F3C9780913006819300
:102A000080913206909133068193919380913406A0
:102A10009091350681939193809136069091370677
:102A20008193919380913806909139068193919387
:102A300080913A0690913B068193919380913C0658
:102A400080838CE198E063E771E01EC581309105D9
:102A500009F0DDC080912E0690912F06009709F4B1
:102A600052C1899708F04FC18CE198E067E171E0AD
:102A70000E948D2560912E0670912F068CE198E0C2
:102A80004AE050E00E94BD248CE198E063E071E0F0
:102A90000E948D2580912E0690912F06FC01EE0F4D
:102AA000FF1FE80FF91FEE0FFF1FEE0FFF1FE55C82
:102AB000FB4F8CE198E060814AE050E00E94EB24FB
:102AC0008CE198E063E071E00E948D2580912E06F4
:102AD00090912F06FC01EE0FFF1FE80FF91FEE0F7C
:102AE000FF1FEE0FFF1FE45CFB4F608171818CE1E3
:102AF00098E04AE050E00E94BD248CE198E063E059
:102B000071E00E948D2580912E0690912F06FC0188
:102B1000EE0FFF1FE80FF91FEE0FFF1FEE0FFF1F55
:102B2000E25CFB4F608171818CE198E04AE050E00B
:102B30000E94BD248CE198E063E071E00E948D2545
:102B400080912E0690912F06FC01EE0FFF1FE80FDB
:102B5000F91FEE0FFF1FEE0FFF1FE05CFB4F6081C0
:102B600071818CE198E04AE050E00E94BD248CE144
:102B700098E063E071E00E948D2580912E0690918F
:102B80002F06FC01EE0FFF1FE80FF91FEE0FFF1FCE
:102B9000EE0FFF1FEE5BFB4F608171818CE198E0CF
:102BA0004AE050E00E94BD248CE198E063E071E0CF
:102BB0000E948D2580912E0690912F06FC01EE0F2C
:102BC000FF1FE80FF91FEE0FFF1FEE0FFF1FEC5B5B
:102BD000FB4F608171818CE198E04AE050E00E94F7
:102BE000BD248CE198E063E071E00E948D25809126
:102BF0002E0690912F06FC01EE0FFF1FE80FF91F24
:102C0000EE0FFF1FEE0FFF1FEA5BFB4F41C2892B48
:102C100009F079C0C7E4D4E001E010E08CE198E06D
:102C200067E171E00E948D258CE198E0B8014AE0EF
:102C300050E00E945B258CE198E063E071E00E9427
:102C40008D258CE198E068814AE050E00E94EB24F9
:102C50008CE198E063E071E00E948D2569817A81C2
:102C60008CE198E04AE050E00E94BD248CE198E0BD
:102C700063E071E00E948D256B817C818CE198E09E
:102C80004AE050E00E94BD248CE198E063E071E0EE
:102C90000E948D256D817E818CE198E04AE050E0B4
:102CA0000E94BD248CE198E063E071E00E948D25D4
:102CB0006F8178858CE198E04AE050E00E94BD2465
:102CC0008CE198E063E071E00E948D2569857A854A
:102CD0008CE198E04AE050E00E94BD248CE198E04D
:102CE00063E071E00E948D258CE198E06B854AE0FD
:102CF00050E00E94FD240F5F1F4F2C9609321105F2
:102D000009F08CCFC3C38CE198E067E771E0BCC3E6
:102D100080912C0690912D068130910501F58091CE
:102D20002E0690912F06009709F440C00597F0F504
:102D30008CE198E06BE771E00E948D25E0912E0612
:102D40008E2F8150843018F06FEF7FEF07CDF0E0C9
:102D5000EE0FFF1FE055F94F60817181FFCC892B89
:102D600029F58CE198E06EE771E00E948D25C2EBB9
:102D7000D6E010E08CE198E063E071E00E948D25E0
:102D8000143018F06FEF7FEF02C0688179818CE119
:102D900098E04AE050E00E94BD241F5F2296143064
:102DA00049F78CE198E00E940E2470C38CE198E012
:102DB00060E871E069C380912C0690912D06873000
:102DC000910509F09EC060912E0670912F06611545
:102DD000710509F4D1C16B30710508F0CDC1FB015B
:102DE000EE0FFF1FCB01B3E0880F991FBA95E1F7F3
:102DF000E80FF91FE752FC4F809130068083309135
:102E00002E0640912F06832F942FFC01A3E0EE0F96
:102E1000FF1FAA95E1F7880F991FE80FF91FE652E7
:102E2000FC4F809132069091330691838083832FEB
:102E3000942FFC0123E0EE0FFF1F2A95E1F7880F86
:102E4000991FE80FF91FE452FC4F809134068083EC
:102E5000832F942FFC0113E0EE0FFF1F1A95E1F76B
:102E6000880F991FE80FF91FE352FC4F8091360637
:102E70008083832F942FFC01A3E0EE0FFF1FAA9500
:102E8000E1F7880F991FE80FF91FE252FC4F80917C
:102E900038069091390691838083832F942FFC010B
:102EA00023E0EE0FFF1F2A95E1F7880F991FE80F27
:102EB000F91FE052FC4F80913A0680838BEF9FEF21
:102EC000689FF001699FF00D789FF00D11243196F5
:102ED000EE0FFF1FF095E195FF4FED51FC4F21E004
:102EE0002083832F942FFC01B3E0EE0FFF1FBA95D0
:102EF000E1F7880F991FE80FF91FEE51FC4F20836F
:102F0000BAC28130910509F0CBC080912E06909114
:102F10002F06009709F430C10B9708F02DC18CE102
:102F200098E06AE171E00E948D2560912E06709113
:102F30002F068CE198E04AE050E00E94BD248CE12D
:102F400098E063E071E00E948D2580912E069091BB
:102F50002F06FC0173E0EE0FFF1F7A95E1F7880F53
:102F6000991FE80FF91FE752FC4F8CE198E0608150
:102F70004AE050E00E94EB248CE198E063E071E0CD
:102F80000E948D2580912E0690912F06FC0153E022
:102F9000EE0FFF1F5A95E1F7880F991FE80FF91FF1
:102FA000E652FC4F608171818CE198E04AE050E08C
:102FB0000E94BD248CE198E063E071E00E948D25C1
:102FC00080912E0690912F06FC0133E0EE0FFF1F3B
:102FD0003A95E1F7880F991FE80FF91FE452FC4F6B
:102FE0008CE198E060814AE050E00E94EB248CE1A3
:102FF00098E063E071E00E948D2580912E0690910B
:103000002F06FC0103E0EE0FFF1F0A95E1F7880F82
:10301000991FE80FF91FE352FC4F8CE198E06081A3
:103020004AE050E00E94EB248CE198E063E071E01C
:103030000E948D2580912E0690912F06FC01B3E011
:10304000EE0FFF1FBA95E1F7880F991FE80FF91FE0
:10305000E252FC4F608171818CE198E04AE050E0DF
:103060000E94BD248CE198E063E071E00E948D2510
:1030700080912E0690912F06FC0173E0EE0FFF1F4A
:103080007A95E1F7880F991FE80FF91FE052FC4F7E
:103090008CE198E060814AE050E00E94FD24F6C196
:1030A000892B09F069C0C3EED3E001E010E08CE1A8
:1030B00098E06AE171E00E948D258CE198E0B8010A
:1030C0004AE050E00E945B258CE198E063E071E00B
:1030D0000E948D258CE198E068814AE050E00E94D2
:1030E000EB248CE198E063E071E00E948D2569811A
:1030F0007A818CE198E04AE050E00E94BD248CE1A6
:1031000098E063E071E00E948D258CE198E06B818E
:103110004AE050E00E94EB248CE198E063E071E02B
:103120000E948D258CE198E06C814AE050E00E947D
:10313000EB248CE198E063E071E00E948D256D81C5
:103140007E818CE198E04AE050E00E94BD248CE151
:1031500098E063E071E00E948D258CE198E06F813A
:103160004AE050E00E94FD240F5F1F4F2A960B306B
:10317000110509F09CCF8AC18CE198E068E871E004
:1031800083C18CE198E065E071E00E948D258CE1BF
:1031900098E063E070E04AE050E00E945B258CE13B
:1031A00098E063E071E00E948D258CE198E061E099
:1031B00070E04AE050E00E945B258CE198E063E01B
:1031C00071E00E948D258CE198E061E070E04AE0BA
:1031D00050E00E945B258CE198E063E071E00E9482
:1031E0008D258CE198E06DED77E04AE050E00E949B
:1031F0005B258CE198E063E071E00E948D258CE115
:1032000098E066E070E04AE050E00E945B258CE1C7
:1032100098E063E071E00E948D258CE198E064E025
:1032200070E04AE050E00E945B258CE198E063E0AA
:1032300071E00E948D258CE198E060E170E04AE049
:1032400050E00E945B258CE198E063E071E00E9411
:103250008D258CE198E064E070E04AE050E00E9447
:103260005B258CE198E063E071E00E948D258CE1A4
:1032700098E061E070E0BDC08CE198E068E071E04A
:103280000E948D258CE198E068E270E04AE050E011
:103290000E945B258CE198E063E071E00E948D253F
:1032A0008CE198E06AE070E04AE050E00E945B2523
:1032B0008CE198E063E071E00E948D258CE198E05C
:1032C00062E370E04AE050E00E945B258CE198E008
:1032D00063E071E00E948D258CE198E068E070E089
:1032E0004AE050E00E945B258CE198E063E071E0E9
:1032F0000E948D258CE198E064E670E07AC08CE154
:1033000098E060E071E00E948D258CE198E060E03B
:1033100070E04AE050E00E945B258CE198E063E0B9
:1033200071E00E948D258CE198E062E070E04AE057
:1033300050E00E945B258CE198E063E071E00E9420
:103340008D258CE198E064E070E04AE050E00E9456
:103350005B258CE198E063E071E00E948D258CE1B3
:1033600098E066E070E04AE050E00E945B258CE166
:1033700098E063E071E00E948D258CE198E068E0C0
:1033800070E04AE050E00E945B258CE198E063E049
:1033900071E00E948D258CE198E06CE670E04AE0D7
:1033A00050E00E945B258CE198E063E071E00E94B0
:1033B0008D258CE198E06CEB70E04AE050E00E94D3
:1033C0005B258CE198E063E071E00E948D258CE143
:1033D00098E06CE972E04AE050E00E945B258CE1E5
:1033E00098E063E071E00E948D258CE198E06CEB41
:1033F00072E04AE050E00E946E2548C0C3ECD3E082
:1034000010E08CE198E06DE171E00E948D258CE187
:1034100098E0612F4AE050E00E94EB248CE198E0B4
:1034200063E071E00E948D258CE198E068814AE0BC
:1034300050E00E94EB248CE198E063E071E00E9490
:103440008D258CE198E069814AE050E00E94EB24F0
:103450008CE198E063E071E00E948D256A817B81B8
:103460008CE198E04AE050E00E94CE241F5F249651
:10347000183039F60BC08CE198E064E871E004C0C4
:103480008CE198E06CE871E00E949025DF91CF918B
:103490001F910F91FF9008957F928F929F92AF920C
:1034A000BF92CF92DF92EF92FF920F931F93CF9331
:1034B000DF938CE198E00E94D5228536910514F0C7
:1034C0000E947A0E8091760690917706A0917806F8
:1034D000B0917906815A9648A140B04040F0809161
:1034E000420690914306892B11F00E947A0E80913A
:1034F000760690917706A0917806B09179060196AC
:10350000A11DB11D8093760690937706A09378064F
:10351000B093790672E0772E64E6962E5AE0852EF7
:1035200040E1A42E47E2B42E38EEC32E33E0D32E72
:10353000EAC000914206109143068CE198E00E9497
:1035400006230C5B194FF8018083C0914206D0918D
:1035500043062196D0934306C093420621971092CA
:10356000760610927706109278061092790680916E
:103570002A06813021F0823009F0C3C027C0CC5B1D
:10358000D94FE881EB3331F0ED3021F0EA3011F022
:10359000EE33A1F48091440680932B0670922A06A4
:1035A000ED3021F0EA3011F0EE3321F40E94B70E35
:1035B0000E947A0E109243061092420680914206B3
:1035C00090914306029708F09CC09DC0FE01EC5B01
:1035D000F94F00810B3311F00D3099F460912C06F6
:1035E00070912D06AE01409550954A5F5F4FE4E41F
:1035F000F6E0EE24FF24DB01AA0FBB1FA25DB94F4A
:1036000062C00A3059F30E3309F075C0E7CF42307B
:10361000510581F14330510540F44115510569F0E0
:103620004130510509F049C014C04330510561F1E2
:103630004430510509F041C036C0808190E0C09708
:103640009C012A9DC0012B9D900D3A9D900D112447
:103650000BC0808190E0C0979C012C9DC0012D9DE6
:10366000900D3C9D900D11242D913C911197820F4E
:10367000931F20C02D913C911197205C3241808195
:10368000899DC001112409C02D913C911197205EA4
:1036900031408081889DC0011124280F391F119667
:1036A0003C932E930AC020818D919C911197820F9B
:1036B000911DC09711969C938E930894E11CF11C68
:1036C0004F5F5F4F3196EC16FD0608F4A0CF6F5F99
:1036D0007F4F70932D0660932C060D3021F00A3039
:1036E00011F00E3321F40E94B70E0E947A0E109250
:1036F0004306109242068091420690914306069737
:1037000010F00E947A0E8CE198E00E94D5221816E3
:1037100019060CF40ECFDF91CF911F910F91FF90FE
:10372000EF90DF90CF90BF90AF909F908F907F9061
:1037300008950F931F930CE118E0C80140E855E28B
:1037400060E070E00E944E22C8016EE871E00E94C5
:1037500090250E947A0E1F910F9108950E94991B47
:103760000E9446010E94DD010E94A2020E944101C6
:103770000E94EE010E947A010E94A2020895909197
:103780002A0280912B02981731F00E94AE1B809183
:103790002A0280932B020E944C1A0E94220D0E9442
:1037A0008C0308950E94CB050E94DB000E94690EE5
:1037B0000E94AE1B089581E0809310076093ED0690
:1037C00010920E0710920F0708952091EC0630E03A
:1037D0008091EB06281B3109C90108954091EB0641
:1037E0008091EC06481718F02FEF3FEF0AC0E42F46
:1037F000F0E0E553F94F8081282F30E04F5F409390
:10380000EB06C9010895E091EB068091EC06E817FC
:1038100018F0EFEFFFEF06C0F0E0E553F94F8081BD
:10382000E82FF0E0CF010895089510921407109248
:10383000130788EE93E0A0E0B0E080931507909323
:103840001607A0931707B09318078AEA91E09093A0
:103850001207809311070895CF92DF92EF92FF92A3
:103860000F931F93CF93DF937C016B018A018091AB
:1038700010078823A1F0C0E0D0E00DC0D701ED9182
:10388000FC91D601AC0FBD1F0190F081E02DC70166
:103890006C9109952196C017D10780F304C0CB0124
:1038A000642F0E945E1DC801DF91CF911F910F917F
:1038B000FF90EF90DF90CF900895DF93CF930F921A
:1038C000CDB7DEB7FC016983809110078823C9F06A
:1038D00080910F07803238F081E090E093838283FB
:1038E00020E030E015C080910E07E82FF0E0E251B3
:1038F000F94F998190838F5F80930E0780930F0714
:1039000005C0CE01019661E00E945E1D21E030E01D
:10391000C9010F90CF91DF9108950F93062F8091E9
:10392000ED066EEE76E040910F0721E00E94091D42
:1039300010920E0710920F07109210070F91089522
:1039400061E00E948D1C0895413208F040E2862F0C
:103950006BEC76E00E94C01C1092EB068093EC06A4
:10396000089521E00E94A41C08951092EB06109285
:10397000EC0610920E0710920F070E940A1F08957E
:10398000382F413210F040E042C080911D0788235B
:10399000E1F791E090931D0720931F078FEF80932D
:1039A0008A07109245074150409346074F5F909316
:1039B0001E0780911E07330F832B80931E07809173
:1039C0002007813041F41092200780911E078093D8
:1039D000BB0085EC01C085EE8093BC0080911D0783
:1039E0008130E1F380914507841710F44091450739
:1039F00020E030E00AC0FB01E20FF31FD901AB5D0C
:103A0000B84F8C9180832F5F3F4F2417A0F3842FF2
:103A100008950F931F93582F122F413210F081E019
:103A20004AC080911D078823E1F782E080931D073B
:103A300000931F078FEF80938A07109245074093EA
:103A40004607A5E2B7E0FB0102C081918D938E2F5E
:103A5000861B8417D0F310921E0780911E07550F06
:103A6000852B80931E0780912007813041F41092AE
:103A7000200780911E078093BB0085EC01C085EE76
:103A80008093BC00112321F080911D078230E1F367
:103A900080918A078F3F11F480E00DC080918A07E2
:103AA000803211F482E007C080918A07803311F0E0
:103AB00084E001C083E01F910F910895482F613287
:103AC00010F081E0089580911D07843011F082E0AC
:103AD000089560936807A7E4B7E0842F9C01F9017B
:103AE00002C081918D938E2F841B8617D0F380E0C6
:103AF00008951F920F920FB60F9211242F933F93A8
:103B00004F935F936F937F938F939F93AF93BF93E5
:103B1000EF93FF938091B90090E0887F907080369A
:103B2000910509F4F2C081369105CCF588329105F2
:103B300009F47BC089329105B4F48031910509F410
:103B40006FC0813191053CF4009709F447C1089793
:103B500009F04FC165C08831910509F466C08097AE
:103B600009F047C182C08034910509F4A4C08134B2
:103B7000910544F48033910509F482C0C89709F097
:103B800038C189C08035910509F489C0883591050F
:103B900009F496C08834910509F02BC1AEC088396C
:103BA000910509F413C189399105ECF48837910521
:103BB00009F4ABC0893791054CF48836910509F4B6
:103BC000A4C08037910509F014C19FC088389105C1
:103BD00009F4FCC08039910509F49DC08038910535
:103BE00009F007C198C0803B910509F4C6C0813B2C
:103BF00091054CF4803A910509F49FC0883A9105EB
:103C000009F0F7C0BAC0803C910509F4E3C0883CD4
:103C1000910509F4DFC0883B910509F0EAC0C2C0F4
:103C200080911E078093BB00CFC090914507809183
:103C30004607981768F490914507E92FF0E0EB5D8F
:103C4000F84F80818093BB009F5F90934507BCC075
:103C500080911F07882309F44BC085ED8093BC0039
:103C60008091BC0084FDFCCFC2C080E280938A07B3
:103C700085ED8093BC008091BC0084FDFCCFB7C073
:103C800080E380938A0785ED8093BC008091BC001F
:103C900084FDFCCFACC088E380938A079BC08091F1
:103CA00045079091BB00E82FF0E0EB5DF84F908363
:103CB0008F5F80934507909145078091460782C0AA
:103CC000809145079091BB00E82FF0E0EB5DF84F45
:103CD00090838F5F8093450780911F07882341F071
:103CE00085ED8093BC008091BC0084FDFCCF7FC03B
:103CF00081E08093200784EA6EC085ED8093BC004C
:103D00008091BC0084FDFCCF72C083E080931D07CE
:103D10001092890759C080918907803208F056C0F7
:103D2000809189079091BB00E82FF0E0E759F84FA8
:103D300090838F5F8093890747C080918907803285
:103D400030F4E0918907F0E0E759F84F108285EDF3
:103D50008093BC008091BC0084FDFCCF10921D07B5
:103D600060918907E0912307F091240789E697E0A5
:103D700070E00995109289072DC084E080931D079B
:103D80001092670710926807E0912107F0912207CF
:103D9000099580916807882329F481E0809368075A
:103DA0001092470790916707E92FF0E0E95BF84F21
:103DB00080818093BB009F5F909367079091670716
:103DC00080916807981710F485EC01C085E880930E
:103DD000BC000FC085EC8093BC0009C010928A071C
:103DE00085ED8093BC008091BC0084FDFCCF1092D7
:103DF0001D07FF91EF91BF91AF919F918F917F919F
:103E00006F915F914F913F912F910F900FBE0F9047
:103E10001F90189510921D0781E080931F07109244
:103E2000200782E161E00E94812083E161E00E943D
:103E30008120E9EBF0E080818E7F808380818D7F1F
:103E4000808388E48093B80085E48093BC00089563
:103E50001F920F920FB60F9211242F933F938F93BF
:103E60009F93AF93BF9380918F0790919007A091FC
:103E70009107B0919207309193070196A11DB11D52
:103E8000232F2D5F2D3720F02D570196A11DB11D39
:103E90002093930780938F0790939007A0939107A7
:103EA000B093920780918B0790918C07A0918D071A
:103EB000B0918E070196A11DB11D80938B07909341
:103EC0008C07A0938D07B0938E07BF91AF919F9100
:103ED0008F913F912F910F900FBE0F901F901895CB
:103EE0008FB7F89420918F073091900740919107F8
:103EF000509192078FBFB901CA0108959FB7F894F6
:103F000020918B0730918C0740918D0750918E073F
:103F100086B5A89B06C08F3F21F02F5F3F4F4F4FC4
:103F20005F4F9FBF542F432F322F2227280F311D61
:103F3000411D511D82E0220F331F441F551F8A95DA
:103F4000D1F7B901CA0108959B01AC017FB7F8947C
:103F500080918B0790918C07A0918D07B0918E076F
:103F600066B5A89B05C06F3F19F00196A11DB11D54
:103F70007FBFBA2FA92F982F8827860F911DA11DCB
:103F8000B11D62E0880F991FAA1FBB1F6A95D1F768
:103F9000BC012DC0FFB7F89480918B0790918C07DE
:103FA000A0918D07B0918E07E6B5A89B05C0EF3FA5
:103FB00019F00196A11DB11DFFBFBA2FA92F982F8F
:103FC00088278E0F911DA11DB11DE2E0880F991F5A
:103FD000AA1FBB1FEA95D1F7861B970B885E9340FB
:103FE000C8F2215030404040504068517C4F21156C
:103FF00031054105510571F60895019739F0880F93
:10400000991F880F991F02970197F1F708957894E7
:1040100084B5826084BD84B5816084BD85B58260CD
:1040200085BD85B5816085BDEEE6F0E0808181606B
:104030008083E1E8F0E0108280818260808380816B
:1040400081608083E0E8F0E0808181608083E1EB43
:10405000F0E0808184608083E0EBF0E0808181602B
:104060008083EAE7F0E080818460808380818260E1
:1040700080838081816080838081806880831092CA
:10408000C1000895CF93DF93482F50E0CA018853B1
:104090009F4FFC0134914C545F4FFA018491882367
:1040A00069F190E0880F991FFC01EA56FF4FA59136
:1040B000B491FC01E056FF4FC591D491662351F4B1
:1040C0002FB7F8948C91932F909589238C938881A6
:1040D00089230BC0623061F42FB7F8948C91932F31
:1040E000909589238C938881832B88832FBF06C06A
:1040F0009FB7F8948C91832B8C939FBFDF91CF91C6
:104100000895482F50E0CA0184529F4FFC0124912A
:10411000CA0188539F4FFC0194914C545F4FFA01A0
:104120003491332309F440C0222351F1233071F03C
:10413000243028F42130A1F0223011F514C02630AB
:10414000B1F02730C1F02430D9F404C08091800050
:104150008F7703C0809180008F7D8093800010C096
:1041600084B58F7702C084B58F7D84BD09C08091EE
:10417000B0008F7703C08091B0008F7D8093B00036
:10418000E32FF0E0EE0FFF1FE056FF4FA591B49133
:104190002FB7F894662321F48C919095892302C05F
:1041A0008C91892B8C932FBF0895682F70E0CB01E1
:1041B00084529F4FFC012491CB0188539F4FFC01F7
:1041C00044916C547F4FFB019491992319F420E0A2
:1041D00030E03CC0222351F1233071F0243028F428
:1041E0002130A1F0223011F514C02630B1F0273073
:1041F000C1F02430D9F404C0809180008F7703C0CF
:10420000809180008F7D8093800010C084B58F776F
:1042100002C084B58F7D84BD09C08091B0008F77C6
:1042200003C08091B0008F7D8093B000892F90E013
:10423000880F991F86559F4FFC01A591B4918C91D1
:1042400020E030E0842311F021E030E0C90108953E
:104250008F929F92AF92BF92CF92DF92EF92FF9296
:104260000F931F93CF93DF93A82FB0E0CD01885316
:104270009F4FFC018490AC54BF4FFD018491662395
:1042800011F4992401C0982C6FEFA62E6FEFB62E73
:104290006FEFC62E6FE0D62EA222B322C422D52203
:1042A000682F70E0660F771F66557F4FEE24FF245E
:1042B0008701FB01A591B4910BC0EA14FB040C0526
:1042C0001D0509F44EC00894E11CF11C011D111DCF
:1042D0008C918821891589F30CC0EA14FB040C0524
:1042E0001D0509F43EC00894E11CF11C011D111DBF
:1042F00003C0FB01A591B4918C918821891569F7C0
:1043000020E030E040E050E0FB01C591D4910FC0C7
:10431000DA01C9018E0D9F1DA01FB11F8A159B05D3
:10432000AC05BD05F1F02F5F3F4F4F4F5F4F8881C8
:104330008821891569F3CA01B90125E130E040E01F
:1043400050E00E94A3259B01AC01205F3F4F4F4FDF
:104350005F4F84E056954795379527958A95D1F715
:1043600004C020E030E040E050E0B901CA01DF9134
:10437000CF911F910F91FF90EF90DF90CF90BF9062
:10438000AF909F908F90089508951F920F920FB64F
:104390000F9211242F933F934F938F939F93EF93FB
:1043A000FF938091C00082FD1DC04091C600209106
:1043B000D4073091D5072F5F3F4F2F733070809116
:1043C000D6079091D7072817390771F0E091D407E5
:1043D000F091D507EC56F84F40833093D5072093E2
:1043E000D40702C08091C600FF91EF919F918F91F9
:1043F0004F913F912F910F900FBE0F901F901895E6
:10440000E0912808F0912908E05CFF4F819191919B
:1044100020813181821B930B8F739070892B11F057
:104420000E94C42108951F920F920FB60F9211247B
:104430002F933F938F939F93EF93FF9320911808AF
:104440003091190880911A0890911B082817390794
:1044500031F48091C1008F7D8093C10014C0E09140
:104460001A08F0911B08E852F84F208180911A0831
:1044700090911B0801968F73907090931B08809306
:104480001A082093C600FF91EF919F918F913F9161
:104490002F910F900FBE0F901F901895AF92BF9263
:1044A000DF92EF92FF920F931F93CF93DF93EC0174
:1044B0007A018B01DD24403081EE580780E06807E7
:1044C00080E0780711F0DD24D39491E0A92EB12C7F
:1044D000EC89FD89DD2069F0C50108A002C0880FC4
:1044E000991F0A94E2F7808360E079E08DE390E021
:1044F00005C0108260E874E88EE190E0A8019701A1
:104500000E94D62521503040404050405695479556
:104510003795279580E12030380720F0DD2011F015
:10452000DD24D6CFE889F9893083EA89FB892083A5
:1045300019A2EE89FF89408121E030E0C9010C8C8D
:1045400002C0880F991F0A94E2F7482B4083EE8936
:10455000FF894081C9010D8C02C0880F991F0A9400
:10456000E2F7482B4083EE89FF894081C9010E8C18
:1045700002C0880F991F0A94E2F7482B4083EE8906
:10458000FF8980810F8C02C0220F331F0A94E2F74B
:10459000209528232083DF91CF911F910F91FF90C9
:1045A000EF90DF90BF90AF900895DC011C96ED91E5
:1045B000FC911D97E05CFF4F2191319180819181A9
:1045C000281B390B2F733070C9010895DC011C962C
:1045D000ED91FC911D97E05CFF4F20813181E0540B
:1045E000F040DF01AE5BBF4F8D919C911197281772
:1045F000390719F42FEF3FEF07C08D919C91E80F19
:10460000F91F8081282F30E0C9010895DC011C9634
:10461000ED91FC911D97E05CFF4F20813181E054CA
:10462000F040DF01AE5BBF4F8D919C911197281731
:10463000390719F42FEF3FEF10C08D919C9111971E
:10464000E80FF91F20818D919C91119701968F732E
:10465000907011969C938E9330E0C9010895DC010F
:1046600091968C919197882339F05496ED91FC9115
:104670005597808186FFF9CF91961C920895CF932C
:10468000DF93EC01EE85FF85E05CFF4F20813181F7
:10469000E054F0402F5F3F4F2F733070DF01AE5B6F
:1046A000BF4F8D919C91119728173907D1F3E05C8A
:1046B000FF4F80819181E054F040E80FF91F608343
:1046C000EE85FF85E05CFF4F31832083EE89FF8913
:1046D000208181E090E00F8C02C0880F991F0A941E
:1046E000E2F7282B208381E089A3EC89FD89808172
:1046F0008064808381E090E0DF91CF9108951092F3
:104700001F0810921E0888EE93E0A0E0B0E08093AE
:10471000200890932108A0932208B09323088AEBE5
:1047200091E090931D0880931C0884E997E0909392
:1047300029088093280888ED97E090932B088093B0
:104740002A0885EC90E090932D0880932C0884EC47
:1047500090E090932F0880932E0880EC90E0909347
:1047600031088093300881EC90E090933308809377
:10477000320882EC90E0909335088093340886EC00
:1047800090E0909337088093360884E0809338084F
:1047900083E08093390887E080933A0885E080932E
:1047A0003B0881E080933C080895CF93DF930E94FB
:1047B00007200E94D21BC0E0D2E20E94BF1B2097BC
:1047C000E1F30E940022F9CFCF92DF92EF92FF92A5
:1047D0000F931F93CF93DF937C016B018A01C0E09D
:1047E000D0E00FC0D6016D916D01D701ED91FC9124
:1047F0000190F081E02DC7010995C80FD91F015024
:1048000010400115110571F7CE01DF91CF911F9175
:104810000F91FF90EF90DF90CF900895EF92FF926D
:104820000F931F938C01DC01ED91FC910190F081BD
:10483000E02D6DE009957C01D801ED91FC9101908E
:10484000F081E02DC8016AE009959C012E0D3F1D05
:10485000C9011F910F91FF90EF900895CF93DF93BF
:10486000EC016115710519F420E030E00FC0DB01A7
:104870000D900020E9F71197A61BB70BE881F9818D
:104880000280F381E02DAD0109959C01C901DF9102
:10489000CF9108954F925F927F928F929F92AF92A5
:1048A000BF92CF92DF92EF92FF920F931F93DF930D
:1048B000CF93CDB7DEB7A1970FB6F894DEBF0FBE8A
:1048C000CDBF2C01742ECB01223008F42AE019A2AE
:1048D00031E2C32ED12CCC0EDD1E822E9924AA24C7
:1048E000BB24672D752FA50194010E94D62579015F
:1048F0008A01C801B701A50194010E94A325472D93
:10490000461B0894C108D1084A3014F4405D01C028
:10491000495CF6014083E114F1040105110521F021
:104920007E2C5F2DC801DDCFC201B6010E942E246E
:10493000A1960FB6F894DEBF0FBECDBFCF91DF9129
:104940001F910F91FF90EF90DF90CF90BF90AF90AD
:104950009F908F907F905F904F900895DC0121157C
:10496000310541F4ED91FC910190F081E02D642F2F
:10497000099508950E944A240895EF92FF920F939B
:104980001F939A017B0100E010E0B801A7010E948B
:10499000AE241F910F91FF90EF900895CF92DF9278
:1049A000EF92FF920F931F936C017B019A0100E03D
:1049B00010E0B801A7010E94AE248C01C6010E943C
:1049C0000E24080F191FC8011F910F91FF90EF903F
:1049D000DF90CF900895EF92FF920F931F939A016B
:1049E000E62EFF2400E010E0B801A7010E94AE24EB
:1049F0001F910F91FF90EF900895CF92DF92EF9269
:104A0000FF920F931F936C01E62E9A01FF2400E0A2
:104A100010E0B801A7010E94AE248C01C6010E94DB
:104A20000E24080F191FC8011F910F91FF90EF90DE
:104A3000DF90CF900895CF92DF92EF92FF920F9385
:104A40001F93CF93DF93EC016A017B0121153105A0
:104A500041F4E881F9810190F081E02D642F0995FE
:104A60001FC02A303105D1F477FF17C0E881F981E2
:104A70000190F081E02D6DE209958C0144275527C6
:104A8000BA014C195D096E097F09CE012AE00E9426
:104A90004A249801280F391F04C02AE00E944A24A2
:104AA0009C01C901DF91CF911F910F91FF90EF9071
:104AB000DF90CF900895EF92FF920F931F937B01A9
:104AC0009A010027F7FC0095102FB801A7010E945A
:104AD0001B251F910F91FF90EF900895CF92DF92C9
:104AE000EF92FF920F931F936C017B019A010027B5
:104AF000F7FC0095102FB801A7010E941B258C011F
:104B0000C6010E940E24080F191FC8011F910F91A2
:104B1000FF90EF90DF90CF9008950E942E2408958B
:104B2000EF92FF920F931F937C010E942E248C0121
:104B3000C7010E940E24080F191FC8011F910F9171
:104B4000FF90EF900895629FD001739FF001829FC4
:104B5000E00DF11D649FE00DF11D929FF00D839F0C
:104B6000F00D749FF00D659FF00D9927729FB00DA9
:104B7000E11DF91F639FB00DE11DF91FBD01CF01BC
:104B800011240895AA1BBB1B51E107C0AA1FBB1F1C
:104B9000A617B70710F0A61BB70B881F991F5A95C9
:104BA000A9F780959095BC01CD010895A1E21A2E38
:104BB000AA1BBB1BFD010DC0AA1FBB1FEE1FFF1FC1
:104BC000A217B307E407F50720F0A21BB30BE40B11
:104BD000F50B661F771F881F991F1A9469F7609558
:104BE0007095809590959B01AC01BD01CF01089512
:104BF000EE0FFF1F0590F491E02D0994F894FFCF7C
:104C0000453B003B00563B00573B004F3B004B3BB6
:104C100000503B004C3B00523B00543B00473B00E4
:104C2000493B00443B3100463B3100473B310047A4
:104C30003B3000483B3100493B3100493B30004AA2
:104C40003B31004A3B30004B3B31004B3B30004C8A
:104C50003B31004C3B30004D3B31004D3B30004E72
:104C60003B31004F3B31004F3B3000503B31005057
:104C70003B3000523B3100523B3000533B0053006D
:104C8000533B3000543B3100543B300055005374CB
:104C90007261746F536E6170706572203220496E5C
:104CA00069742E006800000000005D1C2C1CE51BD0
:104CB000EE1B031C141C000000003F23E423D5223C
:064CC0000623E6222F236B
:00000001FF
